:20000000B02600204BBD000051BD000053BD000057BD000055BD000057BD0000000000008A
:2000200000000000000000000000000057BD000057BD00000000000057BD0000B1B800001B
:2000400057BD000057BD000057BD000057BD00000FB9000057BD000057BD000057BD00004C
:2000600057BD000057BD000057BD000057BD000057BD000057BD000057BD000057BD0000E0
:2000800057BD000057BD000057BD000057BD000057BD000057BD000057BD000057BD0000C0
:2000A00057BD000057BD000057BD000057BD000057BD000057BD000057BD000057BD0000A0
:2000C00057BD0000B9B8000057BD000057BD000057BD000057BD0000F5B8000057BD00008A
:2000E00057BD000057BD0000EDB8000057BD000057BD000057BD000057BD000057BD0000CF
:2001000057BD000057BD000057BD000057BD000057BD000057BD000057BD000057BD00003F
:20012000D3B8000057BD000057BD000057BD000057BD000057BD000057BD000057BD0000A8
:2001400057BD000057BD000057BD000057BD0000000000000000000057BD000057BD000027
:2001600057BD000057BD00000000000057BD000057BD000057BD000057BD000057BD0000F3
:2001800057BD000057BD000057BD000057BD000057BD000057BD000057BD000057BD0000BF
:2001A00057BD000057BD000057BD000057BD000057BD000057BD000057BD000057BD00009F
:2001C00057BD000057BD000057BD000057BD000057BD000057BD000057BD000057BD00007F
:2001E00057BD000057BD000057BD000057BD000057BD000057BD000057BD000057BD00005F
:0802000057BD000000000000E2
:20020800ADF1180D03930292019100900098807B049000999DF8040088730698012805D1D6
:200228000099029A9DF80C00505404E00099029ABDF80C0050529DF810000099887306B0D1
:200248007047ADF1180D03930292019100900098807B8DF8140000999DF8040088730398DC
:20026800012804D100980299085C049003E000980299085A04909DF8140000998873049868
:2002880006B07047ADF1080D00900098401C017841F00201017002B07047ADF1080D8DF8F3
:2002A800041000909DF8040030B10098401C017841F00801017005E00098401C017821F09D
:2002C8000801017002B07047ADF1080D8DF8041000909DF8040030B10098401C017841F03F
:2002E8002001017005E00098401C017821F02001017002B07047ADF1080D8DF8041000902A
:200308009DF8040030B10098401C017841F00401017005E00098401C017821F0040101706E
:2003280002B07047ADF1080D009000984078400901D302200FE0009890F86000C00901D36E
:20034800012008E0009890F86000800901D3002001E04FF0004002B07047ADF1080D009083
:2003680000984078400901D3022000E0012002B07047ADF1080D01910090019810F0FF0F00
:2003880007D0009801990B30027801F0FF018A4302700198400A03D300990020C1F8080430
:2003A8000198800A02D39B490020086002B07047ADF1080D01910090019810F0FF0F05D017
:2003C800009801990B300278114301700198400A03D300990120C1F808040198800A02D339
:2003E8008C490120086002B07047ADF1080D00900098807A01900098D0F80C0440080AD333
:20040800019840F480700190009800F20C41087840F001000870A6480068400808D3019874
:2004280040F400700190A249086840F001000860019802B07047ADF1080D0191009000981C
:20044800019A801D01886FF31F42914301800098019A083001886FF3100221EA1241018074
:2004680002B07047ADF1080D0191009000990198891D0A886FF31F40104308800098019AFD
:20048800083001886FF3100241EA1241018002B07047ADF1080D00900098408801900099EA
:2004A8000198898840EA01400190019802B07047ADF1080D0090AE49AC480A68AD491040A6
:2004C800814202D13C2001900BE0A949A7480A68A9491040814202D13A20019001E000208F
:2004E8000190019802B070470EB5019100900098FFF7DEFF02900199029807F0E0FC0298DE
:2005080007F073FD0EBD0EB500900098FFF7D0FF0190019807F0A2FD019807F0F9FC0EBDE1
:20052800ADF1100D01910090019900984018B0F8020102900199009840180299B0F806013B
:2005480041EA00410291029804B07047ADF1100D029201910090019838B90098029A00F56B
:20056800817001789143017012E001990098029A401800F5817001789143017001990098D6
:20058800029A401800F58370017821EA1241017004B07047ADF1100D0292019100900198BA
:2005A800F0B90298400806D3009800F58170017841F0400101700298400906D3009800F5AC
:2005C8008170017841F0800101700298C0081ED3009800F58170017821F00401017016E0BF
:2005E80001990098401800F581700299027801F024018A43027001990098029A401800F5FE
:200608008370017802F4980221EA1241017004B07047C04648040540ADF1180D02938DF828
:20062800102001910090002003909DF8100058B1019810B90220039006E0029810B902207D
:20064800039001E001200390019860B900980399009A90F8030120F00600014341F00401CE
:2006680082F8031122E0029880B901990098019B009A401890F807010399D21820F0060023
:20068800014341F0040182F807110FE001990098019B009A401890F803010399D21820F075
:2006A8000300014341F0020182F8031106B070474C040540ADF1100D02920191009002981C
:2006C800800B09D301990098401800F58170017841F04001017008E001990098401800F578
:2006E8008370017841F08001017004B07047ADF1100D8DF80820019100909DF8080028B1F8
:200708004F49087820F00800087004E04C49087840F00800087004B07047ADF1100D0292C6
:2007280001910090019838B9009800F58170017841F06001017016E00298B0F5005F09D19D
:2007480001990098401800F58170017841F01001017008E001990098401800F58370017822
:2007680041F02001017004B07047C0460000FF7000E00F400000051000000A10ADF1100DB5
:20078800029201910090019838B9009800F58170017821F00401017028E00298B0F5005FED
:2007A80012D101990098401800F58170017821F03001017001990098401800F581700178C9
:2007C80041F04001017011E001990098401800F58370017821F060010170019900984018E5
:2007E80000F58370017841F08001017004B07047ADF1080D00900098401C017841F04001E0
:20080800017002B07047ADF1080D00900098401C017821F04001017002B07047ADF1080D67
:20082800019100909DF804000099087002B07047ADF1080D00900098007802B07047C046B9
:2008480003010540ADF1180D03930292019100900198C8B99DF80C00009981F80B010798C0
:20086800C00B04D30099402081F80A01B5E00798400B04D30099802081F80A01ADE0009918
:20088800C02081F80A01A8E0069804900798C00B04D3049840F0400004901EE00798400B69
:2008A80004D3049840F08000049016E0049840F0C000049011E0049840F02000049019E0F9
:2008C800049840F01000049014E0049840F0300004900FE0049804900CE0079810F44070BE
:2008E800EED0B0F58070E6D0B0F58070EDD0B0F58070EFD00798800B34D3019900989DF849
:200908001020401880F80A21009801999DF80C20401880F80B2100980199BDF8082040184E
:20092800A0F80021002004900798400803D3049840F0800004900798400904D3049840F01A
:200948001400049006E00798000903D3049840F010000490019900989DF81020401880F84C
:2009680003213AE0019900989DF81020401880F80C21009801999DF80C20401880F80D214C
:2009880000980199BDF808204018A0F80421002004900798C00803D3049840F0800004905A
:2009A8000798800803D3049840F0400004900798400904D3049840F02800049006E00798C6
:2009C800000903D3049840F020000490019900989DF81020401880F8072106B07047ADF1B6
:2009E800180D0292019100900298C00B02D34020049007E00298400B02D38020049001E030
:200A0800C0200490019828B99DF81000009981F80A012DE00298800B15D30199009840187A
:200A2800B0F80A0120F0C0000390049803990843039000980199401800F5857003990288E8
:200A48001143018014E0019900984018B0F80C0120F0C00003900498039908430390009875
:200A68000199401800F58670039902881143018006B07047ADF1180D03930292019100901A
:200A88000398800B34D301990098BDF808204018A0F80021002004900398400803D30498F8
:200AA80040F0800004900398400904D3049840F01400049006E00398000903D3049840F08F
:200AC80010000490039810F4407F03D1049840F040000490019900989DF81020401880F8D1
:200AE80003210098019A4021801880F8021138E001990098BDF808204018A0F804210020B7
:200B080004900398C00801D3802004900398400904D3049840F02800049006E00398000901
:200B280003D3049840F0200004900398800903D3049840F010000490039810F4407F03D1BB
:200B4800049840F040000490019900989DF81020401880F807210098019A8021801880F81A
:200B6800061106B07047ADF1180D039302920191009003980068800B36D303984FF4005114
:200B88000160019A009802998018B0F80001086001990098401890F8030104900498000A25
:200BA80004D30399086840F001000860049840090DD30498C00805D30399086840F0100064
:200BC800086004E00399086840F0080008600498C00903D30398016801603AE0039908684F
:200BE80040F48070086034E0039800210160019A009802998018B0F8040108600199009883
:200C0800401890F8070104900498000A04D30399086840F004000860049880090DD304988A
:200C2800000905D30399086840F01000086004E00399086840F0080008600498C00903D34C
:200C480003980168016004E00399086840F48070086006B0704700B5ADF1140D049303929E
:200C6800029101900698800B13D3012000900298049B010901986222FFF7C2FA02200090C4
:200C880003980299C308019864220909FFF7B8FA12E0012000900298049B0109019863226E
:200CA800FFF7AEFA0220009003980299C308019866220909FFF7A4FA05B000BD00B5ADF14F
:200CC800140D03930292019100900698800B13D301980109009864220223FFF7B2FA02996D
:200CE800C000086001980109009862220123FFF7A8FA0399086012E0019801090098662290
:200D08000223FFF79EFA0299C000086001980109009863220123FFF794FA0399086005B034
:200D280000BDADF1100D0292019100900298800B1DD301990098401890F8030120F08400BE
:200D480003900298400903D3039840F0040003900298400803D3039840F0800003900199AD
:200D680000989DF80C20401880F8032123E001990098401890F8070120F0C80003900298FC
:200D8800400903D3039840F0080003900298C00803D3039840F0800003900298800803D3B8
:200DA800039840F040000390019900989DF80C20401880F8072104B07047ADF1100D0292E8
:200DC800019100900298800B09D301990098401800F20311087840F01000087008E001999E
:200DE8000098401800F20711087840F02000087004B07047ADF1100D029201910090029833
:200E0800800B09D301990098401800F20311087820F01000087008E001990098401800F257
:200E28000711087820F02000087004B07047ADF1100D01910090019818B94FF481700290F2
:200E480003E0019800F58370029000980299085A400801D2002004E0019900984018B0F8AE
:200E6800080104B07047ADF1200D0393029201910090019818B94FF48170049003E0019831
:200E880000F58370049000980499085A400805D20398002101604FF0FF3027E00199009854
:200EA8004018B0F808010590039805990068884201D9059801E003980068059003990598F8
:200EC80008600199009800EB910020300690059858B102980699421C0292097801700598AE
:200EE800401E059005980028F3D1002008B07047ADF1100D8DF8082001910090019858B9AB
:200F08009DF8080008B1082000E00020009940F0400081F8020108E001990098401800F55F
:200F28008370017821F00101017004B07047ADF1080D01910090019838B9009800F5817071
:200F4800017821F00101017008E001990098401800F58370017821F00101017002B07047CC
:200F6800ADF1180D0393029201910090019818B902208DF8140002E001208DF814000199FF
:200F8800009840189DF8141090F80201014202D04FF0FF3014E00199009800EB91002030A0
:200FA8000490039858B1029810F8011B0290049801700398401E039003980028F3D1002061
:200FC80006B07047ADF1100D029201910090019860B9009890F80201800802D34FF0FF308B
:200FE8001AE0029800F0FF0003900DE001990098401890F80201400802D34FF0FF300BE05B
:201008000298C0F307200390019900989DF80C20401880F80221002004B07047ADF1100D95
:20102800029201910090019850B9009890F8020110F0030F28D00099012081F8030123E0E9
:201048000298800B10D301990098401890F80201400819D301990098401800F5817001784E
:2010680041F0080101700FE001990098401890F80601400808D301990098401800F5837020
:20108800017841F01001017004B07047ADF1100D01910090019818B94FF48170029003E0C1
:2010A800019800F5837002900098029920220A5404B07047ADF1100D01910090019818B990
:2010C8004FF48170029003E0019800F583700290029900984018017821F02001017004B0F1
:2010E8007047ADF1080D00900099602081F8020102B07047ADF1100D0393029201910090E9
:201108000398800B08D3019A00989DF8081000EB520080F8801007E0019A00989DF80810DA
:2011280000EB520080F8841004B07047ADF1100D0292019100900298800B06D30199009852
:2011480000EB510090F8800005E00199009800EB510090F8840004B07047ADF1100D039328
:201168000292019100900398800B08D3019A0098BDF8081000EB5200A0F8821007E0019AC7
:201188000098BDF8081000EB5200A0F88610019898B90398400B04D30099802081F80A0113
:2011A8000BE00398C00B04D30099402081F80A0103E00099C02081F80A0104B07047ADF199
:2011C800100D0292019100900298800B06D30199009800EB510090F8820005E001990098A7
:2011E80000EB510090F8860004B07047ADF1080D0191009001980099000CC1F83004B84832
:201208000099009BB1F80024019910400843A3F8000402B07047ADF1080D0090009800F5B8
:201228008060018841F01001018002B07047ADF1080D0090009800F58060018821F01001B6
:20124800018002B07047ADF1080D0090009800F58060018841F00401018002B07047ADF1A5
:20126800080D0090009800F58060018821F00401018002B07047ADF1080D009000988089E7
:2012880002B07047ADF1080D8DF8041000909DF8040030B100986030017841F00101017042
:2012A80005E000986030017821F00101017002B07047ADF1080D019100900199009800EBC1
:2012C8009100203002B07047ADF1080D0090009890F8600000F09D0002B07047ADF1100D48
:2012E80002920191009002990F2089008840039000980399D0F8500488430390029A01989F
:2013080003999200000990400843039000990398C1F8500404B07047ADF1080D0090009958
:20132800022081F81C0402B07047ADF1080D00900099032081F81C0402B07047ADF1080DCD
:2013480000900099002081F81C0402B07047ADF1080D0191009001980099C1F81C0402B0A8
:201368007047ADF1080D00900098401C017841F00101017002B07047ADF1080D0090009816
:20138800401C017821F00101017002B07047ADF1100D02920191009001980099029A00093B
:2013A800401E01EB8001C1F8042304B07047ADF1080D0090009890F8780000F00F0002B083
:2013C8007047ADF1080D00900098D0F8C00F00F00F0002B07047ADF1100D02920191009003
:2013E80001980299009A401E0143C2F8C81F04B07047ADF1080D009000990020C1F8C80FDD
:2014080002B07047ADF1080D019100900199009800EB011000F50170016841F008010160EE
:2014280002B07047ADF1080D019100900199009800EB011000F50170016821F008010160EE
:2014480002B07047ADF1080D00900098D0F8000202B07047ADF1080D019100900199009806
:2014680000EB011000F50170016841F00101016002B07047ADF1080D019100900199009895
:2014880000EB011000F50170016821F00101016002B07047ADF1100D039302920191009095
:2014A800019A0098002100EB0210C0F80412019B00990298039A01EB03111043C1F8040287
:2014C80004B07047ADF1080D019100900199009800EB0110D0F8040200F4807002B070477B
:2014E8009CFCFFFFADF1100D029201910090029800F48070029001990098029A00EB011003
:2015080000F5017001689143016004B07047ADF1100D029201910090019A0098029900EB2A
:201528000210C0F8081204B07047ADF1080D019100900199009800EB0110D0F8080202B0CD
:201548007047ADF1100D029201910090019A0098029900EB0210C0F80C1204B07047ADF1B1
:20156800080D019100900199009800EB0110D0F80C0202B07047ADF1080D00900098D0F81C
:201588007900000902B07047ADF1080D019100909DF80400009981F8700002B07047ADF161
:2015A800080D0090009800F6C471086840F48030086002B07047ADF1080D0090009800F6C5
:2015C800C471086820F48030086002B07047ADF1080D8DF8041000909DF80400009981F842
:2015E80075000099052081F87600009890F876008008FAD30099002081F87600009890F80E
:20160800740002B07047ADF1080D8DF805208DF8041000909DF80400009981F875009DF8AA
:201628000500009981F874000099012081F87600009890F876008008FAD30099002081F851
:20164800760002B07047ADF1100D0292019100909DF80400009981F865030098B0F860037C
:2016680020F47040039002990398090940EA013003900099BDF80C00A1F86003009800F2F5
:201688006231087840F00100087004B07047ADF1100D02920191009001980299009B4B226E
:2016A8003238B0FBF2F041EA0011A3F8601304B07047ADF1080D0090009800F26231087896
:2016C80040F00200087002B07047ADF1080D0090009800F26231087840F00200087002B0B3
:2016E8007047ADF1080D019100909DF80400009981F8620302B07047ADF1080D0090009802
:2017080000F26231087840F00D00087002B07047ADF1080D0090009800F26231087820F0AE
:201728000100087002B07047ADF1080D00900098B0F8600300F00F0002B07047ADF1080DBE
:2017480000900098B0F8600300F47040001301900198000102B07047ADF1080D0090009828
:20176800B0F86003400A01D3012000E0002002B07047ADF1080D0090009890F8640302B032
:201788007047ADF1080D01910090009800F263310A7801981043087002B07047ADF1080D95
:2017A800019100900098019A00F2633108789043087002B070477047ADF1080D0191009086
:2017C800BA493C200860BB49B9480A68BA491040814202D1B5493A200860C5490020086084
:2017E800C44901200860C44901200860C34900200870C34900200870C24900200870C249BF
:201808000020087002B0704700B5ADF1140D029201910090BD4901980860BD490298086086
:2018280000980199FFF7C8FFBA480078032802D1B84900200870B748007802286AD0B648C7
:20184800006840690146B5488847B348006880690146B248884702F034F8CA48006838B977
:20186800C849AF4809684FF44072FFF7B4FD06E0C449AB4809684FF40072FFF7ACFDC54893
:20188800006880B1A648FFF78AFEC2480068400904D3A348002109F013FB07E0A0480121A5
:2018A80009F00EFB02E09E48FFF785FE99480078052806D1CB480068D0F8DC1098488847A2
:2018C80008E09448007828B9C6480068D0F8EC10934888478F4900200870C34800684008D4
:2018E8000ED38F480C21FFF7FCFE8D483621FFF748FF8B48FFF700FF7D490120086009E0A2
:201908008748FFF705FF86480021FFF7EAFE784900200860002002F049FFC149086009F01B
:2019280059FA7548019900688968401E51F820000390039840680068406804900498C07986
:2019480000F0C000C02807D16C4991F8240040F0010081F8240006E0684991F8240020F08B
:20196800010081F824006B480078022827D09D480068D0F8C8106A4888479A480068D0F8F5
:20198800D4106748884797480068D0F8C42064482F21904793480068D0F8D02060484FF035
:2019A800FF3190478F480068C06801465C488847B04800683D4A006801461068884705B065
:2019C80000BD08B50090AB480068384AC06801461068884709F01DFA4C490020086081486C
:2019E8000068D0F8C0204E4840F2FF3190477D480068D0F8CC204A484FF0FF319047794886
:201A08000068006901464648884776480068D0F8C8104348884773480068D0F8D4104048D2
:201A2800884701F054FF3C480068C06901463B48884708BDADF1100D0292019100902F492F
:201A480003200870A24901980860A24902980860A1490298086004B070470EB502920191CA
:201A680000909B49019808609B4902980860994902980860002000F0FFFD0EBDADF1080D95
:201A8800019100901C490198086002B0704708B5009054480068C0690346214800210022DE
:201AA800984716490520087008BDC046C43B00200000FF7000E00F4000000A10ADF1080DEE
:201AC8008DF8041000901049012008700B4991F8240020F0010081F82400084A9DF8040049
:201AE80092F82410084382F8240002B07047C046CC3B00208C3B0020903B0020843B0020F0
:201B0800A83B0020BC3B0020BB3B0020503D0020C83B00207424002044000001002800F0A8
:201B280000000540ADF1180D02920191009001208DF8100047E0029803900398406840084A
:201B480005D38849C86C40F00100C86445E08549C86C20F00100C8643FE00298804A0068F4
:201B6800B0FBF2F15143401A03D000208DF8100033E002987A497D4A0068B0FBF1F01060BE
:201B88002BE0C04698240020029802490068086023E0C0464C3D00207349012008707149DA
:201BA80091F8240020F0010081F824006D4A029892F824100078084382F824000DE0002045
:201BC8008DF8100009E00198401EB4D0801EC4D0401ED9D0401EDFD0F1E79DF8100006B08B
:201BE8007047C04650000001D03B0020ADF1100D02920191009001208DF80C0008E0AD48A4
:201C080002990068086007E000208DF80C0003E00198001FF3D0F7E79DF80C0004B0704771
:201C2800C03B002008B50090A348FFF795FD20B1A148FFF74AFD012000E0002008BD08B527
:201C480000909E480078800811D39D48007870B9B449002008709A4901200870B248006829
:201C6800D0F89020944801219047012000E0002008BDC0464800000108B50090904800783D
:201C880020B3384991F83900401C81F83900A54800780A2806D1A4480068D0F89020864810
:201CA800002190479F48007814280FD18449002008709E4800680068006A38B19B480068F0
:201CC80000689B4A006A01461068884708BDC0469C3B0020A43B0020A03B00201FB5009097
:201CE80094480290402001908F480068914A806A04467148002101ABA047019800282DD004
:201D08000298007810F0600F12D0884800680068406848B1854800680168854849680A46AB
:201D280000680299904719E00020FFF7B0FE15E0029840780D280ED20298AC49407851F818
:201D4800200040B10298A949407851F8202005480299904702E00020FFF799FE00901FBDE3
:201D680000879303843B0020BB3B0020982400201FB500906C480068806B02464E48002103
:201D88009047019083E00098002101700098406800080CD30099486820F000404860624834
:201DA8000068009980684968024643489047019840087CD30020FFF791FF78E001984008C8
:201DC80075D30020FFF78AFF71E0002000F054FC6DE0002000F0A2FC69E00098C0694028F6
:201DE80002D94020029002E00098C06902904E48009900688A69806A04462F4802AB0021D6
:201E0800A0470098C06940281FD2009804210170464800680068006970B10098006A58B198
:201E28004248006800990268096A41481269006890470098002101623B48006880690346B6
:201E48001D4800210122984707E0374800688069034619480021002298470099029A886949
:201E6800801888610099029AC869801AC8611EE00198C0081BD32C480068406A03460E483E
:201E88000021042298470098002101700FE000980078002892D0401E97D0401E99D0401E77
:201EA8009BD0401E3FF46FAF401EE1D0FFE700901FBDC0464C3D002000000540A83B0020A8
:201EC800BC3B00200EB50090009991F8240020F0020081F824000099002081F838001348D6
:201EE80000680068806938B1104800680068104A806901461068884700980099C0688860FE
:201F080000200190019808280AD2019A00980021801801740198401C019001980828F4D3EC
:201F28000EBDC046BD3B002050000001503D0020C83B0020D43B002000B5ADF1140D01915A
:201F4800009000980390B948006880690346B84800220021984734E0039890F82400ADF801
:201F6800100038E00020ADF8100034E00198808800F07F00ADF81200BDF8120018B1BDF83C
:201F88001200082803DB0020FFF781FD2CE001988088000A01D3002000E0012002900299AC
:201FA800BDF81200039AC1EBC101401E5218121892F82500ADF810000DE00020FFF767FD8A
:201FC80012E00198007810F01F00C5D0401EC9D0401ECBD0F1E703980221C161039904A852
:201FE8008861002000F048FB05B000BD24C4000000B5ADF1140D01910090009802908B48B0
:202008000068806903468A4801220021984758E001984088400807D3029991F8240020F016
:20202800020081F8240054E00020FFF730FD50E00198808800F07F00ADF81000BDF81000C8
:2020480018B1BDF81000082803DD0020FFF71FFD3FE00198408860BB01988088000A01D38E
:20206800002000E0012003900399BDF81000029AC1EBC101401E52180021121882F8251077
:20208800039858B969480068BDF81010006A034667484FF40052090198471AE063480068B1
:2020A800BDF81010006A034661480022090198470FE00020FFF7EBFC0BE00020FFF7E7FC0C
:2020C80007E00198007810F01F00A1D0801EAFD0F3E705B000BD00B5ADF1140D0191009071
:2020E800009802905148006880690346504801220021984740E001984088400807D3029982
:2021080091F8240040F0020081F824003CE00020FFF7BDFC38E00198808800F07F00ADF883
:202128001000BDF8100018B1BDF81000082803DB0020FFF7ACFC27E001984088A0B901980E
:202148008088000A01D3002000E0012003900399BDF81000029AC1EBC101401E5218012188
:20216800121882F825100FE00020FFF790FC0BE00020FFF78CFC07E00198007810F01F004D
:20218800B9D0801EC7D0F3E705B000BD0EB5019100900098029025480068806903462448AB
:2021A80001220021984701980299408840F0004048600298042101700EBD00B5ADF1240D61
:2021C8000191009000980290AC480068039017480068806903461648002200219847002023
:2021E8008DF81C007AE003980299406888610398406802990078C8617BE00198408800F0EA
:20220800FF008DF81D0003984068059005989DF81D10407C88420DDC0020FFF738FC02988B
:202228000021816102980021C16162E0500000010000054003989DF81D10806850F8210030
:2022480004900299002081F83300029800218186049840680068029940688861049807F04E
:20226800DCF80299C8619DF81D00029981F8360001208DF81C003CE00198019A41889088CF
:2022880001F0FF0100F04EF806900698B0F1FF3F03D10020FFF7FBFB2BE00398069AC068AE
:2022A800029950F82200886103980699C06850F8210002990078C8611BE0039800680068BB
:2022C80040B103980168AA4809680A4600680199904725E00020FFF7DAFB21E00198408823
:2022E8000012401E3FF47FAF401E86D0401EC3D0E3E70298806998B101980299C088C9691C
:20230800884203D201980299C088C8619DF81C0018B9002000F0B0F902E0002000F0FEF94D
:2023280009B000BDADF1180DADF81210ADF810005248006818B151480068C06810B94FF0E4
:20234800FF3047E0BDF8120008B9002042E04B480068C06800680078801E00EBD070401039
:2023680001904648006801990069401EB0FBF1F002904248029A0068019B0069012103FB9C
:202388000211884202D04FF0FF3023E03B480068C068006800900020039001980399884258
:2023A80016D90399009800EB4100BDF810104088814206D10299039ABDF8120002FB010092
:2023C80008E00398401C0390019803998842E8D84FF0FF3006B070470EB501910090A44818
:2023E800006880690346A3480022002198470020FFF74DFB0EBD00B5ADF1140D019100906F
:20240800009802909A48006880690346994800220021984702984068000803D300208DF846
:202428000C0003E00298007A8DF80C0002980121C161029903A88861002000F01DF905B018
:2024480000BD00B5ADF11C0D01910090009802900A4800680390864800688069034685486D
:202468000122002198470398019940684988407C884205DA0020FFF70AFB45E0503D002031
:2024880001980299408888600298806800282FD00198039940888968401E51F8200004905E
:2024A80004984068006840680590029890F83700A0B90598C07900F0C000C02807D1029998
:2024C80091F8240040F0010081F8240006E0029991F8240020F0010081F824000198039968
:2024E80040888968401E51F82010029806F0CBFA03980068C06838B10398029902681C48D7
:202508008968D2680068904707B000BD00B5ADF1140D019100900098029055480068806927
:202528000346544800220021984702984068000803D300208DF80C000FE0019880880828FB
:2025480007DA0199029889884018007C8DF80C0003E00020FFF79BFA08E002980121C16194
:20256800029903A88861002000F086F805B000BDC83B002000B5ADF12C0D019100900098BB
:202588000790904800680890394800688069034638480122002198470798089980688968ED
:2025A800401E51F8200002900298042106F051FF06900020049006980499884244D90298AF
:2025C80004994FF0FF3205AB06F0DBFF03900398002832D0019803998088897888422CD109
:2025E800019803994088C978884226D1039880788DF8240003999DF824200798C9788018AB
:20260800017403980299C3789DF82420079806F035FB8DF825009DF82500C0B10898006851
:202628008068A0B108980199019A0368AF48097992789B680068984709E00498401C0490D7
:20264800069804998842BAD80020FFF720FA0BB000BD0EB501910090054800688069034667
:2026680004480122002198470020FFF710FA0EBD50000001000005401FB500909D490120F7
:2026880008709D48006801900198402801D9402001909A48006802909649019AC869801AEF
:2026A800C8619449019A886980188861A048019B0068029AC06A04469E480021A04701987C
:2026C800402809D19A480068006B0346994800214FF4817298471FE0864904200870944855
:2026E8000068006B034693484FF4857200219847344800680068406970B18148006858B151
:20270800304800687E490268096878485269006890477B490020086000901FBD10B5ADF15A
:20272800280D00907349022008702649754809680078896851F8200005906F4800680190C2
:202748000198402801D9402001906F48008800283AD16E480078002836D1684801680A684B
:2027680007A802604A684260097A0172059806F054FEADF81E000198092801D2019800E038
:20278800092003906A480068039BC06A04466948002107AAA0470598406801680398098805
:2027A800884206D158490020088058490120087003E09DF80C005449088003990198401AB5
:2027C800039003E0503D002001980390039800283DD04E4805990078496851F82000069076
:2027E8004949069809880088401A029046490698098840684018049003980299884201D277
:20280800039802904A480068049A029BC06A044648480021A04702990398401A03903549A1
:202828009DF80820888E801888863749069809880088884208D12F4991F83300401C81F834
:20284800330031490020088003980028C1D12949019AC869801AC8612C48059900780978BA
:20286800884202DB2449002008602348006878B1264805990078496851F8200040680490DE
:20288800214800880390039A1C490498801808600198402809D126480068006B034625483C
:2028A80000214FF48172984722E021480068006B0346204800214FF485729847874800687A
:2028C8000068406970B10E48006858B1834800680B49026809688248526900689047084980
:2028E8000020086003490420087001E0C83B00200AB010BD843B0020A03B00209C3B002004
:20290800A43B0020BA3B0020B83B0020B73B002000B5ADF1140D019100907048006858B9AF
:20292800034800680069014602488847D4E0C046500000010000054069480068029001987F
:20294800C00802D36948FFF7BDFA019840080BD3624800680068C06930B1604800680068B9
:20296800C069014602988847019880080BD35B4800680068006A30B1584800680068006ADF
:20298800014602988847019880090BD3534800680068406A30B1514800680068406A01462F
:2029A800029888470198000914D34E490868401C08604D490868401C08604C48FFF75CF9A9
:2029C80049480068052805D1474900200860052008F04BFA4648FEF7CCFE049045480068A3
:2029E800022819D1049800F01400102814D13B4800680068C06A40B1384800680068C06A16
:202A0800034602981521002298473A49012008603748FEF771FE2BE036480068012816D1A4
:202A2800049800F01400042811D12C4800680068C06A40B1294800680068C06A0346029833
:202A48001421002298472B490220086010E0049880080DD3214800680068C06A40B11F488B
:202A680000680068C06A0346029816210022984721480068D0F8D4101D488847019001985E
:202A8800400806D31948FFF773F9019820F0010001901A480068D0F8FC10184800688847DA
:202AA8000390039838B115480168D1F8F8201348039900689047094800680068806A58B106
:202AC800019808B9039838B10448006800680199806A02460298904705B000BD503D002098
:202AE800C83B0020642400209C240020843B002000000540CC3B002050000001C03B00206C
:202B0800ADF1080D0090002001900198062811D20198C04A009952F83000884204D301981F
:202B2800BD4951F8300006E00198401C019001980628EDD3002002B07047ADF1200D009037
:202B4800C5480068C0F38920C0F315000590C24800686FF39F200490C048006800F4F8506C
:202B6800000A401C0690BD48006800F01F00401C079000990798B1FBF0F0009005984009A8
:202B8800029005980299A0EB4110039004980099484301900298009A0199504301EB5011F5
:202BA80001910398009A0199504301EB9021019106980199B1FBF0F00190019808B070478D
:202BC800C5480068401C00027047C549C3480A68C4491040814207D1C34800686FF31F40AC
:202BE800C00200F5006005E0CF4800686FF31F40401CC0027047BA49B8480A68CB491040E3
:202C0800814208D1C848006800F4E020010C01200A31884001E04FF4806070471CB5009057
:202C2800C349C348009C009B009A04F47F4403F47F4302F0FF0201EB142100EB132001F00D
:202C480070416FF31F5041EA401141EA820141F000700168002001B101201CBD1CB5009089
:202C6800CE49CE48009C009B009A04F47F4403F47F4302F0FF0201EB142100EB132001F0B7
:202C880070416FF31F5041EA401141EA820141F000700168002001B101201CBD1CB5009049
:202CA800CD49CD48009C009B009A04F47F4403F47F4302F0FF0201EB142100EB132001F079
:202CC80070416FF31F5041EA401141EA8201012241F0007002601CBD1CB50090BE49BE48D3
:202CE800009C009B009A04F47F4403F47F4302F0FF0201EB142100EB132001F070416FF351
:202D08001F5041EA401141EA8201002241F0007002601CBD1CB50090CA49CA48009C009B57
:202D2800009A04F47F4403F47F4302F0FF0201EB142100EB132001F070416FF31F5041EAAD
:202D4800401141EA8201012241F000700260002001900198102805D20198401C01900198CE
:202D68001028F9D3009C009B009AB649B54804F47F4403F47F4302F0FF0201EB142100EB07
:202D8800132001F070416FF31F5041EA401141EA8201002241F0007002601CBD1CB50090FC
:202DA800C349C348009C009B009A04F47F4403F47F4302F0FF0201EB142100EB132001F08C
:202DC80070416FF31F5041EA401141EA8201012241F0007002601CBD1CB50090B449B448E6
:202DE800009C009B009A04F47F4403F47F4302F0FF0201EB142100EB132001F070416FF350
:202E08001F5041EA401141EA8201002241F0007002601CBD88C400008CC400001CB5009016
:202E2800BE49BE48009C009B009A04F47F4403F47F4302F0FF0201EB142100EB132001F015
:202E480070416FF31F5041EA401141EA8201012241F0007002601CBD60E10F4064E10F409B
:202E68001CB50090AD49AD48009C009B009A04F47F4403F47F4302F0FF0201EB142100EBBA
:202E8800132001F070416FF31F5041EA401141EA8201002241F0007002601CBD1CB50090FB
:202EA8009F499F48009C009B009A04F47F4403F47F4302F0FF0201EB142100EB132001F0D3
:202EC80070416FF31F5041EA401141EA8201012241F0007002601CBDC4DF0F400000FF70DE
:202EE80000E00F400000051008E00F401CB500908B498B48009C009B009A04F47F4403F4C4
:202F08007F4302F0FF0201EB142100EB132001F070416FF31F5041EA401141EA82010022F6
:202F280041F0007002601CBDC0DF0F4000000A1000E30F40ADF1080D8DF80000BB49BC4833
:202F48000A68BC49104081420ED19DF8000028B17449086840F00060086013E07149086850
:202F680020F0006008600DE09DF8000028B16E49086840F00050086004E06B49086820F0EF
:202F88000050086002B0704708B5009000992C2004F095FF2C2005F028F808BD00EA0F40EF
:202FA80008B52C2005F05AF82C2004F0B1FF08BDADF1080D00905D4900980A681043086056
:202FC80002B07047ADF1080D00905849009A08689043086002B0704700E90F40ADF1080D03
:202FE800009053490098086002B07047ADF1080D8DF800009DF8000010B14D48006801E0C8
:203008004C48006802B07047ADF1080D00904A490098086002B07047474800687047ADF1B8
:20302800080D009045490098086002B07047434800687047ADF1080D009041490098086075
:2030480002B0704700E50F40ADF1080D00903D490098086002B070473C483B490860FEE744
:2030680008B508F0C1FD08BD08B53949086840F00400086008F0B8FD3549086820F0040016
:20308800086008BD334800687047ADF1080D00903049009A08689043086002B07047ADF159
:2030A800080D0090B4490098086002B07047C04600E60F40ADF1080D00902748009908422D
:2030C80009D00098254900F000400860009823496FF3DE1008600098204908600098800A2A
:2030E8000DD31F48006810F4407FFAD01C48006800F44070B0F5807F01D0002000E0012086
:2031080002B07047ADF1080D009016490098086002B07047134800687047C04600E70F407D
:2031280000E80F4060E00F40B0E00F4054E00F4058E00F4050E00F40B4E10F40BCE10F4089
:2031480088E10F408CE10F400CED00E00400FA0510ED00E05CE00F400001008050E10F40AE
:2031680054E10F40D8E10F4030B5ADF12C0D019100902E492E480A682E491040814201D122
:20318800002044E1009800F4F86080090490009800F03800102808D19E48079000200890DB
:2031A80008980890152004904AE0009800F03800302806D147F2305007904FF400100890B2
:2031C8003EE0009800F03800382806D14FF4004007904FF48000089032E0009810F0380F6C
:2031E8002AD104981A2802DC0498092801DA00200DE10498884951F8200007904FF440105A
:203208000890089840F0407008905B48006820F01C0005900498072803DB059840F01000A4
:2032280005900598544908600AE0C04600E00F400000FF700000051000200790002008903D
:20324800009810F4605F40F09980009810F0380F06D0009800F03800102801D00020D6E06E
:203268000098C0F3026003906D48FFF749FC6B4908606F496B48096808400990099840F06C
:20328800004009906A4909980860049809380490654A0398019952F82000019A4018401E81
:2032A800B0FBF2F00690624908980A68104308605E4D039C049B5F49D822980002FB0452F5
:2032C80000EBC3008018406808605A4A06981168401E41EA00211160544D5749039C049B3B
:2032E800D822980002FB045200EBC30009688258514801F40001114301600798FFF71DFCF6
:20330800400801900198FFF7FBFB444908604A480068000E05D34649086840F0804008601B
:2033280004E04549086840F4000008604FF4004002900298002809DDAD480068400805D2CE
:203348000298401E029002980028F5DC029880B1374800680990A749099A08981043014333
:203368000991099840F00040099031490998086047E00020019044E07CE00F402548FFF774
:20338800BFFB264908602C49086820F40000086027480068099098480999084009900998BF
:2033A80040F000400990224909980860019810B9002006900FE001980799B1FBF0F0069026
:2033C800069810B10698401E069006980799401CB1FBF0F001900198FFF792FB0F49086061
:2033E800134800680990069A0899099840EA822001430991099840F0004009900C4909983D
:2034080008600B49086820F47000086001980BB030BDC0460024F400E8C20000C0E00F4094
:2034280040787D0100FC0FE018C6000088BD0000B0E00F4064E10F4060E10F4000B5ADF1EA
:20344800140D0090AC4800680290AE4800680390029840F400600290029820F48000029054
:20346800039840F400600390A34902980860A549039808600298400823D30098400820D2F9
:203488000098029A6FF0010100F001000143114002915C494FF48070086097490298086054
:2034A8004FF40020019004E00198401E0190019818B155480068400AF6D30198002800F079
:2034C8009580029820F4FE6002900098029900F4FE60084302904948039908400390009A2D
:2034E800474803991040084303900098039900F0080041EAC00103917F490298086081492B
:2035080003980860029820F4005002900098029900F4005008430290039820F4005003902A
:203528000098039900F40050084303903549402008600398000806D30398724908606E49F6
:203548000298086005E002986B4908606D490398086002999B4808400290009A9A4802999E
:20356800104008430290039820F0FC5003900098039900F0FC50084303900098C00F0ED3F6
:20358800029840F480000290039820F480000390009A8E48039910400843039003E00398C9
:2035A80020F0804003900098000B16D24FF400400190019848B10E480068400805D20198F9
:2035C800401E019001980028F5D1029820F400600290039820F4006003900298464908609A
:2035E800484903980860102008F0C2FB05B000BD68E10F4001000010FF0300EF8FFFFF7F32
:203608003000008058E00F4050E00F40ADF1180D3948006800903B480068019018E00098A4
:20362800AE4900F4F860800951F82000039024E0B148039021E0B64803901EE047F23050E1
:2036480003901AE04FF40040039016E00020AEE00198000803D3019800F0700002E0009831
:2036680000F030000028DAD01038E1D01038E2D01038E3D04038E5D0E8E74FF0FF30049064
:203688000198000802D30198000B05D30198000853D20098000B50D2B64800680290B648AF
:2036A8000068059005990598039A01F01F0100F4F850491C000A401C41434800B2FBF0F0BC
:2036C800039002990298039B039AC1F389216FF39F20C1F315015043594300EB9120039038
:2036E800009840F48000009014E0B848049024E0B948049021E0C04660E00F40B74804909C
:203708001BE0C04670E00F40B548049015E0BA48049012E0B948006800F47040B0F50050F1
:20372800E3D0B0F58050E3D0B0F58050E6D0B0F54050E9D0B0F50050E9D00098C00D2FD378
:203748000198000823D30198C00F16D30198000802D30198000B05D3019800080DD200986F
:20376800000B0AD20198039900F0FE504900800D401CB1FBF0F0039012E00198039900F07F
:20378800FC50C00D401CB1FBF0F0039008E00098039900F0F060C00D401CB1FBF0F00390E9
:2037A80003980499884201D904980390039806B07047ADF1080D00909C490098086002B014
:2037C8007047C046FEFF3FF80100C00700004040ADF1100D01910090954996480A689649BE
:2037E8001040814209D100990198904A491E20F0FC5040EAC15010602DE00098401E0290C5
:203808000EE0029840F44010029013E0029840F4001002900EE0029840F48000029009E0E8
:20382800019810F07000ECD0103803D02038EDD04038F0D00198800803D3029840F0004052
:2038480002900198C00F03D3029840F08040029002987649086004B07047ADF1080D009005
:203868007648764A0099006820F4F0100143116002B0704771480068400D01D2002003E04B
:203888006E48006800F4F0107047ADF1080D00906B4A00981368012100F00F00814019430E
:2038A800116002B07047ADF1080D0090644B00981968012200F00F0082409143196002B038
:2038C80070476049086820F48040086070475D49086840F4804008607047C046E8C2000044
:2038E800ADF1080D009058490098086002B07047524800687047C0460024F400ADF1080DE9
:2039080000904E4900980A681043086002B0704700093D00ADF1300D0191009044494548ED
:203928000A6845491040814204D1019800210160002049E04548006803900398400F04D2EB
:2039480001980021016000203EE0009800F4F860800902903E49029851F82000069005489A
:203968000068049004480068059004986FF39F2004E0C04660E10F4064E10F4007900498FC
:20398800C0F38920C0F315000890059800F01F000990059800F4F850000A0A90069B069A60
:2039A800089807995843514301EB90210B9109980A990B9A401C491C4143B2FBF1F00B9000
:2039C80001990B98086001200CB0704700B4C404204800687047C04680F0FA02005A620273
:2039E80040787D01ADF1080D00901A49009A08689043086002B07047002D310110E00F4097
:203A0800ADF1080D0191009013490198009A401E00F0FF001043086002B07047ADF1080D16
:203A280000900E490098086002B0704744E10F4000E00F400000FF700000051060E00F4078
:203A48006CE00F4070E00F4038E00F40B0E00F40E8C2000064E00F4048E10F4038E10F40C1
:203A6800ADF1100D019100900020029000990198D1F8D420401E01218140114202D0012039
:203A880002900DE000990198D1F8D020401E01218140114202D00420029001E00020029005
:203AA800029804B070470EB50191009000200290009801990068FDF705FDB0F5807F02D15B
:203AC8000220029019E000990198D1F8D420401E01218140114202D0012002900DE00099A3
:203AE8000198D1F8D020401E01218140114202D00420029001E00020029002980EBD00B5A3
:203B0800ADF1140D009000200190002001900098D0F8D000029000200390039808281ADAB8
:203B2800029840080CD3B3480068006C01460398884728B9039A0199012090400843019057
:203B4800029840080290029828B10398401C039003980828E4DB019805B000BD08B500900A
:203B680000980068FDF76EFC08BDADF1080D01910090009A0199D2F8D4008843C2F8D4001A
:203B880002B07047ADF1100D01910090019820B300200290029808281FD20198400811D339
:203BA800009B029AD3F8D010012090408143C3F8D010009B029AD3F8D410012090400843A9
:203BC800C3F8D400019840080190019828B10298401C029002980828DFD304B070470EB538
:203BE800019100900098406804F071FA0290029830B18E480068009AC06801465068884721
:203C0800009B0198D3F8D0200121401E81401143C3F8D010009B0198D3F8D4100122401E19
:203C280082409143C3F8D41001990098491E00EB8100806800F04060B0F1406F0ED17C48D7
:203C48000199009B02680098491EC918006891F88810D2F8A830002298470EE0744801996D
:203C6800009B02680098491EC918006891F88810D2F8A8304FF4005298475E480068416900
:203C88000198401E8847029830B168480068009A00680146506888470EBD0EB50191009043
:203CA8000098406804F013FA0290029830B15F480068009AC068014650688847009B0198DB
:203CC800D3F8D0200121401E81401143C3F8D010009B0198D3F8D4100122401E82409143F7
:203CE800C3F8D410009801990068491EFDF78AFB009801990068491EFDF7ACFB029830B18C
:203D08004A480068009A00680146506888470EBD0EB50191009001990098491E00EB81001C
:203D2800806800F04060B0F1406F0ED140480199009B02680098491EC918006891F8881044
:203D4800D2F8AC30002298470EE039480199009B02680098491EC918006891F88810D2F873
:203D6800AC304FF4005298472248006881690198401E8847009B0198D3F8D0100122401E09
:203D880082409143C3F8D010009B0198D3F8D4100122401E82409143C3F8D4100EBD0EB5C3
:203DA80001910090009801990068491EFDF762FB009801990068491EFDF734FB009B01982F
:203DC800D3F8D0100122401E82409143C3F8D010009B0198D3F8D4100122401E8240914384
:203DE800C3F8D4100EBDADF1080D0191009002B07047C046540000010EB50191009000983B
:203E080001990068491EFDF7FDFA0EBDADF1080D0191009002B070470EB5019100900098C0
:203E280001990068491EFDF7FDFA0EBD480000015000000110B5ADF1280D0493039202916A
:203E480001900498402803D3039810F0030F01D00020B6E0019B0298D3F8D0200121401E4A
:203E680081401143C3F8D010019B0298D3F8D4100122401E82409143C3F8D41002990198BB
:203E8800039A491E00EB8100826402990198049A491E00EB8100826601980299019A006800
:203EA800491E891891F88810FDF703FA05900298401E06900498089002990198491E00EB03
:203EC8008100806800F00850B0F1085F03D10898800808900DE002990198491E00EB810099
:203EE800806800F00850B0F1085F02D108984008089002990198491E00EB8100806800F050
:203F08004060B0F1406F0BD1B64800680899006800910446059A039B06980121A0470AE0B5
:203F2800B04800680899006800910446039A059B06980121A04702990198491E00EB81004A
:203F48000499806A884226D202990198491E00EB81000499806AB1FBF0F007900198019A2B
:203F680002990068491E891891F88810079AFDF70EFA0299019C0298019A019B491E401EA2
:203F8800091902EB800291F88810D2F8B0201868FCF7C7FE10E002990298019C019A019B9C
:203FA800491E401E091902EB800291F88810D2F890201868FCF7B5FE01980299FFF70FFEAB
:203FC80004980AB010BD10B5ADF1180D0393029201910090029810F0030F01D00020FEE067
:203FE800009B0198D3F8D0200121401E81401143C3F8D010009B0198D3F8D4100122401E36
:2040080082409143C3F8D41001990098029A491E00EB8100826401990098039A491E00EBBB
:204028008100826600980199029A0068491EFDF76EFA00980199039A0068491EFDF781FA09
:2040480001990098491E00EB81000399806A884275D201990098491E00EB81000399806A31
:20406800B1FBF0F0049001980099401E01EB800103988A6AB0FBF2F15143401A02D00498A2
:20408800401C049000980199009A0068491E891891F88810049AFDF77AF90199009C0198F7
:2040A800009A009B491E401E091902EB800291F88810D2F8B0201868FCF733FE0199019AD9
:2040C8000098009B009C491E521E00EB8100D2180199836892F888202068491E43F00403FC
:2040E800FDF7D8F901990098491E00EB8100806880080FD398480199009B02680098491E1E
:20410800C918006891F88810D2F8A8304FF4005298470DE090480199009B02680098491EB4
:20412800C918006891F88810D2F8A83000229847009801990068491EFDF78CF94EE0019928
:204148000198009C009A009B491E401E091902EB800291F88810D2F890201868FCF7E1FDAB
:20416800019A01980099009B009C521E401E521803EB8003019992F888209B682068491ECC
:20418800FDF788F901990098491E00EB81008068800815D370480199009B02680098491EEF
:2041A800C918006891F88810D2F8A8304FF400529847009801990068491EFDF74BF90DE051
:2041C80065480199009B02680098491EC918006891F88810D2F8AC3000229847039806B02A
:2041E80010BDC0465400000100B5ADF1140D029301928DF8101000900298000A02D3002025
:20420800039001E0012003900398062880F0A18003990098401890F88800002840F092800E
:20422800039900989DF81020401880F888200098039A019900EB820081620298000A34D33B
:20424800039A0098B84900EB820081600298C0090CD2029800F00300012807D1039A0098CE
:204268000A2100EB8200C0F8901006E0039A00980C2100EB8200C0F890100298C0090CD2F8
:20428800029800F00300012807D0039A0098142100EB8200C0F8B0101DE0039A00981621D1
:2042A80000EB8200C0F8B01015E0039A0098BC4900EB820081600098039A42F2080100EB37
:2042C8008200C0F890100098039A42F2110100EB8200C0F8B01020480168039AD1F8BC3079
:2042E80000989DF8101000689847AE480068006B024603980F219047AA49039A00980968D6
:2043080000EB82008A6B8168039890470298000A0AD311480168D1F8AC3000989DF81010A3
:204328000068002298470AE00B480168D1F8AC3000989DF8101000684FF4005298470398FD
:20434800401C07E00398801C039003980628FFF45FAF002005B000BD5000000100B5ADF148
:20436800140D029301928DF81010009000200390039806286FD203990098401890F888005E
:20438800002862D1009803990068FDF773F8039900989DF81020401880F888200098039A19
:2043A800019900EB820081620298000A34D3039A0098082100EB820081600298C0090CD273
:2043C800029800F00300012807D1039A00980A2100EB8200C0F8901006E0039A00980C21DA
:2043E80000EB8200C0F890100298C0090CD2029800F00300012807D0039A0098142100EBCD
:204408008200C0F8B0101DE0039A0098162100EB8200C0F8B01015E0039A00980A2100EB0C
:20442800820081600098039A42F2080100EB8200C0F890100098039A42F2110100EB8200F2
:20444800C0F8B0100398401C06E00398401C0390039806288FD3002005B000BD0EB58DF870
:20446800041000904F4801689DF80400096B0A46401E0F2190479DF804100098401890F8AD
:204488008800000A10D3BC4A9DF8041000981368009A4018D3F8AC3090F88810106821F09B
:2044A80080010022984710E0B34A9DF8041000981368009A4018D3F8AC3090F88810106898
:2044C80021F080014FF4005298479DF8040000990022401E401880F888209DF80410009863
:2044E8000022491E00EB81008260009B9DF80400D3F8D0100122401E82409143C3F8D0104C
:20450800009B9DF80400D3F8D4100122401E82409143C3F8D4109DF8041000980022491E30
:2045280000EB810082620EBD0080010C0EB58DF80410009000989DF804100068FCF79AFFAA
:204548009DF8040000990022401E401880F888209DF8041000980022491E00EB8100826011
:20456800009B9DF80400D3F8D0100122401E82409143C3F8D010009B9DF80400D3F8D410BF
:204588000122401E82409143C3F8D4109DF8041000980022491E00EB810082620EBDC04672
:2045A800008001C05400000100B5ADF1140D0292019100900298082816D100200390019935
:2045C8000098491E00EB8100806800F04060B0F1406F04D1039840F04060039036E003981C
:2045E80040F04040039031E00298102817D14FF08850039001990098491E00EB810080680E
:2046080000F04060B0F1406F04D1039840F0984003901BE0039840F04440039016E04FF095
:204628000850039001990098491E00EB8100806800F04060B0F1406F04D1039840F00C40CE
:20464800039003E0039840F04840039001990098491E08308A00115821F07F411150019966
:204668000098491E08308A000399135819431150914A019800991268401E01EB8001926B5E
:2046880001988968401E904705B000BDADF1100D02920191009004B0704700B5ADF1140D91
:2046A8000292019100900298022803D14FF48040039033E00298042803D14FF4004003904B
:2046C8002CE00298082803D14FF44040039025E00298102803D14FF4803003901EE0029809
:2046E800202803D14FF4A030039017E00298402803D14FF4C030039010E00298802803D157
:204708004FF4E030039009E00298B0F5807F03D14FF40030039001E00020039001990098E4
:20472800491E08308A00115801F07F41115001990098491E08308A000399135819431150AE
:204748005D4A019800991268401E01EB8001926B01988968401E904705B000BDADF1100D4A
:2047680002920191009004B07047ADF1080D0090002002B07047C04650000001ADF1080D3A
:204788000191009001990098491E00EB8100806C02B07047ADF1080D01910090019900988E
:2047A800491E00EB8100806E02B070470EB50090424843490068814201D140487BE04048F6
:2047C8003E4908603F493C20086040483E49086040483F49086041483F490860414840491C
:2047E8000860424840490860424841490860434841490860434842490860444842490860D8
:20480800444843490860454843490860454844490860464844490860464845490860474976
:2048280045480A6846491040814202D125493A20086022480068FCF7C4FD012820D14148A3
:204848002149086040482249086040482C4908603F482F4908603F48234908603E48244909
:2048680008603E48304908603D48234908603D481B4908603C48184908603C482C49086009
:20488800002001900198082814D20198384A002111540199374A002042F8210036490020DA
:2048A80008603649002008600198401C019001980828EAD301480EBD54000001D4390020DF
:2048C80000000540D8390020AC3A0020A3460000B03A0020F1410000B83A0020193D0000C7
:2048E800B43A0020E73B0000C83A0020EF3D0000C43A0020153E0000BC3A00206544000002
:20490800C03A0020693A0000CC3A00208D3B0000D03A0020073B0000D43A0020733B00009C
:20492800D83A002073470000DC3A00203D3E0000E03A0020B14500000000FF7000E00F4004
:2049480000000A106547000065430000AF3A0000653B0000013E0000213E0000CF3F0000AC
:2049680035450000A33C0000A73D0000954600005C3A0020DC390020A43A0020A83A00202C
:20498800ADF1100D00908948039018200290894987480A6888491040814203D18748039069
:2049A800182002900020019002980199884213D90199039A009852F83110884205D10199F6
:2049C800039800EBC100406807E00198401C0190029801998842EBD8002004B07047ADF189
:2049E800100D01928DF8081000900198400806D300999DF80800D1F80014084305E000983D
:204A08009DF80810D0F8000488430099C1F800040198800806D300999DF80800D1F82014C7
:204A2800084305E000989DF80810D0F8200488430099C1F8200404B07047ADF1100D8DF821
:204A48000C1000909DF80C10012088408DF80C000098D0F8000401900098D0F8200402906C
:204A680001989DF80C10014201D0012100E0002102989DF80C20024201D0022000E000201B
:204A8800084304B07047ADF1100D01928DF8081000900198400806D300999DF80800D1F824
:204AA8000814084305E000989DF80810D0F8080488430099C1F808040198800806D30099CD
:204AC8009DF80800D1F80414084305E000989DF80810D0F8040488430099C1F8040401984D
:204AE800C00806D300999DF80800D1F80C14084305E000989DF80810D0F80C04884300993D
:204B0800C1F80C040198400C05D30098D0F8380540F0010004E00098D0F8380520F00100A7
:204B28000099C1F8380504B07047ADF1180D8DF8141000909DF81410012088408DF814003C
:204B48000098D0F8080401900098D0F8040402900098D0F80C0403900098D0F83805049022
:204B680001989DF81410014201D0012000E0002002999DF814200A4201D0022200E00022FF
:204B880003999DF8143002430B4201D0042100E000210498114300F00100084302D04FF4CE
:204BA800803000E0002006B07047C0463CC000000000FF7000E00F4000000A10FCC000005A
:204BC8001FB5029301928DF80C10009000208DF80D009DF80D00082829DA9DF80D109DF8D2
:204BE8000C2001208840104218D000989DF80D20D0F8C41F009B5200032090408143C3F8FA
:204C0800C41F0098019C00F6C4719DF80D000A684300C4F341109840104308609DF80D00B5
:204C2800401C8DF80D009DF80D000828D5DB0198400806D300999DF80C00D1F800150843DF
:204C480005E000989DF80C10D0F8000588430099C1F800050198800806D300999DF80C00FB
:204C6800D1F80415084305E000989DF80C10D0F8040588430099C1F804050198C00806D3A0
:204C880000999DF80C00D1F80815084305E000989DF80C10D0F8080588430099C1F8080574
:204CA8000198000906D300999DF80C00D1F81815084305E000989DF80C10D0F81805884318
:204CC8000099C1F818050198400906D300999DF80C00D1F83C15084305E000989DF80C10D5
:204CE800D0F83C0588430099C1F83C050298400806D300999DF80C00D1F80C15084305E036
:204D080000989DF80C10D0F80C0588430099C1F80C050298800806D300999DF80C00D1F83D
:204D28001015084305E000989DF80C10D0F8100588430099C1F810050298C00806D30099EA
:204D48009DF80C00D1F81415084305E000989DF80C10D0F8140588430099C1F8140502988E
:204D6800000906D300999DF80C00D1F81C15084305E000989DF80C10D0F81C05884300994F
:204D8800C1F81C050298800A06D300999DF80C00D1F84415084305E000989DF80C10D0F897
:204DA800440588430099C1F84405029810F4407F06D000999DF80C00D1F84015084305E081
:204DC80000989DF80C10D0F8400588430099C1F84005029830B900999DF80C00D1F8281550
:204DE800084305E000989DF80C10D0F8280588430099C1F8280500901FBDADF1180D02932F
:204E080001928DF8141000909DF81410012088408DF8140000989DF81410D0F80005014222
:204E280001D0012000E00020049000989DF81410D0F80405014201D0022000E000200499EF
:204E48000843049000989DF81410D0F80805014201D0042000E000200499084304900098F9
:204E68009DF81410D0F81805014201D0082000E0002004990843049000989DF81410D0F8BB
:204E88003C05014201D0102000E0002004990843049000989DF814200499D0F8C40F52001E
:204EA800D04000F0030041EA4011049101990498086000989DF81410D0F80C05014201D0FA
:204EC800012000E00020039000989DF81410D0F81005014201D0022000E0002003990843CB
:204EE800039000989DF81410D0F81405014201D0042000E0002003990843039000989DF806
:204F08001410D0F81C05014201D0082000E0002003990843039000989DF81410D0F8400568
:204F280001420ED000989DF81410D0F84405014202D04FF4007001E04FF480700399084323
:204F4800039003980299086006B07047ADF1080D019100900098019900F58260026811430F
:204F6800016002B07047ADF1080D019100900098019A00F5826001689143016002B0704779
:204F8800ADF1080D8DF8041000909DF8040018B10098D0F8180402E00098D0F8140402B043
:204FA8007047ADF1080D0191009001980099C1F81C0402B070470EB5019100900098FFF776
:204FC800DFFC02900199029802F079FF029803F00CF80EBD0EB500900098FFF7D1FC019023
:204FE800019803F03BF8019802F092FF0EBDADF1080D8DF8041000909DF80400009951F8AC
:20500800200002B07047ADF1080D8DF805208DF8041000909DF80410009A9DF8050042F862
:20502800210002B070470EB58DF80410009000989DF804100022FFF7D2FC9DF8041000988A
:2050480000230122FFF7BCFD0EBD0EB58DF80410009000989DF804100222FFF7C0FC9DF8F0
:205068000410009808236622FFF7AAFD0EBD0EB58DF80410009000989DF804100022FFF71C
:20508800AEFC9DF80410009800230122FFF798FD0EBD0EB58DF80410009000989DF8041054
:2050A8000222FFF79CFC9DF80410009808230122FFF786FD0EBD0EB58DF8041000900098DF
:2050C8009DF804100222FFF78AFC9DF80410009808230122FFF774FD0EBD0EB58DF8041062
:2050E800009000989DF804100222FFF778FC9DF80410009808236622FFF762FD0EBD0EB572
:205108008DF80410009000989DF804100222FFF766FC9DF80410009808236622FFF750FD6A
:205128000EBD0EB58DF80410009000989DF804100222FFF754FC9DF8041000980823662211
:20514800FFF73EFD0EBD0EB58DF80410009000989DF804100022FFF742FC9DF80410009887
:2051680008230122FFF72CFD0EBD0EB58DF80410009000989DF8041001220823FFF720FD61
:205188009DF8041000980122FFF729FC0EBD0EB58DF80410009000989DF804100122092341
:2051A800FFF70EFD9DF8041000980122FFF717FC0EBD0EB58DF80410009000989DF8041081
:2051C8000222FFF70CFC9DF80410009808230122FFF7F6FC0EBD0EB58DF8041000900098DF
:2051E8009DF804100222FFF7FAFB9DF80410009809230122FFF7E4FC0EBD0EB58DF8041062
:20520800009000989DF804100222FFF7E8FB9DF80410009808230122FFF7D2FC0EBD0EB5D7
:205228008DF80410009000989DF804100222FFF7D6FB9DF80410009808236622FFF7C0FC6B
:205248000EBD0EB58DF80410009000989DF804100222FFF7C4FB9DF80410009808230122E6
:20526800FFF7AEFC0EBD0EB58DF80410009000989DF804100222FFF7B2FB9DF80410009886
:2052880008230122FFF79CFC0EBD0EB58DF80410009000989DF804100222FFF7A0FB9DF8E8
:2052A800041000980A230122FFF78AFC0EBD0EB58DF80410009000989DF804100222FFF75C
:2052C8008EFB9DF80410009808230122FFF778FC0EBD0EB58DF80410009000989DF804104C
:2052E8000222FFF77CFB9DF80410009808230122FFF766FC0EBD0EB58DF8041000900098DF
:205308009DF804100222FFF76AFB9DF80410009808230122FFF754FC0EBD0EB58DF8041061
:20532800009000989DF804100222FFF758FB9DF80410009808230122FFF742FC0EBD0EB5D6
:205348008DF80410009000989DF804100022FFF746FB9DF80410009800230122FFF730FCD9
:205368000EBD0EB58DF80410009000989DF804100222FFF734FB9DF8041000980823012255
:20538800FFF71EFC0EBD0EB58DF80410009000989DF804100022FFF722FB9DF80410009887
:2053A8004FF402730122FFF70BFC0EBD0EB58DF80410009000989DF804100022FFF70FFBF3
:2053C8009DF8041000984FF484730122FFF7F8FB0EBDADF1080D0090009800F5A96002B0E8
:2053E80070473EB500900098C0F3074001903248019A016801209040084207D0019A2F49A5
:20540800042000EBC2000858019004E001982B4951F8300001900098C0F30720029001982A
:20542800009A029B029C019DD0F82C1502F00F020F209A40A04081430A43C5F82C253EBDE2
:20544800ADF1080D8DF804100090009800F234510A689DF804001043086002B07047ADF18C
:20546800080D8DF80410009000989DF8042000F2345108689043086002B07047ADF1080D57
:205488008DF80410009000989DF8041000F5A66002681143016002B07047ADF1080D8DF8DF
:2054A8000410009000989DF8042000F5A66001689143016002B070476CE00F4058C2000038
:2054C8002DE9F04F04680E46ADF5FE7D1F461546ADF1580D88909E9900688B9106F017FCF3
:2054E8008A974FF0000B8995014690962046091981428C9140F204855B468693594693910E
:205508008791AE4A919292924FF0FF368396869981910F468DF8107282970778252F08BF5F
:205528000A1C15D0002F00F0EB84DDF82082D8F800108A9A0078491CC8F8001089999047A9
:20554800D8F8000007780BF1010B252FEAD1819A88990868909E0B46401C186011E042F0BB
:2055680010020AE042F0010207E042F0020204E042F0080201E042F0040281920868401CBD
:205588000860086800782038F5D0C01EF0D00838EBD0801EE6D0C01EE1D01C4620680178B7
:2055A8002A2917D0302901AA0ADB3A2908DA0146401C2060097802F8011B01783029F4DA21
:2055C800879810709DF80470B7B101A806F050FA829011E0F61C26F00306361D56F8040CE5
:2055E800002803D542F00102819240428290314620689091401C2060206801782E2929D179
:20560800401C206001782A2919D0302901AA0ADB3A2908DA0146401C2060097802F8011B09
:2056280001783029F4DA879810709DF80400002808BF87980DD001A806F01AFA09E021687A
:20564800F61C26F00306361D491C909656F8040C2160839020460168819D08784C383BD045
:205668001C3818D0801E32D0801E04D0083829D0801F22D039E0491C2246087811606C289F
:205688001CBF45F0400045F040050FD145F4807045F4807524E022461168491C08786828A7
:2056A800116005D045F0200045F0200581901CE045F4007045F4007512E045F4805045F455
:2056C80080550DE045F4005045F4005508E045F4006045F4006503E045F0800045F0800578
:2056E800819020460168491C01602246097810686E298DF8101200F10100106000F0C383C5
:20570800732900F01F830DF20120829C859020214FF4FF7201A806F023F8859887990DEB1C
:20572800040707F1040A01700D468D950DF5007C8E950F468F959DF81032CDF814C2184680
:20574800642814DC642821D0253800F0E8821C3800F04D81001F022840F24981133815D00A
:20576800093800F04481801E00F02882F3E16538022840F23C81001F08D0801F012805D9CC
:20578800801F18BFB0F1030040F0E5818399002904D4819820F01000819002E001208390D4
:2057A8000146B3F1580007D0173809D0401E03D0083818BF0A2204D1102202E0FFFF0F0035
:2057C8000822702B00F0B280819843F66075B946B8462840203800F08B8020387AD0C03861
:2057E80061D0B0F5807047D0B0F5C06036D0B0F5006025D0B0F5805013D0B3F1580000F0BB
:2058080095800C3800F08980401F00F08680801F00F08C80801F00F08980C01E00F08680D2
:205828008EE0B3F1580000F081800C3875D0401F73D0801F7AD0801F78D0C01E76D07FE087
:20584800B3F1580072D00C3867D0401F65D0801F6CD0801F6AD0C01E68D071E0B3F15800DC
:205868002FD00C382DD0401F2BD0801F29D0801F27D0C01E25D063E0B3F158000AD00C3828
:205888004BD0401F49D0801F04D0801F18BFB0F1030055D1F61C26F00306361D16F8048C98
:2058A8004FF000094BE0B3F158000AD00C3808D0401F06D0801F04D0801F18BFB0F10300B9
:2058C8003ED1F61D26F007060836A6F1080090E8000334E0B3F1580028D00C381DD0401F8B
:2058E8001BD0801F22D0801F20D0C01E28D11DE0B3F158000AD00C380FD0401F0DD0801FED
:2059080004D0801F18BFB0F1030019D1F61C26F00306361D36F8044C0EE0F61C26F0030686
:20592800361D56F8044C4FEAE47907E0F61C26F00306361D56F8044C4FF00009A04690967B
:20594800CD1744464846214350EA050608BF002903D181990D09C0F04781642B18BF692B34
:2059680008D1002806DA012664424FF000018E9661EB000085A900910146204605F01EFC46
:205988008399401C81422BDA9DF81032782B03D0582B18BF702B11D1819908090FD3702BF3
:2059A80008BF7823859803708598401E85903021017085989DF81032401E859081996F2B80
:2059C80040F012810809C0F00F8185984278302A00F00A81302101708598401E8590B8E015
:2059E800859930220A708599491E8591C8E7F61D184626F00706A0F1610108369096083E3A
:205A080096E800031A2938BF20383C46984208BF012447F6F0724D4647F6F07000EA194011
:205A2800824212D1919E29464FF0000E0A0041464EEA020241EA0E0116404FF0FF3202EA13
:205A4800010208BF002A40F09E8047F6F072290082425BD1929E0022404694464FF0FF351F
:205A68000A434CEA00002840164008BF00284DD1B2A20CCA4946404605F0AAFD21D3002CD5
:205A880014BF4621662185988DF80012002CA0F10100859014BF4E216E2101708599002C2A
:205AA800A0F10100A1F10101859114BF49216921017085992B26491E8591032700F8016CEF
:205AC8008AE7002C14BF4621662185988DF80012002CA0F10100859014BF4E216E21017097
:205AE8008599002CA0F10100A1F10101859114BF4921692101708599491E85912D2700F8F9
:205B0800017C8199DDF814C2042768E04FF00046384600250E4000EA05000EBF002889F0F5
:205B280000490127B3F1410026D0001F1CD0401E13D0401E07D01A381ED0001F14D0401EEF
:205B48000BD0401E07D149EC108B81A885A904F069FB9DF81032819946E049EC108B81A89D
:205B680085A905F007FF05E049EC108B81A885A904F0E0FD819935E049EC108B81A885A9C1
:205B880003F052FDE5E7002C14BF4E206E2061468DF80002491E002C859114BF4120612068
:205BA80008708598002CA1F10101A0F10100859014BF4E206E20022708700DE7F61C26F055
:205BC80003063C46361D16F8045C909605B901248F9481998DF8005221F002018191604688
:205BE800401E85909DF810328598752B00F1010229D06F2B27D0782B25D0582B23D0702B6F
:205C080021D01FB17F1E1ED101238E9301F002038E9F8D931FB98B0808D32B2100E02D21E7
:205C2800017085988199521E401E85908D9E374309D1C80807D385982021017085988199A2
:205C4800521E401E859048080DD2859C8298ADEB040101F20121884205DB01A8241A544414
:205C6800A4F5FE7400E001AC1146939A20464FF4FF7306F01AF88F9F859027B18799017031
:205C88008598401C8590824509D3AAEB00022021401E521C05F064FD87988AF80000819817
:205CA80040092ED301A8A04232D001A8221A302101A805F055FD8D9F8E9E374305D181981E
:205CC800C00838BF0DF1050007D3207830218DF804000DF1060004F8011B9DF81022782A29
:205CE80003D0582A18BF702A02D18199090903D2612A18BF412A0BD16178017030276770E1
:205D080006E001A8241A2021224601A805F028FD01A805F0FCFF8F9F0246D21904E07BA049
:205D28000188012201AF39808B9B899901A89847B0F1FF3F00F09F808344D8E00000000009
:205D480000000000839CE80948D2DDF82492F61C26F00306361D56F8048C9096B8F1000F46
:205D68003AD0829F002C06D4404605F0D0FFA04288BF201C02D8404605F0C9FF0446BC42D6
:205D8800A8BF071CBB44A7420ADD680808D23E1B002E05DD8A9A202049469047761EF9D1C7
:205DA800002C07DD26468A9A18F8010B49469047761EF8D18198A74240F399804008C0F016
:205DC80096803F1B002F40F392808A9A2020494690477F1EF9D18AE0494650E0DDF8248202
:205DE800F61C26F00306361D56F8047C9096002F44D0002C06D4384605F093FFA04288BFAC
:205E0800839C03D8384605F08CFF0446829EB442A8BF261CB344A6420BDD8198400808D277
:205E2800351B002D05DD8A9A2020414690476D1EF9D1002C0BDD2546BF1E37F8021FC8B2BE
:205E4800884214D18A9A414690476D1EF5D18198A6424CDD40084AD3361B002E47DD374609
:205E68008A9A2020414690477F1EF9D13FE005F07BFF582101604FF0FF3B41E041468A9A44
:205E88009398904733E043F660702840203825D0E0380ED0B0F5807017D0B0F5C06008D018
:205EA800F61C26F00306361D56F8040CC0F800B01CE0F61C26F00306361D56F8042C5946F3
:205EC8005846C91782E8030010E0F61C26F00306361D56F8040C80F800B007E0F61C26F0C6
:205EE8000306361D56F8040CA0F800B09096BBF1FF3F05D088988C99006881423FF604AB5F
:205F08007FB0584616B0BDE8F08FC04625000000ADF1080D0090002001907D497B480A68A8
:205F28007C49104081420DD17B490098814202D1372001901AE079490098814216D1382073
:205F4800019013E0724971480A68A749104081420CD171490098814202D13620019005E03B
:205F68006E490098814201D137200190019802B07047ADF1180D029201910090002003901F
:205F88000399029888421BD903980099421C0392405C049002980399884208D90399009A97
:205FA800481C03900498895C40EA012004900198011D019104990160039902988842E3D880
:205FC80006B07047ADF1180D029201910090002003900399029888421AD9019850F8041B2D
:205FE800019004910398009A411C03919DF81010815402980399884206D90398009A411C52
:2060080003919DF811108154029803998842E4D806B07047ADF1080D0090009801210160D2
:206028000098006A000CFBD20098B02141620098002141630098002181630120019001982C
:2060480020280CD80098006A000CFBD20198009908620198401C019001982028F2D90098CB
:206068000C21416201200190019820280CD80098006A000CFBD20198009908620198401C65
:20608800019001982028F2D90098406802B07047ADF1080D00900099086820F0010008604D
:2060A80002B07047ADF1080D00900099086840F00100086002B07047ADF1100D0191009044
:2060C8000098C06802900298019900F4E040000B401C48600298019900F47060000A401CB1
:2060E80008600298019900F0C0008009401C886000990298019A896900F03F0001F00F018F
:2061080040EA8110401CD06004B070470000FF7000E00F400000051000000440001004407A
:20612800ADF1200D02920191009002980199B1FBF0F00390019A03990298B2FBF1F1884259
:2061480002D20398401C03900398B0F5984F47D813200490049804283BD304980399B1FB12
:20616800F0F005900498059A0399504381422AD104988E4940000838085A0690009800688F
:20618800ADF81C000099BDF81C0040F04100086005980699401E00F03F00084306900099B0
:2061A8000698C86005980099401EC0F3831088610099BDF81C000860019A0599049848431C
:2061C800B2FBF0F00DE00498401E049004980428C3D20398401C03900398B0F5984FB7D911
:2061E800002008B07047C04600000A10ADF1100D019100900098006803900099039840F014
:206208004100086001984068401E000300F4E0400290019802990068401E000200F47060C5
:2062280008430290019802998068401E800100F0C0000843029001980299C068401E00F047
:206248003F000843029000990298C86001980099C068401EC0F383108861039820F04000ED
:2062680003900398400803D3039820F00100039003980099086004B070470EB5019100909F
:206288000098FFF745FE02900199029801F017FE029801F0AAFE0EBD0EB500900098FFF77A
:2062A80037FE0190019801F0D9FE019801F030FE0EBDADF1080D01910090009901980A68B3
:2062C8001043086002B07047ADF1080D019100900099019A08689043086002B07047ADF1D7
:2062E800100D8DF80810009014E000980069019017E00098D0F840016FF31F400190009943
:206308000198D1F8441140EA0140019009E00020019006E09DF808000028E6D0401EE8D0B1
:20632800F5E7019804B07047ADF1080D019100900198B0F5004F02D1009840680FE0009879
:20634800006A000CFBD20098082141620198009900F03F0008620098006A000CFBD202B036
:206368007047ADF1100D8DF8081000900098006801909DF8080020B1019820F0200001901D
:2063880003E0019840F02000019001980099086004B07047ADF1080D0090009800688009C7
:2063A80001D3002000E0012002B070471CC50000ADF1100D8DF8081000902EE00098406860
:2063C800019000986FF01F01416031E00098D0F80001019000990198D1F8041140EA0140EE
:2063E800019025E00098D0F82001019000990198D1F8241140EA0140019019E00098D0F868
:206408006001019000990198D1F8641140EA014001900DE0002001900AE09DF808000028C9
:20642800CCD0401ED2D0401EDCD0401EE6D0F1E7019804B07047ADF1100D0292019100904D
:206448000098806803900398019900F4FE40000A08600398029900F0FF0008600398000C14
:2064680001D3012000E0002004B0704700B5ADF11C0D8DF8183002920191009000208DF810
:2064880019000098006A000CFBD20298006840F2FF71814203D302988068C00803D3012082
:2064A8008DF81A0002E000208DF81A009320ADF80C000020ADF812000020ADF81400002060
:2064C800ADF816000020ADF80E000020ADF810003EE0BDF8160040F48070ADF816004FF446
:2064E8000050ADF8140001208DF819003DE0BDF8160040F48070ADF816000020ADF814002C
:2065080033E00020ADF814002FE04FF40050ADF814004FF48050ADF816004FF6FF70ADF805
:206528000E0041F6FF70ADF81000BDF80C0040F04000ADF80C0018E04FF40050ADF81400C4
:206548004FF49050ADF8160001208DF819000CE09DF818000028BCD0401EC8D0401ED0D055
:20656800401ED2D0401EE7D0C7E002988068000919D39DF81A0060B1029840686FF31F401D
:20658800ADF80E0002984068C0F30C40ADF8100009E00020ADF80E000298406880006FF36A
:2065A8005F30ADF810000298806800F02800282805D1BDF8100040F40040ADF81000029847
:2065C800806800F01800182805D1BDF8100040F48040ADF810000298806810F0380F0BD09B
:2065E800BDF8160040F48050ADF81600BDF80C0040F04000ADF80C00BDF80C0040F0200016
:20660800ADF80C009DF81A00C0B10298BDF8121000686FF31F400843ADF812000298BDF8B6
:2066280014100068C0F30C400843ADF81400BDF8140040F44040ADF814000FE00298BDF84F
:206648001410006880006FF35F300843ADF81400BDF8140040F40040ADF814000298BDF8EC
:206668001610C06800F00F000843ADF8160002988068800A05D2BDF8160040F08000ADF8BC
:20668800160002988068400805D3BDF8160040F40060ADF8160002988068800805D3BDF889
:2066A800160040F48060ADF816009DF8190038B10298029A00990069D2683C31FFF759FC2C
:2066C800BDF80C0000994862BDF80E0000998862BDF810000099C862BDF812000099086315
:2066E800BDF8140000994863BDF81600009988630198009900F03F00086207B000BD00B542
:20670800ADF11C0D8DF818300292019100907320ADF80C009DF8180028B1BDF80C0040F06C
:206728000800ADF80C00BDF80C000099C1F884000198009900F03F00C1F880000098D0F807
:206748008000000CFAD20098D0F88800ADF80E000098D0F88C00ADF810000098D0F89000AD
:20676800ADF812000098D0F89400ADF814000098D0F89800ADF81600029800218160BDF8A9
:206788001600400A03D2BDF81400800B07D2BDF81600400A08D3BDF81400800B04D20299DA
:2067A800886840F040008860BDF81400C00B0FD3BDF81420BDF8120002996FF35F3240EAAB
:2067C800024008600299886840F00400886006E0BDF8140002996FF35F3080100860BDF878
:2067E8001600C00B04D30299886840F480708860BDF81600400B45D3BDF81400C00B19D394
:20680800BDF81020BDF80E0002996FF35F3240EA02404860029840686FF06041814203D14D
:2068280002988068C0091BD20299886840F00800886015E0BDF8100002996FF35F30801097
:2068480048600298406840F2FF71814203D102988068C00904D20299886840F00800886041
:20686800BDF81000000C04D30299886840F028008860BDF81000C00B04D30299886840F07B
:2068880018008860BDF81600000B04D30299886840F001008860BDF81600C00A04D3029998
:2068A800886840F002008860BDF81600000C26D3BDF81600029900F00F00C86002988068E7
:2068C800C00907D20298029A00990069D2689C31FFF778FB00990420C1F88400019800993A
:2068E80000F03F00C1F880000098D0F88000000CFAD20299886840F08000886002E00298D1
:206908000021C16007B000BDADF1080D019100900098006A000CFBD20098A0214162009875
