:2000000008450020BFFD0000C5FD0000C7FD0000CBFD0000C9FD0000CBFD000000000000DB
:20002000000000000000000000000000CBFD0000CBFD000000000000CBFD000091F90000DE
:20004000CBFD0000CBFD0000CBFD0000CBFD0000CBFD0000CBFD0000CBFD0000CBFD000060
:20006000CBFD0000CBFD0000CBFD0000CBFD0000CBFD0000CBFD0000CBFD0000CBFD000040
:20008000CBFD0000CBFD0000CBFD0000CBFD0000CBFD0000CBFD0000CBFD0000CBFD000020
:2000A000CBFD0000CBFD0000CBFD0000CBFD0000CBFD0000CBFD0000CBFD0000CBFD000000
:2000C000CBFD000099F90000CBFD0000CBFD0000CBFD0000CBFD0000D5F90000CBFD000010
:2000E000CBFD0000CBFD0000CDF90000CBFD0000CBFD0000CBFD0000CBFD0000CBFD0000C2
:20010000CBFD0000CBFD0000CBFD0000CBFD0000CBFD0000CBFD0000CBFD0000CBFD00009F
:20012000B3F90000CBFD0000CBFD0000CBFD0000CBFD0000CBFD0000CBFD0000CBFD00009B
:20014000CBFD0000CBFD0000CBFD0000CBFD00000000000000000000CBFD0000CBFD0000EF
:20016000CBFD0000CBFD000000000000CBFD0000CBFD0000CBFD0000CBFD0000CBFD000007
:20018000CBFD0000CBFD0000CBFD0000CBFD0000CBFD0000CBFD0000CBFD0000CBFD00001F
:2001A000CBFD0000CBFD0000CBFD0000CBFD0000CBFD0000CBFD0000CBFD0000CBFD0000FF
:2001C000CBFD0000CBFD0000CBFD0000CBFD0000CBFD0000CBFD0000CBFD0000CBFD0000DF
:2001E000CBFD0000CBFD0000CBFD0000CBFD0000CBFD0000CBFD0000CBFD0000CBFD0000BF
:08020000CBFD0000000000002E
:20020800ADF1180D0292019100900098406804900098029A0099406880184860019890B1FA
:20022800002003900298039988420CD904980399019A039B085C98540398401C0390029839
:2002480003998842F2D8012006B0704700B5ADF11C0D029201910090029808B901204CE0FE
:200268000198D8B900988C490068814216D0029810280DD9009803A91022FFF7E7FF08B903
:2002880000203AE002981038029002981028F1D80098029A03A9FFF7D9FF2EE0009902981E
:2002A800896888420DD90098C168002011B10099CA6800E099A2009B0021DA601DD0012008
:2002C8001BE000980199029A006803460098984768B90098C168002011B10099CA6800E0B6
:2002E8009AA2009B0021DA6007D0012005E00099029A8868801A8860012007B000BD0EB5E8
:20030800019100900098806868B90098C168002011B10099CA6800E080A2009B0021DA60AC
:200328001CD001201AE0009800680199034600980122984768B90098C168002011B10099D4
:20034800CA6800E081A2009B0021DA6006D0012004E000998868401E886001200EBD10B50F
:20036800ADF1200D059204914B4900910499069106990191059902910021039169461EC978
:2003880080E81E0008B010BD00B5ADF11C0D029201910090009804A9FFF7B1FF48B9009894
:2003A800806820B9029810B1029801210170002066E09DF81000000A03D29DF810000390CA
:2003C8005AE0072005909DF8100000F07F000390009804A9FFF793FF08B9002050E00598FD
:2003E800202823D305983F2801D2FF2000E001208DF818009DF8100010F07F0F1FD0039866
:20040800C00F05D09DF818009DF81010884216D00098C168002011B10099CA6800E0A1A28D
:20042800009B0021DA602BD0012029E09DF81000059A039900F07F009040084303900598FF
:20044800C01D05909DF81000000AC1D20598232812D19DF8100010F0700F0DD00098C16853
:20046800002011B10099CA6800E08EA2009B0021DA6005D0012003E003980199086001202A
:2004880007B000BD0EB501910090009801990022FFF77AFF0EBDC0460902000000B5ADF109
:2004A8001C0D0391029000200490002100208DE80300049840280DD30298C168002011B1EF
:2004C8000299CA6800E077A2029B0021DA6023D0012021E0029805A9FFF711FF08B9002012
:2004E8001AE09DF81400049A00F07F00C1170FF007FC9DE80C00104319438DE80300049816
:20050800C01D04909DF81400000AD2D29DE80300039A82E80300012007B000BD656E642D80
:200528006F662D73747265616D000EB50090009801A90122FFF78AFE08B9002004E09DF895
:200548000400000AF3D201200EBDC046696F206572726F7200C00EB50090009801A9FFF761
:2005680091FF08B9002016E00198019988420DD00098C168002011B10099CA6800E08BA2B7
:20058800009B0021DA6006D0012004E00098019A0021FFF75BFE0EBD00B5ADF1140D03930A
:2005A800029201910090039800210170019800210170029800210160039A009804A9FFF731
:2005C800E3FE08B9002009E004980299C00808600498019900F007000870012005B000BDC9
:2005E8000EB58DF80410009021E00098FFF79DFF28E0009800210822FFF728FE22E000983B
:20060800FFF7A9FF1EE0009800210422FFF71EFE18E00098C168002011B10099CA6800E0FF
:2006280091A2009B0021DA600CD001200AE09DF804000028D9D0401EDBD0401EDFD0C01E44
:20064800E1D0E6E70EBD00B5ADF1140D029301928DF81010009002980068039052E0029817
:200668000021016002990868401C086002990398096888420DD20098C168002011B1009995
:20068800CA6800E007A2009B0021DA6045D0012043E0009801990122FFF7D8FD50B90020FF
:2006A8003BE0C046766172696E74206F766572666C6F7700019911F8010B0191000AD1D2FB
:2006C80001202AE0029808210160019900980822FFF7BCFD21E00298042101600199009865
:2006E8000422FFF7B3FD18E00098C168002011B10099CA6800E05CA2009B0021DA600CD010
:2007080001200AE09DF810000028A8D0401ED9D0401EE9D0C01EDED0E6E705B000BD1FB5C4
:2007280001910090009802A9FFF7ACFE08B9002020E0009901981EC980E81E0001990298F8
:20074800896888420DD90098C168002011B10099CA6800E075A2009B0021DA600AD001209A
:2007680008E00298019988600099029A8868801A8860012000901FBD0EB5019100900198BB
:20078800806840B10198826801980021FFF75EFD08B9002008E00198009940684860019806
:2007A8000099C068C86001200EBDC04673697A6520746F6F206C6172676500C0ADF1080D8B
:2007C80000918DF804002AE09DF804200020002102B90121002945D0012043E09DF80420DB
:2007E80000200021052A00D1012100293AD0012038E09DF8042000200021012A00D101210A
:2008080081B301202EE09DF8042000200021022A00D1012131B3012024E0002022E0009891
:20082800807D00F00F000B28F7D802A151F820008746C046D1070000D1070000D10700004B
:20084800D1070000E5070000FB0700000F0800000F0800000F0800000F0800002308000043
:200868000F08000002B07047696E76616C696420776972655F74797065000EB5019100902C
:2008880030E00098019900F06AFE4DE00098019900F07AFE48E00098019900F06AFF43E019
:2008A8000098019900F08AFF3EE00098019901F002F839E00098019901F076F834E00098F4
:2008C800019901F0F4F82FE00098C168002011B10099CA6800E0A4A2009B0021DA6023D00D
:2008E800012021E00198807D00F00F000B28EBD801A151F8200087468B080000950800003B
:2009080095080000950800009F0800009F080000A9080000B3080000BD080000BD08000051
:20092800D1080000C70800000EBDC046706172656E742073747265616D20746F6F20736893
:200948006F72740000B5ADF1240D01928DF80810009019E19DF808000199FFF72FFF70B978
:200968000098C168002011B10099CA6800E099A2009B0021DA6000F01681012013E10098BC
:200988000199FFF77AFF0EE19DF808000199FFF715FF70B90098C168002011B10099CA687F
:2009A80000E08CA2009B0021DA6000F0FC800120F9E00198006A18B10198006A0121017063
:2009C80000980199FFF759FFEDE09DF80800022853D10198807D00F00F0005284DD80120CF
:2009E8008DF820000198006A07900199079A0198019B498A1288806902FB0100D86100981B
:200A080003A9FFF78CFEA8B90020CCE0019903A8FFF733FF18B900208DF8200012E00799E0
:200A28000888401C0880019901984A8AC06901998018C861059828B101980799808A098865
:200A48008842E3DC059870B10098C168002011B10099CA6800E093A2009B0021DA6000F0DE
:200A6800A28001209FE0009803A9FFF785FE08B9002098E09DF8200095E00198006A0390D6
:200A88000199039A0198019B498A1288806902FB0100D8619DF808000199FFF78FFE68B97A
:200AA8000098C168002011B10099CA6800E049A2009B0021DA6076D0012074E00399088818
:200AC800421C0A800199898A81420DDC0098C168002011B10099CA6800E072A2009B0021AF
:200AE800DA6060D001205EE000980199FFF7C5FE59E001980199008A096A08800198807DB3
:200B080000F00F00082805D00198807D00F00F00092806D1019901984A8AC06900210EF0DD
:200B2800E9FD9DF808000199FFF748FE68B90098C168002011B10099CA6800E025A2009B83
:200B48000021DA602FD001202DE000980199FFF794FE28E00098C168002011B10099CA68D5
:200B68000CE0864A0AE0C046696E76616C6964206669656C64207479706500C0009B002158
:200B8800DA6010D001200EE00198807D10F030003FF4E0AE10383FF4F7AE10383FF415AF3E
:200BA8001038A6D0D6E709B000BDADF1100D01928DF8081000900098C168002011B1009985
:200BC800CA6800E099A2009B0021DA6000D0012004B0704777726F6E6720776972652074D6
:200BE8007970650000B5ADF12C0D01928DF80810009001980068006928B99DF808100098C3
:200C0800FFF7EEFC4CE09DF8080002282ED1009803A9FFF784FD08B9002041E00598079009
:200C280001980068019A00690021034603A8984768B90098C168002011B10099CA6800E044
:200C48007FA2009B0021DA602AD0012028E0059818B1079805998842E0D8009803A9FFF7F3
:200C68008BFD08B900201BE0012019E00A2007909DF80810009808AA07ABFFF7E4FC08B9ED
:200C880000200DE0079A03A808A9FFF768FB01980068019A00690021034603A89847FFE70A
:200CA8000BB000BD6172726179206F766572666C6F7700C00EB501928DF80810009022E0BC
:200CC8009DF808100098019AFFF73CFE25E09DF808100098019AFFF768FF1EE09DF808100F
:200CE8000098019AFFF77EFF17E00098C168002011B10099CA6800E0204A009B0021DA60A1
:200D08000BD0012009E00198807D10F0C000D7D04038E3D04038DAD0E7E70EBD00B5ADF1B0
:200D28003C0D8DF834300C920B910A900B9968460AF0EEF968B90A98C168002011B10A9901
:200D4800CA6800E08EA20A9B0021DA6013D0012011E00C98BDF81010884201D1019808B9E5
:200D6800012008E00B98012101739DF834100A986A46FFF79FFF0FB000BDC046700B00006D
:200D880010B5ADF1200D02938DF81420019100900298C0690068039000988068049021E078
:200DA80003980068006860B1039800689DF814300399019A006804460098A0478DF81800CE
:200DC80008E09DF8143000980399019AFFF7A6FF8DF818009DF8180008B900200AE0039830
:200DE80080680390039820B10098049980688842D6D0012008B010BD0EB50090009800895D
:200E0800ADF804000098807D00F00F000A2801D1012009E000980AF0A7F90099BDF80400FB
:200E280009898842EED100200EBDC0466E6F206D616C6C6F6320737570706F727400C046E6
:200E480063616C6C6261636B206661696C65640000B5ADF1340D00900098807D8DF8040096
:200E68009DF8040000F00F000A281BD10098C06900680290029800287ED0029903A80AF0A9
:200E880047F940B102980021017303A800F081F808B9002071E002988068029002980028CE
:200EA800EBD169E09DF8040010F0C00F49D101208DF808009DF8040000F03000102807D12C
:200EC8000098006A20B10098006A0021017012E09DF8040000F03000202805D09DF8040042
:200EE80000F03000302806D10098006A0021018000208DF808009DF8080000283CD00098E1
:200F0800807D00F00F00082805D00098807D00F00F0009280DD100980099C269496A03A86B
:200F28000AF0E3F840B303A800F033F820BB002023E0009900984A8AC06900210EF0DAFBFB
:200F48001AE09DF8040000F0C000802814D100988069002101609DF8040000F030002028B5
:200F680005D09DF8040000F03000302804D10098006A00210180FFE701200DB000BDC04683
:200F8800696E76616C696420657874656E73696F6E0000B5ADF11C0D049027480FC88DE89A
:200FA8000F000020059000208DF8180004980068C06888B104980068C1684FF0FF326846F8
:200FC800FFF7CDF906A905AA0DF119036846FFF7E3FA08B900202CE00498FFF739FF08B9DC
:200FE800002026E00598F0B104990598098A884219D19DF81810049A6846FFF75BFE08B9EB
:20100800002016E0684606A905AA0DF11903FFF7C3FA08B900200CE00498006A18B10498A1
:20102800006A0021017004980AF09EF80028D3D1012007B000BDC046B407010000B5ADF10A
:201048005C0D0F930E920D910C90002010904FF6FF70ADF848000020ADF84A000020ADF86E
:201068004C009E4803C88DE803004FF0FF3011900E9A0D9902A80AF038F8002800F0D18059
:201088000F98400880F0CD8002A8FFF782FF002840F0C7800C98C168002011B10C99CA6856
:2010A80000E0A9A20C9B0021DA6000F04A81012047E10C9815A914AA0DF15503FFF76CFA25
:2010C80030B99DF85500002840F0B080002038E1149890B90F98C00800D3A7E00C98C168E9
:2010E800002011B10C99CA6800E09DA20C9B0021DA6000F02681012023E1149902A80AF001
:2011080044F828B19DF81E0000F00F000A282DD110981499884220D802A8FFF76DFE18B9DD
:201128004FF0FF30109002E0BDF81800109010981499884211D80C98806816909DF8542007
:2011480014990C9802ABFFF71BFE08B90020F8E00C9816998068884263D19DF854100C98EB
:20116800FFF73EFA00285CD10020EAE09DF81E0000F03000202832D10A9907A888422ED1C1
:20118800BDF81000BDF84810884225D0BDF848004FF6FF71814214D0BDF84C00BDF84A104D
:2011A80088420ED00C98C168002011B10C99CA6800E0AFA20C9B0021DA6000F0C280012073
:2011C800BFE0BDF81000ADF848000020ADF84A00BDF81C00ADF84C000DF14A000A909DF86E
:2011E8001E0010F0300F13D1BDF8140040280FDABDF81400012100F01F0081401691BDF875
:2012080014006A464011810016988B58184388509DF854100C9802AAFFF74CFD08B9002003
:201228008FE00C98806800287FF443AFBDF848004FF6FF71814213D0BDF84C00BDF84A10B6
:2012480088420DD00C98C168002011B10C99CA6800E087A20C9B0021DA6072D0012070E09B
:20126800BDF81400ADF850009DF81E008DF8540002A809F079FF0028F2D19DF8540010F02D
:20128800300F07D1BDF8180020B1BDF85000401CADF85000BDF85000402802DD4020ADF8EA
:2012A8005000BDF8500000284ADD0020ADF852001BE0BDF852005DF82000B0F1FF3F0FD036
:2012C8000C98C168002011B10C99CA6800E0A8A20C9B0021DA6034D0012032E030080100E4
:2012E800BDF85200401CADF85200BDF85000BDF85210B1EB601FDCDBBDF8500010F01F0F6B
:201308001ED0BDF85000BDF8501040115DF8202001F01F01C1F120014FF0FF30C9B2C84002
:2013280090420DD00C98C168002011B10C99CA6800E08FA20C9B0021DA6002D0012000E08A
:20134800012017B000BDC0466661696C656420746F207365742064656661756C747300C0CE
:201368007A65726F2074616700C000B5ADF1240D03930292019100900398800808D2009824
:201388000199029A039BFFF759FE8DF8100015E0009805A9FFF7C3F908B9002010E0019937
:2013A800029A039B05A8FFF749FE8DF81000009805A9FFF7E1F908B9002001E09DF81000EF
:2013C80009B000BD00B5ADF1140D02920191009000980199029A0023FFF730FE8DF80C00BF
:2013E8009DF80C0005B000BD0EB501910090009802A9FFF747F808B9002009E002990022EE
:20140800002001B1012000B101220198027001200EBD00B5ADF1140D039102900298694623
:20142800FFF73CF808B900201FE09DE80C0000200121184001EA020100D100290BD09DE827
:201448000300CA0740081043039A4908C943C04382E8030008E09DE80300CA0740081043CF
:20146800039A490882E80300012005B000BDC04677726F6E672073697A6520666F7220667B
:201488006978656420636F756E74206669656C6400C01FB5019100900098042202A9FEF719
:2014A800D5FE08B9002010E09DF809409DF808009DF80A309DF80B20019940EA042040EA64
:2014C800034040EA02600860012000901FBD1FB503910290029808226946FEF7B7FE08B968
:2014E80000203AE09DF801009DF80030C117020E0902114302029DF80200DC1721431A43B9
:20150800040CC3171B0423430B439DF8031000041043CA170C0A090601439DF8040012060C
:2015280022431A4300230B439DF8051000001043090201439DF80600000408439DF807108E
:2015480000221A430023134300221A43090641EA0003039880E80C00012000901FBD0EB570
:20156800019100900198C1690098FFF73DFF0EBD6D697373696E672072657175697265646E
:20158800206669656C6400C000B5ADF1240D019100900198807D00F00F00022866D100982B
:2015A80002A9FEF77BFF08B90020E0E00198408A08280AD102A890E806000198C06980E8A8
:2015C800060004A880E8060037E00198408A042808D101990298C96904AA0860002182E85D
:2015E80003002AE00198408A022809D10199BDF80800C96904AA0880002182E803001CE026
:201608000198408A012809D101999DF80800C96904AA0870002182E803000EE00098C16890
:20162800002011B10099CA6800E099A2009B0021DA6000F09C80012099E002A803C804AA1B
:201648000CCA8B4200D182420ED00098C168002011B10099CA6800E092A2009B0021DA60F4
:2016680000F08580012082E0012080E00198807D00F00F00032806D1009804A9FFF7C9FED0
:20168800B8B9002073E0009802A9FEF707FF08B900206CE00198408A082805D102A803C815
:2016A80004AA82E8030004E0029804AAC11782E803000198408A08280AD104A890E80600FE
:2016C8000198C06980E8060006A880E8060036E00198408A042808D101990498C96906AA20
:2016E8000860C11782E8030029E00198408A022809D10199BDF91000C96906AA0880C11723
:2017080082E803001BE00198408A012809D101999DF91000C96906AA0870C11782E8030014
:201728000DE00098C168002011B10099CA6800E057A2009B0021DA6019D0012017E004A8CA
:2017480003C806AA0CCA8B4200D182420DD00098C168002011B10099CA6800E051A2009B15
:201768000021DA6003D0012001E00120FFE709B000BD0EB5019100900198408A042805D16A
:201788000198C1690098FFF784FE16E00198408A082805D10198C1690098FFF798FE0CE03C
:2017A8000098C168002011B10099CA6800E038A2009B0021DA6000D001200EBD00B5ADF1F4
:2017C800140D01910090009802A9FEF75BFE08B900205BE002984FF6FF7181420DD2009888
:2017E800C168002011B10099CA6800E068A2009B0021DA604AD0012048E00298801C0390FF
:201808000299039888420DD20098C168002011B10099CA6800E0624A009B0021DA6035D0EC
:20182800012033E00198807D00F0C00080280DD10098C168002011B10099CA6800E0594AAF
:20184800009B0021DA6021D001201FE001980399408A88420DD20098C168002011B1009995
:20186800CA6800E04AA2009B0021DA600ED001200CE00198C06904900499BDF80800088049
:20188800029A04990098891CFEF7E0FC05B000BD696E76616C696420646174615F73697A31
:2018A8006500C046696E746567657220746F6F206C617267650000B5ADF1140D0191009094
:2018C8000198C0690490009802A9FEF7DBFD08B900205AE00298B0F1FF3F0DD10098C16867
:2018E800002011B10099CA6800E02D4A009B0021DA604AD0012048E00298401C0390029860
:20190800039988420DD90098C168002011B10099CA6800E0224A009B0021DA6035D001209D
:2019280033E00198807D00F0C00080280DD10098C168002011B10099CA6800E0194A009B74
:201948000021DA6021D001201FE001980399408A88420DD20098C168002011B10099CA68FD
:2019680000E074A2009B0021DA600ED001200CE00498029900220A54029A00980499FEF70B
:2019880065FC08B9002000E0012005B000BDC0466279746573206F766572666C6F7700C009
:2019A800B4070000340E000000B5ADF1440D0591049001208DF8180000208DF8190004983C
:2019C8006946FEF7ACFE08B900206EE00598406A68B90498C168002011B10499CA6800E0C4
:2019E80058A2049B0021DA605FD001205DE00598807D00F03000202805D00598807D00F0FD
:201A08003000302819D105980599C269496A07A809F06BFB88B107A8FFF7BBFA68B90498D5
:201A2800C168002011B10499CA6800E0554A049B0021DA6039D0012037E00598807D00F080
:201A48000F00092818D10598006AA8B10598006A083807900798006870B10798079A059911
:201A68000068121D0346684698478DF81800029810B901208DF819009DF8180060B19DF8DF
:201A8800190048B905980599C269496A00236846FFF7D4FA8DF8180004986946FEF76CFE2F
:201AA80008B9002001E09DF8180011B000BD0EB501910090009802A9FEF7E4FC08B9002053
:201AC80037E002984FF6FF7181420DD20098C168002011B10099CA6800E02B4A009B002177
:201AE800DA6026D0012024E0029840B9019901984A8AC06900210DF0FDFD012019E00198FB
:201B08000299408A88420DD00098C168002011B10099CA6800E012A2009B0021DA6008D0E1
:201B2800012006E001980199428AC9690098FEF78DFB0EBD737472696E67206F76657266AC
:201B48006C6F7700696E76616C6964206669656C642064657363726970746F7200C046C0FB
:201B6800696E636F7272656374206669786564206C656E6774682062797465732073697A05
:201B88006500C0465013000098190000ADF1180D03930292019100900098807B04900099EF
:201BA8009DF8040088730698012805D10099029A9DF80C00505404E00099029ABDF80C0098
:201BC80050529DF810000099887306B07047ADF1180D03930292019100900098807B8DF88E
:201BE800140000999DF8040088730398012804D100980299085C049003E000980299085A60
:201C080004909DF8140000998873049806B07047ADF1080D00900098401C017841F00201FE
:201C2800017002B07047ADF1080D8DF8041000909DF8040030B10098401C017841F00801C5
:201C4800017005E00098401C017821F00801017002B07047ADF1080D8DF8041000909DF854
:201C6800040030B10098401C017841F02001017005E00098401C017821F02001017002B0A0
:201C88007047ADF1080D8DF8041000909DF8040030B10098401C017841F00401017005E036
:201CA8000098401C017821F00401017002B07047ADF1080D009000984078400901D30220ED
:201CC8000FE0009890F86000C00901D3012008E0009890F86000800901D3002001E04FF0CA
:201CE800004002B07047ADF1080D009000984078400901D3022000E0012002B07047ADF159
:201D0800080D01910090019810F0FF0F07D0009801990B30027801F0FF018A430270019856
:201D2800400A03D300990020C1F808040198800A02D39B490020086002B07047ADF1080D7D
:201D480001910090019810F0FF0F05D0009801990B300278114301700198400A03D30099DF
:201D68000120C1F808040198800A02D38C490120086002B07047ADF1080D00900098807AE1
:201D880001900098D0F80C0440080AD3019840F480700190009800F20C41087840F001003F
:201DA8000870A6480068400808D3019840F400700190A249086840F001000860019802B01D
:201DC8007047ADF1080D019100900098019A801D01886FF31F4291430180A8490098019BD9
:201DE80008300288194022EA1142028002B07047ADF1080D0191009000990198891D0A8837
:201E08006FF31F40104308809C490098019B08300288194042EA1142028002B07047ADF1E2
:201E2800080D009000984088019000990198898840EA01400190019802B07047ADF1080D10
:201E48000090AF49AD480A68AE491040814202D13C2001900BE0AA49A8480A68AA4910403E
:201E6800814202D13A20019001E000200190019802B070470EB5019100900098FFF7DEFFF5
:201E880002900199029809F0B8FE029809F04BFF0EBD0EB500900098FFF7D0FF0190019843
:201EA80009F07AFF019809F0D1FE0EBDADF1100D01910090019900984018B0F802010290D8
:201EC8000199009840180299B0F8060141EA00410291029804B07047ADF1100D0292019141
:201EE8000090019838B90098029A00F5817001789143017012E001990098029A401800F5DB
:201F0800817001789143017001990098029A401800F58370017821EA1241017004B0704749
:201F2800ADF1100D0292019100900198F0B90298400806D3009800F58170017841F04001C2
:201F480001700298400906D3009800F58170017841F0800101700298C0081ED3009800F552
:201F68008170017821F00401017016E001990098401800F581700299027801F024018A430A
:201F8800027001990098029A401800F58370017802F4980221EA1241017004B07047C04670
:201FA80048040540ADF1180D02938DF8102001910090002003909DF8100058B1019810B996
:201FC8000220039006E0029810B90220039001E001200390019860B900980399009A90F8A9
:201FE800030120F00600014341F0040182F8031122E0029880B901990098019B009A401822
:2020080090F807010399D21820F00600014341F0040182F807110FE001990098019B009A29
:20202800401890F803010399D21820F00300014341F0020182F8031106B070474C04054013
:20204800ADF1100D0292019100900298800B09D301990098401800F58170017841F04001AB
:20206800017008E001990098401800F58370017841F08001017004B07047C0460000FEFF83
:20208800ADF1100D8DF80820019100909DF8080028B14F49087820F00800087004E04C4917
:2020A800087840F00800087004B07047ADF1100D029201910090019838B9009800F5817004
:2020C800017841F06001017016E00298B0F5005F09D101990098401800F58170017841F0F4
:2020E8001001017008E001990098401800F58370017841F02001017004B070470000FF70E6
:2021080000E00F400000051000000A10ADF1100D029201910090019838B9009800F58170E0
:20212800017821F00401017028E00298B0F5005F12D101990098401800F58170017821F014
:202148003001017001990098401800F58170017841F04001017011E001990098401800F599
:202168008370017821F06001017001990098401800F58370017841F08001017004B070478F
:20218800ADF1080D00900098401C017841F04001017002B07047ADF1080D00900098401C04
:2021A800017821F04001017002B07047ADF1080D019100909DF804000099087002B070478A
:2021C800ADF1080D00900098007802B07047C04603010540ADF1180D0393029201910090DD
:2021E8000198C8B99DF80C00009981F80B010798C00B04D30099402081F80A01B5E007980C
:20220800400B04D30099802081F80A01ADE00099C02081F80A01A8E0069804900798C00B29
:2022280004D3049840F0400004901EE00798400B04D3049840F08000049016E0049840F0BE
:20224800C000049011E0049840F02000049019E0049840F01000049014E0049840F0300058
:2022680004900FE0049804900CE0079810F44070EED0B0F58070E6D0B0F58070EDD0B0F564
:202288008070EFD00798800B34D3019900989DF81020401880F80A21009801999DF80C2071
:2022A800401880F80B2100980199BDF808204018A0F80021002004900798400803D30498ED
:2022C80040F0800004900798400904D3049840F01400049006E00798000903D3049840F04F
:2022E80010000490019900989DF81020401880F803213AE0019900989DF81020401880F866
:202308000C21009801999DF80C20401880F80D2100980199BDF808204018A0F80421002053
:2023280004900798C00803D3049840F0800004900798800803D3049840F0400004900798A8
:20234800400904D3049840F02800049006E00798000903D3049840F02000049001990098B7
:202368009DF81020401880F8072106B07047ADF1180D0292019100900298C00B02D3402018
:20238800049007E00298400B02D38020049001E0C0200490019828B99DF81000009981F846
:2023A8000A012DE00298800B15D3019900984018B0F80A0120F0C0000390049803990843CD
:2023C800039000980199401800F58570039902881143018014E0019900984018B0F80C01C0
:2023E80020F0C0000390049803990843039000980199401800F586700399028811430180EC
:2024080006B07047ADF1180D03930292019100900398800B34D301990098BDF808204018A4
:20242800A0F80021002004900398400803D3049840F0800004900398400904D3049840F007
:202448001400049006E00398000903D3049840F010000490039810F4407F03D1049840F0FE
:2024680040000490019900989DF81020401880F803210098019A4021801880F8021138E0C6
:2024880001990098BDF808204018A0F80421002004900398C00801D380200490039840090D
:2024A80004D3049840F02800049006E00398000903D3049840F0200004900398800903D3DB
:2024C800049840F010000490039810F4407F03D1049840F040000490019900989DF81020BB
:2024E800401880F807210098019A8021801880F8061106B07047ADF1180D039302920191F5
:20250800009003980068800B36D303984FF400510160019A009802998018B0F80001086085
:2025280001990098401890F8030104900498000A04D30399086840F00100086004984009E2
:202548000DD30498C00805D30399086840F01000086004E00399086840F008000860049877
:20256800C00903D30398016801603AE00399086840F48070086034E0039800210160019AD1
:20258800009802998018B0F80401086001990098401890F8070104900498000A04D303998C
:2025A800086840F004000860049880090DD30498000905D30399086840F01000086004E0ED
:2025C8000399086840F0080008600498C00903D303980168016004E00399086840F4807093
:2025E800086006B0704700B5ADF1140D04930392029101900698800B13D3012000900298E0
:20260800049B010901986222FFF7C0FA0220009003980299C308019864220909FFF7B6FAB2
:2026280012E0012000900298049B010901986322FFF7ACFA0220009003980299C3080198A6
:2026480066220909FFF7A2FA05B000BD00B5ADF1140D03930292019100900698800B13D305
:2026680001980109009864220223FFF7B0FA0299C000086001980109009862220123FFF730
:20268800A6FA0399086012E001980109009866220223FFF79CFA0299C000086001980109C2
:2026A800009863220123FFF792FA0399086005B000BDADF1100D0292019100900298800B43
:2026C8001DD301990098401890F8030120F0840003900298400903D3039840F004000390AA
:2026E8000298400803D3039840F080000390019900989DF80C20401880F8032123E00199B8
:202708000098401890F8070120F0C80003900298400903D3039840F0080003900298C00845
:2027280003D3039840F0800003900298800803D3039840F040000390019900989DF80C2054
:20274800401880F8072104B07047ADF1100D0292019100900298800B09D301990098401812
:2027680000F20311087840F01000087008E001990098401800F20711087840F0200008704F
:2027880004B07047ADF1100D0292019100900298800B09D301990098401800F20311087844
:2027A80020F01000087008E001990098401800F20711087820F02000087004B07047ADF1CC
:2027C800100D01910090019818B94FF48170029003E0019800F58370029000980299085AF7
:2027E800400801D2002004E0019900984018B0F8080104B07047ADF1200D03930292019185
:202808000090019818B94FF48170049003E0019800F58370049000980499085A400805D240
:202828000398002101604FF0FF3027E0019900984018B0F8080105900398059900688842C3
:2028480001D9059801E00398006805900399059808600199009800EB9100203006900598AE
:2028680058B102980699421C0292097801700598401E059005980028F3D1002008B0704782
:20288800ADF1100D8DF8082001910090019858B99DF8080008B1082000E00020009940F0B5
:2028A800400081F8020108E001990098401800F58370017821F00101017004B07047ADF1F4
:2028C800080D01910090019838B9009800F58170017821F00101017008E001990098401842
:2028E80000F58370017821F00101017002B07047ADF1180D0393029201910090019818B909
:2029080002208DF8140002E001208DF814000199009840189DF8141090F80201014202D075
:202928004FF0FF3014E00199009800EB910020300490039858B1029810F8011B029004980B
:2029480001700398401E039003980028F3D1002006B07047ADF1100D029201910090019854
:2029680060B9009890F80201800802D34FF0FF301AE0029800F0FF0003900DE00199009813
:20298800401890F80201400802D34FF0FF300BE00298C0F307200390019900989DF80C20DC
:2029A800401880F80221002004B07047ADF1100D029201910090019850B9009890F802015B
:2029C80010F0030F28D00099012081F8030123E00298800B10D301990098401890F802018E
:2029E800400819D301990098401800F58170017841F0080101700FE001990098401890F806
:202A08000601400808D301990098401800F58370017841F01001017004B07047ADF1100DC0
:202A280001910090019818B94FF48170029003E0019800F5837002900098029920220A5473
:202A480004B07047ADF1100D01910090019818B94FF48170029003E0019800F58370029000
:202A6800029900984018017821F02001017004B07047ADF1080D00900099602081F8020164
:202A880002B07047ADF1100D03930292019100900398800B08D3019A00989DF8081000EBF2
:202AA800520080F8801007E0019A00989DF8081000EB520080F8841004B07047ADF1100D7E
:202AC8000292019100900298800B06D30199009800EB510090F8800005E00199009800EBC2
:202AE800510090F8840004B07047ADF1100D03930292019100900398800B08D3019A0098CB
:202B0800BDF8081000EB5200A0F8821007E0019A0098BDF8081000EB5200A0F8861001988E
:202B280098B90398400B04D30099802081F80A010BE00398C00B04D30099402081F80A011D
:202B480003E00099C02081F80A0104B07047ADF1100D0292019100900298800B06D3019919
:202B6800009800EB510090F8820005E00199009800EB510090F8860004B07047ADF1080DF0
:202B88000191009001980099000CC1F83004B8480099009BB1F80024019910400843A3F80F
:202BA800000402B07047ADF1080D0090009800F58060018841F01001018002B07047ADF19D
:202BC800080D0090009800F58060018821F01001018002B07047ADF1080D0090009800F576
:202BE8008060018841F00401018002B07047ADF1080D0090009800F58060018821F00401F5
:202C0800018002B07047ADF1080D00900098808902B07047ADF1080D8DF8041000909DF804
:202C2800040030B100986030017841F00101017005E000986030017821F00101017002B0A6
:202C48007047ADF1080D019100900199009800EB9100203002B07047ADF1080D009000989E
:202C680090F8600000F09D0002B07047ADF1100D02920191009002990F208900884003904F
:202C880000980399D0F8500488430390029A01980399920000099040084303900099039830
:202CA800C1F8500404B07047ADF1080D00900099022081F81C0402B07047ADF1080D009051
:202CC8000099032081F81C0402B07047ADF1080D00900099002081F81C0402B07047ADF192
:202CE800080D0191009001980099C1F81C0402B07047ADF1080D00900098401C017841F040
:202D08000101017002B07047ADF1080D00900098401C017821F00101017002B07047ADF194
:202D2800100D02920191009001980099029A0009401E01EB8001C1F8042304B07047ADF12D
:202D4800080D0090009890F8780000F00F0002B07047ADF1080D00900098D0F8C00F00F064
:202D68000F0002B07047ADF1100D02920191009001980299009A401E0143C2F8C81F04B09D
:202D88007047ADF1080D009000990020C1F8C80F02B07047ADF1080D019100900199009878
:202DA80000EB011000F50170016841F00801016002B07047ADF1080D019100900199009835
:202DC80000EB011000F50170016821F00801016002B07047ADF1080D00900098D0F8000297
:202DE80002B07047ADF1080D019100900199009800EB011000F50170016841F001010160FC
:202E080002B07047ADF1080D019100900199009800EB011000F50170016821F001010160FB
:202E280002B07047ADF1100D0393029201910090019A0098002100EB0210C0F80412019B5F
:202E480000990298039A01EB03111043C1F8040204B07047ADF1080D019100900199009816
:202E680000EB0110D0F8040200F4807002B070479CFCFFFFADF1100D029201910090029892
:202E880000F48070029001990098029A00EB011000F5017001689143016004B07047ADF1DD
:202EA800100D029201910090019A0098029900EB0210C0F8081204B07047ADF1080D0191EA
:202EC80000900199009800EB0110D0F8080202B07047ADF1100D029201910090019A00984D
:202EE800029900EB0210C0F80C1204B07047ADF1080D019100900199009800EB0110D0F826
:202F08000C0202B07047ADF1080D00900098D0F87900000902B07047ADF1080D01910090CF
:202F28009DF80400009981F8700002B07047ADF1080D0090009800F6C471086840F48030AB
:202F4800086002B07047ADF1080D0090009800F6C471086820F48030086002B07047ADF1EF
:202F6800080D8DF8041000909DF80400009981F875000099052081F87600009890F87600A8
:202F88008008FAD30099002081F87600009890F8740002B07047ADF1080D8DF805208DF84D
:202FA800041000909DF80400009981F875009DF80500009981F874000099012081F876007C
:202FC800009890F876008008FAD30099002081F8760002B07047ADF1100D0292019100907C
:202FE8009DF80400009981F865030098B0F8600320F47040039002990398090940EA013019
:2030080003900099BDF80C00A1F86003009800F26231087840F00100087004B07047ADF170
:20302800100D02920191009001980299009B4B223238B0FBF2F041EA0011A3F8601304B084
:203048007047ADF1080D0090009800F26231087840F00200087002B07047ADF1080D00907B
:20306800009800F26231087840F00200087002B07047ADF1080D019100909DF80400009991
:2030880081F8620302B07047ADF1080D0090009800F26231087840F00D00087002B07047E3
:2030A800ADF1080D0090009800F26231087820F00100087002B07047ADF1080D009000985B
:2030C800B0F8600300F00F0002B07047ADF1080D00900098B0F8600300F470400013019047
:2030E8000198000102B07047ADF1080D00900098B0F86003400A01D3012000E0002002B0EE
:203108007047ADF1080D0090009890F8640302B07047ADF1080D01910090009800F26331CA
:203128000A7801981043087002B07047ADF1080D019100900098019A00F263310878904357
:20314800087002B070477047ADF1080D01910090BA493C200860BB49B9480A68BA49104069
:20316800814202D1B5493A200860C54900200860C44901200860C44901200860C349002003
:203188000870C34900200870C24900200870C2490020087002B0704700B5ADF1140D029254
:2031A80001910090BD4901980860BD490298086000980199FFF7C8FFBA480078032802D16F
:2031C800B84900200870B748007802286AD0B648006840690146B5488847B3480068806905
:2031E8000146B248884703F0F6F8CA48006838B9C849AF4809684FF44072FFF7B4FD06E070
:20320800C449AB4809684FF40072FFF7ACFDC548006880B1A648FFF78AFEC2480068400914
:2032280004D3A34800210BF0CDFD07E0A04801210BF0C8FD02E09E48FFF785FE9948007893
:20324800052806D1CB480068D0F8DC109848884708E09448007828B9C6480068D0F8EC102D
:20326800934888478F4900200870C348006840080ED38F480C21FFF7FCFE8D483621FFF77A
:2032880048FF8B48FFF700FF7D490120086009E08748FFF705FF86480021FFF7EAFE784988
:2032A80000200860002004F00BF8C14908600BF013FD7548019900688968401E51F8200073
:2032C8000390039840680068406804900498C07900F0C000C02807D16C4991F8240040F095
:2032E800010081F8240006E0684991F8240020F0010081F824006B480078022827D09D4805
:203308000068D0F8C8106A4888479A480068D0F8D4106748884797480068D0F8C420644809
:203328002F21904793480068D0F8D02060484FF0FF3190478F480068C06801465C48884754
:20334800B04800683D4A006801461068884705B000BD08B50090AB480068384AC06801467D
:20336800106888470BF0D7FC4C490020086081480068D0F8C0204E4840F2FF3190477D48A6
:203388000068D0F8CC204A484FF0FF31904779480068006901464648884776480068D0F80D
:2033A800C8104348884773480068D0F8D4104048884703F016F83C480068C06901463B48CD
:2033C800884708BDADF1100D0292019100902F4903200870A24901980860A24902980860F4
:2033E800A1490298086004B070470EB50292019100909B49019808609B4902980860994948
:2034080002980860002000F0FFFD0EBDADF1080D019100901C490198086002B0704708B56A
:20342800009054480068C0690346214800210022984716490520087008BDC0465840002074
:203448000000FF7000E00F4000000A10ADF1080D8DF8041000901049012008700B4991F801
:20346800240020F0010081F82400084A9DF8040092F82410084382F8240002B07047C04671
:20348800604000202040002024400020184000203C400020504000204F400020004300208A
:2034A8005C400020D82D002044000001002800F000000540ADF1180D0292019100900120E7
:2034C8008DF8100047E00298039003984068400805D38849C86C40F00100C86445E0854943
:2034E800C86C20F00100C8643FE00298804A0068B0FBF2F15143401A03D000208DF8100064
:2035080033E002987A497D4A0068B0FBF1F010602BE0C046FC2D00200298024900680860F9
:2035280023E0C046FC420020734901200870714991F8240020F0010081F824006D4A029861
:2035480092F824100078084382F824000DE000208DF8100009E00198401EB4D0801EC4D00C
:20356800401ED9D0401EDFD0F1E79DF8100006B07047C0465000000164400020ADF1100D6F
:2035880002920191009001208DF80C0008E0AD4802990068086007E000208DF80C0003E0F8
:2035A8000198001FF3D0F7E79DF80C0004B070475440002008B50090A348FFF795FD20B159
:2035C800A148FFF74AFD012000E0002008BD08B500909E480078800811D39D48007870B93A
:2035E800B449002008709A4901200870B2480068D0F89020944801219047012000E00020E2
:2036080008BDC0464800000108B500909048007820B3384991F83900401C81F83900A548E0
:2036280000780A2806D1A4480068D0F890208648002190479F48007814280FD18449002007
:2036480008709E4800680068006A38B19B48006800689B4A006A01461068884708BDC04686
:203668003040002038400020344000201FB5009094480290402001908F480068914A806ABF
:2036880004467148002101ABA047019800282DD00298007810F0600F12D0884800680068AA
:2036A800406848B1854800680168854849680A4600680299904719E00020FFF7B0FE15E069
:2036C800029840780D280ED20298AC49407851F8200040B10298A949407851F820200548C0
:2036E8000299904702E00020FFF799FE00901FBD00879303184000204F400020FC2D0020C8
:203708001FB500906C480068806B02464E4800219047019083E00098002101700098406802
:2037280000080CD30099486820F000404860624800680099806849680246434890470198D2
:2037480040087CD30020FFF791FF78E00198400875D30020FFF78AFF71E0002000F054FC53
:203768006DE0002000F0A2FC69E00098C069402802D94020029002E00098C06902904E483C
:20378800009900688A69806A04462F4802AB0021A0470098C06940281FD200980421017085
:2037A800464800680068006970B10098006A58B14248006800990268096A4148126900683A
:2037C80090470098002101623B480068806903461D4800210122984707E037480068806992
:2037E800034619480021002298470099029A8869801888610099029AC869801AC8611EE027
:203808000198C0081BD32C480068406A03460E480021042298470098002101700FE0009855
:203828000078002892D0401E97D0401E99D0401E9BD0401E3FF46FAF401EE1D0FFE70090F5
:203848001FBDC046FC420020000005403C400020504000200EB50090009991F8240020F0E6
:20386800020081F824000099002081F83800134800680068806938B1104800680068104AB8
:20388800806901461068884700980099C068886000200190019808280AD2019A00980021BE
:2038A800801801740198401C019001980828F4D30EBDC046514000205000000100430020A7
:2038C8005C4000206840002000B5ADF1140D0191009000980390B948006880690346B84800
:2038E80000220021984734E0039890F82400ADF8100038E00020ADF8100034E001988088EC
:2039080000F07F00ADF81200BDF8120018B1BDF81200082803DB0020FFF781FD2CE00198DB
:203928008088000A01D3002000E0012002900299BDF81200039AC1EBC101401E5218121887
:2039480092F82500ADF810000DE00020FFF767FD12E00198007810F01F00C5D0401EC9D0E6
:20396800401ECBD0F1E703980221C161039904A88861002000F048FB05B000BD98040100FB
:2039880000B5ADF1140D01910090009802908B480068806903468A4801220021984758E0C5
:2039A80001984088400807D3029991F8240020F0020081F8240054E00020FFF730FD50E0DE
:2039C8000198808800F07F00ADF81000BDF8100018B1BDF81000082803DD0020FFF71FFD85
:2039E8003FE00198408860BB01988088000A01D3002000E0012003900399BDF81000029AF4
:203A0800C1EBC101401E52180021121882F82510039858B969480068BDF81010006A034621
:203A280067484FF40052090198471AE063480068BDF81010006A0346614800220901984708
:203A48000FE00020FFF7EBFC0BE00020FFF7E7FC07E00198007810F01F00A1D0801EAFD0E9
:203A6800F3E705B000BD00B5ADF1140D019100900098029051480068806903465048012244
:203A88000021984740E001984088400807D3029991F8240040F0020081F824003CE0002028
:203AA800FFF7BDFC38E00198808800F07F00ADF81000BDF8100018B1BDF81000082803DB11
:203AC8000020FFF7ACFC27E001984088A0B901988088000A01D3002000E001200390039990
:203AE800BDF81000029AC1EBC101401E52180121121882F825100FE00020FFF790FC0BE0B0
:203B08000020FFF78CFC07E00198007810F01F00B9D0801EC7D0F3E705B000BD0EB5019189
:203B28000090009802902548006880690346244801220021984701980299408840F00040C1
:203B480048600298042101700EBD00B5ADF1240D0191009000980290AC480068039017489C
:203B6800006880690346164800220021984700208DF81C007AE003980299406888610398A6
:203B8800406802990078C8617BE00198408800F0FF008DF81D0003984068059005989DF8E2
:203BA8001D10407C88420DDC0020FFF738FC02980021816102980021C16162E0500000010A
:203BC8000000054003989DF81D10806850F8210004900299002081F833000298002181862D
:203BE800049840680068029940688861049808F052FF0299C8619DF81D00029981F8360040
:203C080001208DF81C003CE00198019A4188908801F0FF0100F04EF806900698B0F1FF3F6F
:203C280003D10020FFF7FBFB2BE00398069AC068029950F82200886103980699C06850F896
:203C4800210002990078C8611BE003980068006840B103980168AA4809680A4600680199EF
:203C6800904725E00020FFF7DAFB21E0019840880012401E3FF47FAF401E86D0401EC3D09D
:203C8800E3E70298806998B101980299C088C969884203D201980299C088C8619DF81C00E3
:203CA80018B9002000F0B0F902E0002000F0FEF909B000BDADF1180DADF81210ADF81000D4
:203CC8005248006818B151480068C06810B94FF0FF3047E0BDF8120008B9002042E04B482D
:203CE8000068C06800680078801E00EBD070401001904648006801990069401EB0FBF1F0BF
:203D080002904248029A0068019B0069012103FB0211884202D04FF0FF3023E03B4800684B
:203D2800C068006800900020039001980399884216D90399009800EB4100BDF810104088BD
:203D4800814206D10299039ABDF8120002FB010008E00398401C0390019803998842E8D893
:203D68004FF0FF3006B070470EB501910090A448006880690346A3480022002198470020C8
:203D8800FFF74DFB0EBD00B5ADF1140D01910090009802909A4800688069034699480022D3
:203DA8000021984702984068000803D300208DF80C0003E00298007A8DF80C0002980121E6
:203DC800C161029903A88861002000F01DF905B000BD00B5ADF11C0D01910090009802902A
:203DE8000A4800680390864800688069034685480122002198470398019940684988407CAC
:203E0800884205DA0020FFF70AFB45E00043002001980299408888600298806800282FD0C1
:203E28000198039940888968401E51F82000049004984068006840680590029890F83700EF
:203E4800A0B90598C07900F0C000C02807D1029991F8240040F0010081F8240006E0029924
:203E680091F8240020F0010081F824000198039940888968401E51F82010029808F0CFFABF
:203E880003980068C06838B10398029902681C488968D2680068904707B000BD00B5ADF1D1
:203EA800140D0191009000980290554800688069034654480022002198470298406800084E
:203EC80003D300208DF80C000FE001988088082807DA0199029889884018007C8DF80C0008
:203EE80003E00020FFF79BFA08E002980121C161029903A88861002000F086F805B000BD37
:203F08005C40002000B5ADF12C0D019100900098079090480068089039480068806903460D
:203F280038480122002198470798089980688968401E51F8200002900298042108F0C7FDE9
:203F480006900020049006980499884244D9029804994FF0FF3205AB08F051FE0390039821
:203F6800002832D0019803998088897888422CD1019803994088C978884226D10398807878
:203F88008DF8240003999DF824200798C9788018017403980299C3789DF82420079808F02D
:203FA80039FB8DF825009DF82500C0B1089800688068A0B108980199019A0368AF480979F6
:203FC80092789B680068984709E00498401C0490069804998842BAD80020FFF720FA0BB08E
:203FE80000BD0EB501910090054800688069034604480122002198470020FFF710FA0EBDD6
:2040080050000001000005401FB500909D49012008709D48006801900198402801D9402006
:2040280001909A48006802909649019AC869801AC8619449019A886980188861A048019B2F
:204048000068029AC06A04469E480021A0470198402809D19A480068006B03469948002117
:204068004FF4817298471FE086490420087094480068006B034693484FF4857200219847AC
:20408800344800680068406970B18148006858B1304800687E490268096878485269006863
:2040A80090477B490020086000901FBD10B5ADF1280D00907349022008702649754809684E
:2040C8000078896851F8200005906F48006801900198402801D9402001906F48008800288E
:2040E8003AD16E480078002836D1684801680A6807A802604A684260097A0172059808F0D5
:20410800CAFCADF81E000198092801D2019800E0092003906A480068039BC06A044669485F
:20412800002107AAA04705984068016803980988884206D1584900200880584901200870C0
:2041480003E09DF80C005449088003990198401A039003E000430020019803900398002857
:204168003DD04E4805990078496851F8200006904949069809880088401A0290464906986C
:20418800098840684018049003980299884201D2039802904A480068049A029BC06A044649
:2041A80048480021A04702990398401A039035499DF80820888E8018888637490698098896
:2041C8000088884208D12F4991F83300401C81F8330031490020088003980028C1D1294987
:2041E800019AC869801AC8612C48059900780978884202DB2449002008602348006878B185
:20420800264805990078496851F8200040680490214800880390039A1C490498801808609A
:204228000198402809D126480068006B0346254800214FF48172984722E021480068006B30
:204248000346204800214FF485729847874800680068406970B10E48006858B18348006808
:204268000B4902680968824852690068904708490020086003490420087001E05C400020E5
:204288000AB010BD184000203440002030400020384000204E4000204C4000204B40002056
:2042A80000B5ADF1140D019100907048006858B9034800680069014602488847D4E0C046F9
:2042C80050000001000005406948006802900198C00802D36948FFF7BDFA019840080BD342
:2042E800624800680068C06930B1604800680068C069014602988847019880080BD35B483F
:2043080000680068006A30B1584800680068006A014602988847019880090BD353480068ED
:204328000068406A30B1514800680068406A0146029888470198000914D34E490868401CD3
:2043480008604D490868401C08604C48FFF75CF949480068052805D147490020086005200B
:204368000AF005FD4648FEF7CCFE049045480068022819D1049800F01400102814D13B480F
:2043880000680068C06A40B1384800680068C06A034602981521002298473A49012008608A
:2043A8003748FEF771FE2BE036480068012816D1049800F01400042811D12C48006800681F
:2043C800C06A40B1294800680068C06A034602981421002298472B490220086010E00498AC
:2043E80080080DD3214800680068C06A40B11F4800680068C06A034602981621002298477D
:2044080021480068D0F8D4101D48884701900198400806D31948FFF773F9019820F001002B
:2044280001901A480068D0F8FC101848006888470390039838B115480168D1F8F820134895
:20444800039900689047094800680068806A58B1019808B9039838B10448006800680199D1
:20446800806A02460298904705B000BD004300205C400020C82D0020002E00201840002025
:2044880000000540604000205000000154400020ADF1180D029201910090009840680490BD
:2044A800029A0099049880184860002003900298039988420CD901980399049A039B085C76
:2044C80098540398401C0390029803998842F2D8012006B0704710B5ADF1200D0692059148
:2044E8003D4900910599019106990291002103910021049169461CC91CC006C980E8060023
:2045080008B010BD0EB50292019100900298002837D000980068002833D000980099029AD4
:20452800C068C9688018814207D800980099029AC0688968801881420DD20098016900209E
:2045480011B100990A6900E01DA2009B00211A611DD001201BE000980199029A0068034627
:204568000098984768B900980169002011B100990A6900E015A2009B00211A6107D00120E5
:2045880005E00099029AC8688018C86001200EBDADF1100D0090009801900020029002985D
:2045A80058B901980299085C08B1012006E00298401C029002980028F3D0002004B07047F2
:2045C80073747265616D2066756C6C00696F206572726F7200C046C09944000030B5ADF12C
:2045E8002C0D019100900198006A0088ADF80E00BDF80E0008B901201BE10198807D00F0F3
:20460800C000802814D00198BDF80E10808A88420EDA00980169002011B100990A6900E04E
:2046280085A2009B00211A6100F00381012000E10198807D00F00F00052800F29E80019833
:20464800028A0098022100F0FAFC08B90020F0E00198807D00F00F00042804D1BDF80E001B
:204668008000029047E00198807D00F00F00052804D1BDF80E00C00002903CE076491CC98D
:2046880004A81CC006C980E806000198C06909900020ADF80C0023E0019904A800F0D6FD15
:2046A80090B900980169002011B100990A6904E0089909B1089A00E065A2009B00211A61BA
:2046C80000F0B7800120B4E0019901984A8AC06901998018C861BDF80C00401CADF80C009D
:2046E800BDF80E00BDF80C108842D5DC09980199C86107980290029A0098002300F0E1FBEB
:2047080008B9002095E00098006828B90098029A0021FFF7F7FE8CE00020ADF80C0025E0D8
:204728000198807D00F00F00042805D00198807D00F00F00052806D10098019900F036FEEC
:2047480040B9002075E00098019900F07FFD08B900206EE0019901984A8AC06901998018B4
:20476800C861BDF80C00401CADF80C00BDF80E00BDF80C108842D3DC5AE00020ADF80C0022
:2047880050E00198807D00F0C000802837D10198807D00F00F00072805D00198807D00F0CC
:2047A8000F0006282BD10198C06904900198C06901990068C8610198C06990B90098019938
:2047C80000F05CFC0025002430B100980022002300F077FB00B1012404B101258DF8145086
:2047E80005E00098019900F045F98DF8140004980199C8619DF8140040B9002019E0009821
:20480800019900F037F908B9002012E0019901984A8AC06901998018C861BDF80C00401C5B
:20482800ADF80C00BDF80E00BDF80C108842A8DC01200BB030BDC0466172726179206D6101
:20484800782073697A6520657863656564656400286E6F6E652900C01006010000B5ADF17B
:20486800340D00900098807D8DF804009DF8040010F0C00F40F0B7809DF8040010F0300F9A
:2048880001D10020F4E09DF8040000F0300020280BD10098006A02880021002002B90121C3
:2048A800002900F0E5800120E2E09DF8040000F0300030280BD10098006A028800210020D5
:2048C80002B90121002900F0D3800120D0E09DF8040000F0300010280ED10098006A58B1DB
:2048E8000098006AFFF754FE0022002100B9012101B101221046BBE09DF8040000F00F00EA
:2049080005281AD80098C06902900020ADF80C000BE00298BDF80C10085C08B10020A7E032
:20492800BDF80C00401CADF80C000098BDF80C10408A8842EDDC01209AE09DF8040000F0B7
:204948000F0006280DD10098C0690290029802880021002002B90121002900F0898001205C
:2049680086E09DF8040000F00F0007280AD10098C06902780021002002B90121002977D05E
:20498800012075E09DF8040000F00F000B2809D10098428A0021002002B90121002967D012
:2049A800012065E09DF8040000F00F00082805D09DF8040000F00F00092858D100980099C9
:2049C800C269496A02A806F090FB50B102A8FFF745FF08B900204BE002A806F0C5FB00284D
:2049E800F4D1012044E09DF8040000F0C000802809D10098C2690021002002B901210029D0
:204A080036D0012034E09DF8040000F0C00040282DD19DF8040000F00F000A280BD1009866
:204A2800C06900680290029A0021002002B90121F1B101201CE000980068904900698142CD
:204A48000BD10098C0690290029802680021002002B9012161B101200AE000980068026975
:204A68000021002002B9012111B1012000E000200DB000BD0EB5019100900198C06908B94B
:204A880001205BE00098019900F0F8FA002832D1002053E00098019900F0C3FB4EE000987A
:204AA800019900F0D3FB49E00098019900F07EFC44E00098019900F0A1FC3FE0009801999D
:204AC80000F0D8FC3AE00098019900F034FD35E00098019900F066FD30E0009801690020D1
:204AE80011B100990A6900E091A2009B00211A6124D0012022E00198807D00F00F000B28B7
:204B0800EBD802A151F820008746C0469D4A0000A74A0000A74A0000A74A0000B14A000036
:204B2800B14A0000BB4A0000C54A0000CF4A0000CF4A0000E34A0000D94A00000EBD0EB54E
:204B480001910090019800680069B0B1019800680099019A006903460020984768B90098C1
:204B68000169002011B100990A6900E098A2009B00211A6102D0012000E001200EBD0EB502
:204B8800019100900198807D00F03000302808D101990198096A008A098888421CD001206C
:204BA8004CE00198807D00F03000102814D10198006A30B10198006AFFF7EAFC60B90120F1
:204BC8003CE00198807D10F0C00F05D10198FFF745FE08B1012031E00198C069A0B9019805
:204BE800807D10F0300F0DD100980169002011B100990A6900E07AA2009B00211A611DD083
:204C080001201BE0012019E00198807D00F0C000402804D100980199FFF791FF0EE0019894
:204C2800807D00F03000202804D100980199FFF7D5FC03E000980199FFF71CFF0EBD00B593
:204C4800ADF1340D0B910A900B99684606F0F2FA68B90A980169002011B10A990A6900E0FE
:204C6800A6A20A9B00211A6105D0012003E00A986946FFF784FF0DB000BDC04653B200007B
:204C880000B5ADF1140D019100900198C069006802900298F0B102980068406848B1029842
:204CA8000068029940680246009890478DF80C0005E000980299FFF7C2FF8DF80C009DF804
:204CC8000C0008B9002006E002988068029002980028E0D1012005B000BD00B5ADF1340D4B
:204CE8000C920B910A900B990C9A684606F095FA08B9012019E09DF8160000F00F000A28A4
:204D080006D10A986946FFF7BBFF40B900200CE00A986946FFF733FF08B9002005E06846C1
:204D280006F022FA0028E6D101200DB000BDC046696E76616C6964206669656C64207479C1
:204D4800706500C000B5ADF1140D03930292019100900398800805D300980199029A00F03D
:204D6800EBF918E00398C00810D300208DF810000199029A0098FFF7B0FF08B900200AE016
:204D8800009804A90122FFF7BDFB04E000980199029AFFF7A2FF05B000BD10B5ADF1200DAA
:204DA800079206910590B4481CC869461CC105C881E805000699079A6846FFF78EFF08B94D
:204DC800002003E0039805990860012008B010BD63616C6C6261636B206572726F7200C04A
:204DE8006D697373696E67207265717569726564206669656C6400C000B5ADF1240D029234
:204E08000191009000200390019800F07F008DF81C000198C009019014E09DF81C0040F044
:204E280080008DF81C0003989DF81C10421C039268440174019800F07F008DF81C00019897
:204E4800C00901900398042805D201980028E4D102980028E1D1029828B302989DF81C1098
:204E680000F0070041EA00118DF81C100298C00802900298B8B19DF81C0040F080008DF869
:204E88001C0003989DF81C10421C039268440174029800F07F008DF81C000298C0090290DF
:204EA80002980028E7D103989DF81C10421C0392684401740098039A04A9FFF723FB09B051
:204EC80000BD00B5ADF1140D8DE80C0002909DE80300002900D17F2809D89DF800008DF862
:204EE8000C00029803A90122FFF70CFB04E002980099019AFFF780FF05B000BD696E7661F1
:204F08006C696420657874656E73696F6E0000B5ADF1140D8DE80C0004909DE80300002919
:204F28000BDA9DE806005000CA0F49001043C943C24302A880E8060009E09DE80C00D10FB1
:204F48005800520040EA010302A880E80C00049802A991E80C00FFF7B4FF05B000BD00B5B7
:204F6800ADF1140D01910090019800680290029800F0FF008DF80C000298C0F307208DF8A2
:204F88000D000298C0F307408DF80E000298C0F307608DF80F000098042203A9FFF7B2FA81
:204FA80005B000BD00B5ADF11C0D03910290039803C88DE803009DE80600FF2008408DF880
:204FC80010009DE80300000A09060843FF2101408DF811109DE80300000C09040843FF21BA
:204FE80001408DF812109DE80300000E09020843FF2101408DF813109DE80300FF20091C00
:2050080008408DF814009DE80300FF20090A08408DF815009DE80300FF20090C08408DF882
:2050280016009DE80300FF20090E08408DF817000298082204A9FFF765FA07B000BD00B5C1
:20504800ADF1140D03928DF81010029003990020C0004A0F10439DF81020CB00D1171A43C0
:2050680041EA00038DE80C0002989DE80C00FFF728FF05B000BDC046380601000EB5019125
:2050880000901DE000208DF808003BE005208DF8080037E001208DF8080033E002208DF882
:2050A80008002FE000980169002011B100990A6900E0654A009B00211A612AD0012028E0F8
:2050C8000198807D00F00F000B28EBD801A151F8200087468D5000008D5000008D500000CE
:2050E8008D500000955000009D500000A5500000A5500000A5500000A5500000AD50000028
:20510800A550000001989DF80810028A0098FFF796FF0EBD0EB50292019100900098029A25
:205128000023FFF7CEFE08B9002004E000980199029AFFF7E7F90EBD10B5ADF1280D07921D
:205148000691059098481CC869461CC105C881E805000699079A6846FFF7BFFD20B904987B
:205168000599086100205AE003980890089A05980023FFF7A6FE08B9002050E00598006881
:2051880028B90598089A0021FFF7BCF947E005980599089AC0688968801881420DD2059827
:2051A8000169002011B105990A6900E0924A059B00211A6133D0012031E0059800680090C8
:2051C8000598406801900898029000200390002004900699079A6846FFF77FFD8DF824004F
:2051E8000599039AC8688018C8600198059948600498059908610898039988420DD005987A
:205208000169002011B105990A6900E094A2059B00211A6103D0012001E09DF824000AB08F
:2052280010BD0EB5019100900198C069FFF7B0F908B1012000E0002002900098029A002390
:20524800FFF73FFE0EBDC046384D000000B5ADF1140D019100900198807D00F00F00022868
:2052680048D10020002102AA82E803000198408A012807D10198C069007802AAC11782E827
:20528800030030E00198408A022807D10198C069008802AAC11782E8030024E00198408AEC
:2052A800042807D10198C0690068002102AA82E8030018E00198408A082806D10198C0695A
:2052C80003C802AA82E803000DE000980169002011B100990A6900E092A2009B00211A61BA
:2052E80060D001205EE0009802A991E80C00FFF7E8FD57E00020002102AA82E8030001984A
:20530800408A012808D10198C06990F9000002AAC11782E8030031E00198408A022808D106
:205328000198C069B0F9000002AAC11782E8030024E00198408A042807D10198C069006874
:2053480002AAC11782E8030018E00198408A082806D10198C06903C802AA82E803000DE05F
:2053680000980169002011B100990A6900E06DA2009B00211A6115D0012013E00198807D80
:2053880000F00F00032806D1009802A991E80C00FFF7BDFD06E002A890E80C000098FFF7EA
:2053A80090FDFFE705B000BD4C0601000EB5019100900198408A042805D10198C169009808
:2053C800FFF7CDFD16E00198408A082805D10198C1690098FFF7E6FD0CE000980169002064
:2053E80011B100990A6900E04EA2009B00211A6100D001200EBDC046C84500000EB50191AC
:205408000090002002900198C0690290029828B9009800210022FFF77DFE20E00198807D91
:2054280010F0C00F14D101980299408A0988801E88420DD200980169002011B100990A69EA
:2054480000E05EA2009B00211A6108D0012006E00298029902880098891CFFF75BFE0EBD38
:205468007375626D73672073697A65206368616E6765640000B5ADF11C0D01910090002010
:2054880002900198408A03900198C06904900198807D00F0C000802803D14FF0FF30039063
:2054A80012E0039868B900980169002011B100990A6900E046A2009B00211A6130D0012026
:2054C8002EE00398401E0390049810B90020029021E00498059005E00298401C02900598D7
:2054E800401C059003980299884203D9059800780028F1D10598007868B100980169002088
:2055080011B100990A6900E036A2009B00211A6106D0012004E000980499029AFFF7FAFD2D
:2055280007B000BD696E76616C696420646174615F73697A65000EB5019100900198406A0C
:2055480068B900980169002011B100990A6900E029A2009B00211A6123D0012021E00198A2
:20556800807D00F00F00092814D10198006A88B10198006A083802900298006850B1029863
:20558800029A0068019903460098121D984708B9002006E001980199C269496A0098FFF710
:2055A800CBFD0EBD0EB50191009001980199428AC9690098FFF7AEFD0EBDC046627974657C
:2055C800732073697A65206578636565646564007A65726F2D6C656E6774682073747269CD
:2055E8006E6700C0756E7465726D696E6174656420737472696E6700696E76616C69642040
:205608006669656C642064657363726970746F7200C00000ADF1080D0090002001900198D2
:20562800062811D20198C04A009952F83000884204D30198BD4951F8300006E00198401C07
:20564800019001980628EDD3002002B07047ADF1200D0090C5480068C0F38920C0F31500AD
:205668000590C24800686FF39F200490C048006800F4F850000A401C0690BD48006800F061
:205688001F00401C079000990798B1FBF0F0009005984009029005980299A0EB411003907D
:2056A80004980099484301900298009A0199504301EB501101910398009A0199504301EB03
:2056C8009021019106980199B1FBF0F00190019808B07047C5480068401C00027047C5498A
:2056E800C3480A68C4491040814207D1C34800686FF31F40C00200F5006005E0CF4800687E
:205708006FF31F40401CC0027047BA49B8480A68CB491040814208D1C848006800F4E0200A
:20572800010C01200A31884001E04FF4806070471CB50090C349C348009C009B009A04F434
:205748007F4403F47F4302F0FF0201EB142100EB132001F070416FF31F5041EA401141EA79
:20576800820141F000700168002001B101201CBD1CB50090CE49CE48009C009B009A04F471
:205788007F4403F47F4302F0FF0201EB142100EB132001F070416FF31F5041EA401141EA39
:2057A800820141F000700168002001B101201CBD1CB50090CD49CD48009C009B009A04F433
:2057C8007F4403F47F4302F0FF0201EB142100EB132001F070416FF31F5041EA401141EAF9
:2057E8008201012241F0007002601CBD1CB50090BE49BE48009C009B009A04F47F4403F42E
:205808007F4302F0FF0201EB142100EB132001F070416FF31F5041EA401141EA82010022CD
:2058280041F0007002601CBD1CB50090CA49CA48009C009B009A04F47F4403F47F4302F0C7
:20584800FF0201EB142100EB132001F070416FF31F5041EA401141EA8201012241F000709F
:205868000260002001900198102805D20198401C019001981028F9D3009C009B009AB64972
:20588800B54804F47F4403F47F4302F0FF0201EB142100EB132001F070416FF31F5041EABF
:2058A800401141EA8201002241F0007002601CBD1CB50090C349C348009C009B009A04F4A2
:2058C8007F4403F47F4302F0FF0201EB142100EB132001F070416FF31F5041EA401141EAF8
:2058E8008201012241F0007002601CBD1CB50090B449B448009C009B009A04F47F4403F441
:205908007F4302F0FF0201EB142100EB132001F070416FF31F5041EA401141EA82010022CC
:2059280041F0007002601CBDFC040100000501001CB50090BE49BE48009C009B009A04F445
:205948007F4403F47F4302F0FF0201EB142100EB132001F070416FF31F5041EA401141EA77
:205968008201012241F0007002601CBD60E10F4064E10F401CB50090AD49AD48009C009BF6
:20598800009A04F47F4403F47F4302F0FF0201EB142100EB132001F070416FF31F5041EA21
:2059A800401141EA8201002241F0007002601CBD1CB500909F499F48009C009B009A04F4E9
:2059C8007F4403F47F4302F0FF0201EB142100EB132001F070416FF31F5041EA401141EAF7
:2059E8008201012241F0007002601CBDC4DF0F400000FF7000E00F400000051008E00F4041
:205A08001CB500908B498B48009C009B009A04F47F4403F47F4302F0FF0201EB142100EB32
:205A2800132001F070416FF31F5041EA401141EA8201002241F0007002601CBDC0DF0F40A2
:205A480000000A1000E30F40ADF1080D8DF80000BB49BC480A68BC49104081420ED19DF8B4
:205A6800000028B17449086840F00060086013E07149086820F0006008600DE09DF80000A9
:205A880028B16E49086840F00050086004E06B49086820F00050086002B0704708B5009090
:205AA80000992C2006F0A9F82C2006F03CF908BD00EA0F4008B52C2006F06EF92C2006F045
:205AC800C5F808BDADF1080D00905D4900980A681043086002B07047ADF1080D0090584941
:205AE800009A08689043086002B0704700E90F40ADF1080D009053490098086002B0704770
:205B0800ADF1080D8DF800009DF8000010B14D48006801E04C48006802B07047ADF1080DF9
:205B280000904A490098086002B07047474800687047ADF1080D009045490098086002B0A0
:205B48007047434800687047ADF1080D009041490098086002B0704700E50F40ADF1080DBF
:205B680000903D490098086002B070473C483B490860FEE708B50AF071F808BD08B5394925
:205B8800086840F0040008600AF068F83549086820F00400086008BD334800687047ADF130
:205BA800080D00903049009A08689043086002B07047ADF1080D0090B4490098086002B01F
:205BC8007047C04600E60F40ADF1080D009027480099084209D00098254900F000400860BF
:205BE800009823496FF3DE1008600098204908600098800A0DD31F48006810F4407FFAD01A
:205C08001C48006800F44070B0F5807F01D0002000E0012002B07047ADF1080D009016496B
:205C28000098086002B07047134800687047C04600E70F4000E80F4060E00F40B0E00F4098
:205C480054E00F4058E00F4050E00F40B4E10F40BCE10F4088E10F408CE10F400CED00E096
:205C68000400FA0510ED00E05CE00F400001008050E10F4054E10F40D8E10F4030B5ADF1A1
:205C88002C0D019100902E492E480A682E491040814201D1002044E1009800F4F860800934
:205CA8000490009800F03800102808D19E4807900020089008980890152004904AE000987F
:205CC80000F03800302806D147F2305007904FF4001008903EE0009800F03800382806D115
:205CE8004FF4004007904FF48000089032E0009810F0380F2AD104981A2802DC04980928B2
:205D080001DA00200DE10498884951F8200007904FF440100890089840F0407008905B483F
:205D2800006820F01C0005900498072803DB059840F0100005900598544908600AE0C04685
:205D480000E00F400000FF70000005100020079000200890009810F4605F40F099800098DD
:205D680010F0380F06D0009800F03800102801D00020D6E00098C0F3026003906D48FFF774
:205D880049FC6B4908606F496B48096808400990099840F0004009906A49099808600498DB
:205DA80009380490654A0398019952F82000019A4018401EB0FBF2F00690624908980A6887
:205DC800104308605E4D039C049B5F49D822980002FB045200EBC3008018406808605A4A90
:205DE80006981168401E41EA00211160544D5749039C049BD822980002FB045200EBC30057
:205E080009688258514801F40001114301600798FFF71DFC400801900198FFF7FBFB444952
:205E280008604A480068000E05D34649086840F08040086004E04549086840F4000008603D
:205E48004FF4004002900298002809DDAD480068400805D20298401E029002980028F5DCE4
:205E6800029880B1374800680990A749099A0898104301430991099840F000400990314947
:205E88000998086047E00020019044E07CE00F402548FFF7BFFB264908602C49086820F45D
:205EA800000008602748006809909848099908400990099840F00040099022490998086081
:205EC800019810B9002006900FE001980799B1FBF0F00690069810B10698401E06900698C9
:205EE8000799401CB1FBF0F001900198FFF792FB0F490860134800680990069A0899099867
:205F080040EA822001430991099840F0004009900C49099808600B49086820F47000086017
:205F280001980BB030BDC0460024F4005C030100C0E00F4040787D0100FC0FE090080100F1
:205F4800FCFD0000B0E00F4064E10F4060E10F4000B5ADF1140D0090AC4800680290AE4855
:205F680000680390029840F400600290029820F480000290039840F400600390A349029856
:205F88000860A549039808600298400823D30098400820D20098029A6FF0010100F0010070
:205FA8000143114002915C494FF4807008609749029808604FF40020019004E00198401EC0
:205FC8000190019818B155480068400AF6D30198002800F09580029820F4FE6002900098B2
:205FE800029900F4FE60084302904948039908400390009A4748039910400843039000983C
:20600800039900F0080041EAC00103917F4902980860814903980860029820F4005002903D
:206028000098029900F4005008430290039820F4005003900098039900F40050084303901C
:206048003549402008600398000806D30398724908606E490298086005E002986B49086064
:206068006D490398086002999B4808400290009A9A480299104008430290039820F0FC50CC
:2060880003900098039900F0FC50084303900098C00F0ED3029840F480000290039820F440
:2060A80080000390009A8E48039910400843039003E0039820F0804003900098000B16D21F
:2060C8004FF400400190019848B10E480068400805D20198401E019001980028F5D102988C
:2060E80020F400600290039820F400600390029846490860484903980860102009F072FE32
:2061080005B000BD68E10F4001000010FF0300EF8FFFFF7F3000008058E00F4050E00F40A9
:20612800ADF1180D3948006800903B480068019018E00098AE4900F4F860800951F82000DA
:20614800039024E0B148039021E0B64803901EE047F2305003901AE04FF40040039016E032
:206168000020AEE00198000803D3019800F0700002E0009800F030000028DAD01038E1D094
:206188001038E2D01038E3D04038E5D0E8E74FF0FF3004900198000802D30198000B05D312
:2061A8000198000853D20098000B50D2B64800680290B6480068059005990598039A01F090
:2061C8001F0100F4F850491C000A401C41434800B2FBF0F0039002990298039B039AC1F380
:2061E80089216FF39F20C1F315015043594300EB91200390009840F48000009014E0B848D4
:20620800049024E0B948049021E0C04660E00F40B74804901BE0C04670E00F40B5480490EF
:2062280015E0BA48049012E0B948006800F47040B0F50050E3D0B0F58050E3D0B0F5805087
:20624800E6D0B0F54050E9D0B0F50050E9D00098C00D2FD30198000823D30198C00F16D395
:206268000198000802D30198000B05D3019800080DD20098000B0AD20198039900F0FE50B2
:206288004900800D401CB1FBF0F0039012E00198039900F0FC50C00D401CB1FBF0F00390FA
:2062A80008E00098039900F0F060C00D401CB1FBF0F0039003980499884201D90498039027
:2062C800039806B07047ADF1080D00909C490098086002B07047C046FEFF3FF80100C0071B
:2062E80000004040ADF1100D01910090954996480A6896491040814209D100990198904A33
:20630800491E20F0FC5040EAC15010602DE00098401E02900EE0029840F44010029013E0E1
:20632800029840F4001002900EE0029840F48000029009E0019810F07000ECD0103803D04E
:206348002038EDD04038F0D00198800803D3029840F0004002900198C00F03D3029840F04D
:206368008040029002987649086004B07047ADF1080D00907648764A0099006820F4F010C1
:206388000143116002B0704771480068400D01D2002003E06E48006800F4F0107047ADF12C
:2063A800080D00906B4A00981368012100F00F0081401943116002B07047ADF1080D00900D
:2063C800644B00981968012200F00F0082409143196002B070476049086820F480400860FE
:2063E80070475D49086840F4804008607047C0465C030100ADF1080D00905849009808606B
:2064080002B07047524800687047C0460024F400ADF1080D00904E4900980A681043086095
:2064280002B0704700093D00ADF1300D01910090444945480A6845491040814204D101980D
:2064480000210160002049E04548006803900398400F04D201980021016000203EE0009830
:2064680000F4F860800902903E49029851F82000069005480068049004480068059004985F
:206488006FF39F2004E0C04660E10F4064E10F4007900498C0F38920C0F315000890059839
:2064A80000F01F000990059800F4F850000A0A90069B069A089807995843514301EB902162
:2064C8000B9109980A990B9A401C491C4143B2FBF1F00B9001990B98086001200CB0704788
:2064E80000B4C404204800687047C04680F0FA02005A620240787D01ADF1080D00901A4985
:20650800009A08689043086002B07047002D310110E00F40ADF1080D01910090134901985D
:20652800009A401E00F0FF001043086002B07047ADF1080D00900E490098086002B0704745
:2065480044E10F4000E00F400000FF700000051060E00F406CE00F4070E00F4038E00F40DC
:20656800B0E00F405C03010064E00F4048E10F4038E10F40ADF1100D0191009000200290D2
:2065880000990198D1F8D420401E01218140114202D0012002900DE000990198D1F8D02013
:2065A800401E01218140114202D00420029001E000200290029804B070470EB5019100903A
:2065C80000200290009801990068FCF743FCB0F5807F02D10220029019E000990198D1F816
:2065E800D420401E01218140114202D0012002900DE000990198D1F8D020401E012181406D
:20660800114202D00420029001E00020029002980EBD00B5ADF1140D0090002001900020CA
:2066280001900098D0F8D000029000200390039808281ADA029840080CD3B3480068006CFD
:2066480001460398884728B9039A01990120904008430190029840080290029828B103981A
:20666800401C039003980828E4DB019805B000BD08B5009000980068FCF7ACFB08BDADF144
:20668800080D01910090009A0199D2F8D4008843C2F8D40002B07047ADF1100D019100904A
:2066A800019820B300200290029808281FD20198400811D3009B029AD3F8D0100120904061
:2066C8008143C3F8D010009B029AD3F8D410012090400843C3F8D400019840080190019897
:2066E80028B10298401C029002980828DFD304B070470EB5019100900098406805F085FBB0
:206708000290029830B18E480068009AC068014650688847009B0198D3F8D0200121401E27
:2067280081401143C3F8D010009B0198D3F8D4100122401E82409143C3F8D41001990098D6
:20674800491E00EB8100806800F04060B0F1406F0ED17C480199009B02680098491EC91874
:20676800006891F88810D2F8A830002298470EE074480199009B02680098491EC918006854
:2067880091F88810D2F8A8304FF4005298475E48006841690198401E8847029830B1684811
:2067A8000068009A00680146506888470EBD0EB5019100900098406805F027FB0290029866
:2067C80030B15F480068009AC068014650688847009B0198D3F8D0200121401E81401143AD
:2067E800C3F8D010009B0198D3F8D4100122401E82409143C3F8D410009801990068491E5C
:20680800FCF7C8FA009801990068491EFCF7EAFA029830B14A480068009A0068014650686D
:2068280088470EBD0EB50191009001990098491E00EB8100806800F04060B0F1406F0ED125
:2068480040480199009B02680098491EC918006891F88810D2F8AC30002298470EE039488A
:206868000199009B02680098491EC918006891F88810D2F8AC304FF400529847224800681C
:2068880081690198401E8847009B0198D3F8D0100122401E82409143C3F8D010009B01987B
:2068A800D3F8D4100122401E82409143C3F8D4100EBD0EB501910090009801990068491EBA
:2068C800FCF7A0FA009801990068491EFCF772FA009B0198D3F8D0100122401E82409143CD
:2068E800C3F8D010009B0198D3F8D4100122401E82409143C3F8D4100EBDADF1080D01914C
:20690800009002B07047C046540000010EB501910090009801990068491EFCF73BFA0EBD42
