:20000000F87600209180010097800100998001009D8001009B8001009D80010000000000B6
:200020000000000000000000000000009D8001009D800100000000009D800100B17701003D
:200040009D8001009D8001009D8001009D8001009D8001009D8001009D8001009D800100B0
:200060009D8001009D8001009D8001009D8001009D8001009D8001009D8001009D80010090
:200080009D8001009D8001009D8001009D8001009D8001009D8001009D8001009D80010070
:2000A0009D8001009D8001009D8001009D8001009D8001009D8001009D8001009D80010050
:2000C0009D800100B97701009D8001009D8001009D8001009D800100F57701009D800100CE
:2000E0009D8001009D800100ED7701009D8001009D8001009D8001009D8001009D800100C9
:200100009D8001009D8001009D8001009D8001009D8001009D8001009D8001009D800100EF
:20012000D37701009D8001009D8001009D8001009D8001009D8001009D8001009D800100A2
:200140009D8001009D8001009D8001009D80010000000000000000009D8001009D800100EB
:200160009D8001009D800100000000009D8001009D8001009D8001009D8001009D800100AD
:200180009D8001009D8001009D8001009D8001009D8001009D8001009D8001009D8001006F
:2001A0009D8001009D8001009D8001009D8001009D8001009D8001009D8001009D8001004F
:2001C0009D8001009D8001009D8001009D8001009D8001009D8001009D8001009D8001002F
:2001E0009D8001009D8001009D8001009D8001009D8001009D8001009D8001009D8001000F
:080200009D80010000000000D8
:20020800ADF1080DADF8041000900020ADF806000020ADF8060009E00098BDF80610085C94
:2002280050B1BDF80600401CADF80600BDF80400BDF806108842EFDCBDF8060002B07047B6
:2002480000B5ADF11C0D0191009059490B2204A816F03AFC019802900098002807D50298E0
:20026800411C02912D210170009840420090009803900298401C029003990A2091FBF0F038
:20028800039003980028F4D10298002101700098029A0A2390FBF3F1521E59430292401A45
:2002A8006844007C107000990A2091FBF0F0009000980028EBD1019807B000BDADF1100D8B
:2002C800ADF8041000900020ADF806000020ADF808000020ADF80A000020ADF80C00002075
:2002E800ADF80E000020ADF80A0010E00098BDF90A10085C88B10098BDF90A10085C2E285D
:2003080000D10AE0BDF90A00401CADF80A00BDF80400BDF90A108842E8DCBDF90A00401E1A
:20032800ADF80A000020ADF80E00BDF90A00002839D40098BDF90A10085C3038ADF808005D
:20034800BDF90800002820D4BDF9080009281CDC0020ADF80C000BE0BDF90810480000EB17
:20036800C100ADF80800BDF80C00401CADF80C00BDF80E00BDF80C108842EDDCBDF9081044
:20038800BDF806004018ADF80600BDF80E00401CADF80E00BDF90A00401EADF80A00BDF942
:2003A8000A000028C5D5BDF8060004B07047C046409B010008B58DF801108DF80000C2E0E7
:2003C8009DF8010028B1724800680146ACA08847DCE06F4800680146AEA08847D6E09DF898
:2003E800010028B16A4800680146AFA08847CDE0674800680146B1A08847C7E09DF8010034
:2004080028B1634800680146B1A08847BEE0604800680146B2A08847B8E09DF8010028B164
:200428005B4800680146B2A08847AFE0584800680146B5A08847A9E09DF8010028B15448AB
:2004480000680146B6A08847A0E0514800680146B8A088479AE09DF8010028B14C480068EC
:200468000146B9A0884791E0494800680146BAA088478BE09DF8010028B145480068014615
:20048800B9A0884782E0424800680146BAA088477CE09DF8010028B13D4800680146BAA00F
:2004A800884773E03A4800680146BBA088476DE09DF8010028B1364800680146CAA0884795
:2004C80064E0334800680146CBA088475EE09DF8010028B12E4800680146CBA0884755E02B
:2004E8002B4800680146CCA088474FE09DF8010028B1274800680146CBA0884746E024480F
:2005080000680146CCA0884740E09DF8010028B11F4800680146CCA0884737E01C48006826
:200528000146CDA0884731E09DF8010028B1184800680146CCA0884728E015480068014652
:20054800CDA0884722E09DF800000C281ED802A151F820008746C046C9030000E703000001
:200568000504000023040000410400005F0400007D0400009B040000B9040000D7040000E3
:20058800F5040000130500003105000008BDC046204A002008B58DF800004DE09148006807
:2005A8000146B9A0884769E08E4800680146BBA0884763E08B4800680146BDA088475DE09E
:2005C800884800680146BEA0884757E0854800680146C1A0884751E0824800680146C3A077
:2005E80088474BE07F4800680146C4A0884745E07C4800680146C5A088473FE0794800683C
:200608000146E9A0884739E0764800680146EAA0884733E0734800680146EBA088472DE070
:20062800704800680146ECA0884727E06D4800680146EDA0884721E09DF800000C281DD86A
:2006480001A151F820008746A5050000B1050000BD050000C9050000D5050000E10500000A
:20066800ED050000F905000005060000110600001D060000290600003506000008BDC04608
:200688004D4F44453A5041524B494E473A41434B5000C0464D4F44453A5041524B494E471D
:2006A8003A4E41434B00C0464D4F44453A4D41494E54454E3A41434B5000C0464D4F4445E6
:2006C8003A4D41494E54454E3A4E41434B00C0464D4F44453A4445504F3A41434B5000C0CF
:2006E8004D4F44453A4445504F3A4E41434B00C04D4F44453A435245574348414E47453AE4
:2007080041434B5000C046C04D4F44453A435245574348414E47453A4E41434B00C046C099
:200728004D4F44453A5345435552453A41434B5000C046C04D4F44453A5345435552453A0C
:200748004E41434B00C046C04D4F44453A5332533A41434B5000C0464D4F44453A533253E1
:200768003A4E41434B00C0464D4F44453A525442313A41434B5000C04D4F44453A5254423C
:20078800313A4E41434B00C04D4F44453A525442323A41434B5000C04D4F44453A52544230
:2007A800323A4E41434B00C00EB5ADF804100090D248B6A10A6802604A684260097A01724D
:2007C800B548BDF80420009916F07EF9CB4ABDF80400002109301154024800680146C74890
:2007E80088470EBD204A00204D4F44453A525442333A41434B5000C04D4F44453A525442F3
:20080800333A4E41434B00C04D4F44453A525442343A41434B5000C04D4F44453A525442AB
:20082800343A4E41434B00C04D4F44453A525442353A41434B5000C04D4F44453A52544289
:20084800353A4E41434B00C04D4F44453A525442363A41434B5000C04D4F44453A52544267
:20086800363A4E41434B00C04D4F44453A534F533A41434B5000C0464D4F44453A534F531C
:200888003A4E41434B00C0464D4F44453A5041524B494E473A4348454300C0464D4F444510
:2008A8003A4D41494E54454E3A4348454300C0464D4F44453A4445504F3A4348454300C003
:2008C8004D4F44453A435245574348414E47453A4348454300C046C04D4F44453A5345438D
:2008E8005552453A4348454300C046C04D4F44453A5332533A4348454300C0464D4F444542
:200908003A525442313A4348454300C04D4F44453A525442323A4348454300C00EB5019293
:20092800ADF8081000900020ADF80A00734B57A1BDF80A000A68C01802604A684260097A9B
:200948000172BDF80A000930ADF80A006B4BBDF80A000099BDF80820C01816F0B5F8BDF84A
:200968000810BDF80A004018ADF80A00634ABDF80A003B211154BDF80A00401CADF80A009A
:200988005E49BDF80A00019A4018BCA117F05CF9BDF80A100818ADF80A00B74800680146F1
:2009A800564888470EBDC0464D4F44453A525442333A4348454300C04D4F44453A52544223
:2009C800343A4348454300C04D4F44453A525442353A4348454300C04D4F44453A525442FE
:2009E800363A4348454300C04D4F44453A534F533A434845430008B58DF800009DF8000034
:200A080028B19D48006801469DA0884704E09A48006801469DA0884708BD08B58DF80000CD
:200A28000BE09548006801469CA088470CE09248006801469DA0884706E09DF80000002808
:200A4800EFD0401EF3D0FFE708BD08B58DF8000011E0894800680146C1A0884714E086485E
:200A680000680146C2A088470EE0834800680146C3A0884708E09DF800000028E9D0401E38
:200A8800EDD0401EF1D0FFE708BDC0464D4F44453A534F533A00C046113A00200EB500906F
:200AA80000208DF80800009801901448B8A1092217F060F900208DF808009DF8080007289F
:200AC8002FDA01989DF80810085C40B19DF808300A4A0920312100EB4300115407E09DF8BF
:200AE8000830064A0920302100EB430011549DF80800C0F1070001280ADD01E0083A0020B1
:200B08009DF80830A94A0A202C2100EB430011549DF80800401C8DF808009DF808000728B1
:200B2800CFDB9DF80830A14A0820002100EB430011545148006801469C4888470EBD0EB5E6
:200B4800009000208DF8080000980190974893A10D2217F00FF900208DF808009DF808008C
:200B680007282CDA01989DF80810085C40B19DF808308E4A0D20302100EB4300115407E000
:200B88009DF80830894A0D20312100EB430011549DF80800C0F10700012807DD9DF808306C
:200BA800824A0E202C2100EB430011549DF80800401C8DF808009DF808000728D2DB9DF8BF
:200BC80008307A4A0C20002100EB430011542A4800680146754888470EBD0EB50090002046
:200BE8008DF80800009801907048C3A10C2217F0C1F800208DF808009DF8080004282CDAB1
:200C080001989DF80810085C40B19DF80830674A0C20312100EB4300115407E09DF80830EE
:200C2800624A0C20302100EB430011549DF80800C0F10400012807DD9DF808305B4A0D20F2
:200C48002C2100EB430011549DF80800401C8DF808009DF808000428D2DB9DF80830534A46
:200C68000B20002100EB430011540348006801464E4888470EBDC046204A0020256400C08A
:200C88005345543A444953543A4F4E005345543A444953543A4F464600C046C05345543AC0
:200CA800435245573A4E4F5400C046C05345543A444F4F52414C41524D3A50434C4F534543
:200CC80000C00EB5009000208DF80800009801903648A9A10B2217F04DF800208DF8080035
:200CE8009DF8080004282CDA01989DF80810085C40B19DF808302D4A0B20312100EB430093
:200D0800115407E09DF80830284A0B20302100EB430011549DF80800C0F10400012807DDD2
:200D28009DF80830214A0C202C2100EB430011549DF80800401C8DF808009DF80800042818
:200D4800D2DB9DF80830194A0A20002100EB43001154B44800680146144888470EBDC04629
:200D68005345543A454E47493A52454400C046C05345543A454E47493A4F524700C046C016
:200D88005345543A454E47493A47524500C046C05345543A444F4F523A00C0465345543A64
:200DA800444F4F524C4F434B3A00C046083A002008B58DF8000053E09A48006801469A4844
:200DC80088476FE09748006801469848884769E09448006801469648884763E091480068AB
:200DE8000146944888475DE08E48006801469248884757E08B48006801469048884751E0FD
:200E08008848006801468E4888474BE08548006801468C48884745E08248006801468A48EC
:200E280088473FE07F48006801468848884739E07C48006801468648884733E07948006842
:200E48000146844888472DE07648006801468248884727E07348006801466DA0884721E047
:200E68009DF800000C28F5D801A151F820008746C10D0000CD0D0000D90D0000E50D00007C
:200E8800F10D0000FD0D0000090E0000150E0000210E00002D0E0000390E0000450E000004
:200EA800510E000008BDADF1080D00905D490098086002B07047ADF1080D0090AB490098E5
:200EC800086002B07047ADF1080D009063490098086002B07047ADF1080D0090604900985D
:200EE800086002B07047ADF1080D0090A4490098086002B07047C0465345543A4352455723
:200F08005245473A00C0ADF1080D009055490098086002B07047ADF1080D00905249009831
:200F2800086002B07047ADF1080D00904F490098086002B07047ADF1080D00904C49009824
:200F4800086002B07047ADF1080D00908D490098086002B07047ADF1080D0090A949009869
:200F6800086002B07047ADF1080D009041490098086002B0704770475345543A4352455754
:200F880053543A000EB5009000208DF80400009800784D2812D1009840784F280ED10098C6
:200FA800807844280AD10098C078452806D1009800793A2802D1009800F0C2FB009800783B
:200FC80053280ED10098407845280AD100988078542806D10098C0783A2802D1009800F0A7
:200FE8004BF800980078422811D1009840784F280DD1009880784F2809D10098C078542878
:2010080005D11C48006810B11A48006880470EBD4D4F44453A4E4F4D4F44453A4E41434B91
:2010280000C046C0204A002088060000B0060000D8060000F80600002807000050070000B2
:201048007007000090070000F007000010080000300800005008000070080000244A0020D5
:20106800284A0020304A0020344A0020384A00203C4A00204C4A00200EB500900020ADF888
:20108800040000208DF8060000980079412840D10098407943283CD100988079432838D140
:2010A8000098C079302834D10098007A3A2830D10098407A3F281BD1AD4899A1092216F080
:2010C80059FE2A480068406A16F038FE02469E480B4696A116F0B8FD9A4800210170B14813
:2010E80000680146A248884725480068804710E0009802A909300FF05DF91C48006880EDEA
:20110800090AA848006801468AA0884701208DF8060000980079432845D100984079522813
:2011280041D10098807945283DD10098C079572839D10098007A3A2803D10098407A3F282E
:20114800FFD00098007A522815D10098407A452811D10098807A47280DD10098C07A3A2892
:2011680009D10098007B3F2805D101E0504A00200448006880470098007A532813D103E0D3
:201188002C4A0020404A00200098407A54280AD10098807A3A2806D10098C07A3F2802D187
:2011A80018480068804700980079442840F06E8100984079492840F03781009880794C284D
:2011C80044D10098C0794F2840D10098007A3A283CD10098407A3F2816D1654875A109228A
:2011E80016F0C8FD7648006857490069FFF728F85448002101706B48006801465C488847D4
:2012080024E0C046444A0020009805210930FEF7F7FFADF804000099BDF80420544809313B
:2012280016F0A8FDBDF80400514A0021115450486421FFF743F86249096808615948006845
:2012480001469EA0884701208DF80600009880794D2841D10098C07945283DD10098007A10
:201268003A2839D10098407A3F2813D14048A8A1092216F07FFD524800683349C068FEF744
:20128800DFFF3048002101704648006801463848884721E0009805210930FEF7B1FFADF890
:2012A80004000099BDF804203148093116F062FDBDF804002E4A002111542D486421FEF7F2
:2012C800FDFF3F490968C86036480068014693A0884701208DF806000098807953285BD1D6
:2012E8000098C079482857D10098007A3A2853D10098407A3F2829D11D488CA1092216F06F
:2013080039FD2F48006810498068FEF799FF0D4800210170234800680146154888473BE09A
:201328005345543A414343303A00C046252E316600C046C05345543A414343303A41434B72
:201348005000C046163A0020113A0020009805210930FEF755FFADF804000099BDF80420F9
:201368000348093116F006FDBDF8040002E0C046083A00209A4A0021115499486421FEF70F
:201388009DFF0F490968886006480068014690A0884701208DF8060000988079532843D130
:2013A80002E0C046204A00200098C07954283BD108E0C0465345543A44494C4F3A00C046DE
:2013C800504A00200098007A3A282DD10098407A532814D10098807A542810D10098C07A66
:2013E80041280CD10098007B522808D10098407B542804D19D480068014601208847009879
:20140800407A532810D10098807A54280CD10098C07A4F2808D10098007B502804D1934866
:201428000068014600208847009840794F282DD1009880794F2829D10098C079522825D1FD
:201448000098007A3A2806D10098407A3F2802D1B348006880470098007A4C2816D100987E
:20146800407A4F2812D10098807A43280ED10098C07A4B280AD10098007B3A2806D1009870
:20148800407B3F2802D1A7480068804700980079522870D10098407954286CD100988079CA
:2014A800422868D10098C0793A2864D10098007A3F280AD19748006880475CE05345543A55
:2014C80044494C4F3A41434B50009748006801467AA0884700208DF8080000208DF80800B2
:2014E8009DF808000E2843DA9DF808200099082000EB4200085C31281DD18C4801689DF8CC
:2015080008300A8D012098401043088527E0C0465345543A44494D453A00C0465345543A63
:2015280044494D453A41434B5000C0465345543A444953483A00794864A116F085FB764A91
:20154800754910807548098815F014FD774802689DF80830118D01209840814311859DF855
:201568000800401C8DF808009DF808000E28BBDB01208DF8060000980079562840F094808A
:2015880000984079452848D100988079482844D10098C0794E2840D10098007A3A283CD17D
:2015A8000098407A3F281DD10D484CA1092216F0E1FB5E495E480968052216F0DBFB5D48C7
:2015C800002101705848006801460548884724E05345543A444953483A41434B5000C04655
:2015E800083A0020009805210930FEF709FEADF804004E480099BDF804200068093116F035
:20160800B9FB4A4800680021417147480068014635A0884701208DF80600009840794B28EF
:2016280042D10098807945283ED10098C07959283AD10098007A3A2836D10098407A3F28F1
:2016480016D13E482CA1092216F094FB3748016837480522143116F08DFB36480021017017
:20166800314800680146354888471DE0344A0020009805210930FEF7C3FDADF804002B488B
:201688000099BDF8042000680931143016F072FB264800680021417623480068014619A0F6
:2016A800884701208DF806009DF8060028B122481E4A00680146106888470EBD5345543A7A
:2016C8005254423A41434B5000C046C03C7461626C65745F6170703E20302C005345543AC3
:2016E8005645484E3A00C0465345543A5645484E3A41434B5000C0465345543A564B455956
:201708003A00C0465345543A564B45593A41434B5000C046484A0020D8740020947000207B
:20172800384A00203C4A0020204A0020504A0020113A0020163A0020304A0020083A00203E
:201748000EB5009000208DF80400009800784D280FD1009840784F280BD100988078442881
:2017680007D10098C078452803D1009800793A2802D001208DF804009DF8040030B900986F
:2017880040793F2802D1009800F06FF99DF80400002840F0EF8000984079502820D10098AC
:2017A800807941281CD10098C079522818D10098007A4B2814D10098407A492810D10098F8
:2017C800807A4E280CD10098C07A472808D10098007B3A2804D1009900200D3100F008F968
:2017E800009840794D2820D10098807941281CD10098C079492818D10098007A4E2814D1AB
:201808000098407A542810D10098807A45280CD10098C07A4E2808D10098007B3A2804D1CA
:20182800009901200D3100F0E3F800984079442814D100988079452810D10098C079502813
:201848000CD10098007A4F2808D10098407A3A2804D1009902200A3100F0CAF800984079BF
:2018680043282CD100988079522828D10098C079452824D10098007A572820D10098407AED
:2018880043281CD10098807A482818D10098C07A412814D10098007B4E2810D10098407B20
:2018A80047280CD10098807B452808D10098C07B3A2804D100990320103100F099F80098DB
:2018C800407953281CD100988079452818D10098C079432814D10098007A552810D10098CF
:2018E800407A52280CD10098807A452808D10098C07A3A2804D1009904200C3100F078F894
:2019080000984079532810D10098807932280CD10098C079532808D10098007A3A2804D1DC
:2019280000990520093100F063F80098407952280BD100988079542807D10098C079422895
:2019480003D10098083000F016F800984079532810D1009880794F280CD10098C0795328FF
:2019680008D10098007A3A2804D100990C20093100F03EF80EBD08B50090009840783A284E
:2019880035D100980078312804D100990620891C00F02EF800980078322804D10099072082
:2019A800891C00F025F800980078332804D100990820891C00F01CF800980078342804D182
:2019C80000990920891C00F013F800980078352804D100990A20891C00F00AF800980078F1
:2019E800362804D100990B20891C00F001F808BD0EB50091ADF80400009800783F2805D14B
:201A0800214800680146BDF80400884700980078432812D10098407848280ED10098807891
:201A280045280AD10098C078502806D1174801689DF804000A4601219047009800784E2807
:201A480012D10098407841280ED10098807843280AD10098C0784B2806D10C4801689DF8C1
:201A680004000A46002190470EBD0EB5009000208DF8040006480068804705480068804752
:201A88008DF804000EBDC046244A0020284A00202C4A0020ADF1180D03930292019100901F
:201AA8000098807B049000999DF8040088730698012805D10099029A9DF80C00505404E0CF
:201AC8000099029ABDF80C0050529DF810000099887306B07047ADF1180D03930292019141
:201AE80000900098807B8DF8140000999DF8040088730398012804D100980299085C049031
:201B080003E000980299085A04909DF8140000998873049806B07047ADF1080D0090009890
:201B2800401C017841F00201017002B07047ADF1080D8DF8041000909DF8040030B10098CC
:201B4800401C017841F00801017005E00098401C017821F00801017002B07047ADF1080D04
:201B68008DF8041000909DF8040030B10098401C017841F02001017005E00098401C017838
:201B880021F02001017002B07047ADF1080D8DF8041000909DF8040030B10098401C01786E
:201BA80041F00401017005E00098401C017821F00401017002B07047ADF1080D0090009859
:201BC8004078400901D302200FE0009890F86000C00901D3012008E0009890F860008009E8
:201BE80001D3002001E04FF0004002B07047ADF1080D009000984078400901D3022000E06E
:201C0800012002B07047ADF1080D01910090019810F0FF0F07D0009801990B30027801F007
:201C2800FF018A4302700198400A03D300990020C1F808040198800A02D39B4900200860C2
:201C480002B07047ADF1080D01910090019810F0FF0F05D0009801990B3002781143017016
:201C68000198400A03D300990120C1F808040198800A02D38C490120086002B07047ADF1C7
:201C8800080D00900098807A01900098D0F80C0440080AD3019840F480700190009800F207
:201CA8000C41087840F001000870A6480068400808D3019840F400700190A249086840F0D4
:201CC80001000860019802B07047ADF1080D019100900098019A801D01886FF31F429143CC
:201CE8000180A8490098019B08300288194022EA1142028002B07047ADF1080D01910090FC
:201D080000990198891D0A886FF31F40104308809C490098019B08300288194042EA114202
:201D2800028002B07047ADF1080D009000984088019000990198898840EA014001900198A4
:201D480002B07047ADF1080D0090AF49AD480A68AE491040814202D13C2001900BE0AA49C8
:201D6800A8480A68AA491040814202D13A20019001E000200190019802B070470EB501914C
:201D880000900098FFF7DEFF0290019902980EF006FD02980EF099FD0EBD0EB50090009895
:201DA800FFF7D0FF019001980EF0C8FD01980EF01FFD0EBDADF1100D0191009001990098DC
:201DC8004018B0F8020102900199009840180299B0F8060141EA00410291029804B070478E
:201DE800ADF1100D029201910090019838B90098029A00F5817001789143017012E001997C
:201E08000098029A401800F5817001789143017001990098029A401800F58370017821EAF8
:201E28001241017004B07047ADF1100D0292019100900198F0B90298400806D3009800F570
:201E48008170017841F0400101700298400906D3009800F58170017841F0800101700298BD
:201E6800C0081ED3009800F58170017821F00401017016E001990098401800F58170029922
:201E8800027801F024018A43027001990098029A401800F58370017802F4980221EA1241F6
:201EA800017004B07047C04648040540ADF1180D02938DF8102001910090002003909DF830
:201EC800100058B1019810B90220039006E0029810B90220039001E001200390019860B985
:201EE80000980399009A90F8030120F00600014341F0040182F8031122E0029880B90199F3
:201F08000098019B009A401890F807010399D21820F00600014341F0040182F807110FE06C
:201F280001990098019B009A401890F803010399D21820F00300014341F0020182F80311AE
:201F480006B070474C040540ADF1100D0292019100900298800B09D301990098401800F586
:201F68008170017841F04001017008E001990098401800F58370017841F08001017004B062
:201F88007047C0460000FEFFADF1100D8DF80820019100909DF8080028B14F49087820F057
:201FA8000800087004E04C49087840F00800087004B07047ADF1100D02920191009001987B
:201FC80038B9009800F58170017841F06001017016E00298B0F5005F09D101990098401816
:201FE80000F58170017841F01001017008E001990098401800F58370017841F02001017031
:2020080004B070470000FF7000E00F400000051000000A10ADF1100D029201910090019876
:2020280038B9009800F58170017821F00401017028E00298B0F5005F12D101990098401816
:2020480000F58170017821F03001017001990098401800F58170017841F04001017011E0A9
:2020680001990098401800F58370017821F06001017001990098401800F58370017841F06E
:202088008001017004B07047ADF1080D00900098401C017841F04001017002B07047ADF141
:2020A800080D00900098401C017821F04001017002B07047ADF1080D019100909DF804006C
:2020C8000099087002B07047ADF1080D00900098007802B07047C04603010540ADF1180DB0
:2020E80003930292019100900198C8B99DF80C00009981F80B010798C00B04D30099402079
:2021080081F80A01B5E00798400B04D30099802081F80A01ADE00099C02081F80A01A8E00E
:20212800069804900798C00B04D3049840F0400004901EE00798400B04D3049840F0800079
:20214800049016E0049840F0C000049011E0049840F02000049019E0049840F010000490F3
:2021680014E0049840F0300004900FE0049804900CE0079810F44070EED0B0F58070E6D06C
:20218800B0F58070EDD0B0F58070EFD00798800B34D3019900989DF81020401880F80A216E
:2021A800009801999DF80C20401880F80B2100980199BDF808204018A0F800210020049054
:2021C8000798400803D3049840F0800004900798400904D3049840F01400049006E00798A2
:2021E800000903D3049840F010000490019900989DF81020401880F803213AE00199009851
:202208009DF81020401880F80C21009801999DF80C20401880F80D2100980199BDF80820F4
:202228004018A0F80421002004900798C00803D3049840F0800004900798800803D3049817
:2022480040F0400004900798400904D3049840F02800049006E00798000903D3049840F0FB
:2022680020000490019900989DF81020401880F8072106B07047ADF1180D029201910090CD
:202288000298C00B02D34020049007E00298400B02D38020049001E0C0200490019828B964
:2022A8009DF81000009981F80A012DE00298800B15D3019900984018B0F80A0120F0C0002D
:2022C8000390049803990843039000980199401800F58570039902881143018014E0019950
:2022E80000984018B0F80C0120F0C0000390049803990843039000980199401800F5867043
:20230800039902881143018006B07047ADF1180D03930292019100900398800B34D3019977
:202328000098BDF808204018A0F80021002004900398400803D3049840F080000490039827
:20234800400904D3049840F01400049006E00398000903D3049840F010000490039810F472
:20236800407F03D1049840F040000490019900989DF81020401880F803210098019A4021A3
:20238800801880F8021138E001990098BDF808204018A0F80421002004900398C00801D3EB
:2023A800802004900398400904D3049840F02800049006E00398000903D3049840F0200052
:2023C80004900398800903D3049840F010000490039810F4407F03D1049840F04000049025
:2023E800019900989DF81020401880F807210098019A8021801880F8061106B07047ADF1E0
:20240800180D039302920191009003980068800B36D303984FF400510160019A009802994E
:202428008018B0F80001086001990098401890F8030104900498000A04D30399086840F088
:2024480001000860049840090DD30498C00805D30399086840F01000086004E00399086866
:2024680040F0080008600498C00903D30398016801603AE00399086840F48070086034E04E
:20248800039800210160019A009802998018B0F80401086001990098401890F807010490EE
:2024A8000498000A04D30399086840F004000860049880090DD30498000905D30399086861
:2024C80040F01000086004E00399086840F0080008600498C00903D303980168016004E038
:2024E8000399086840F48070086006B0704700B5ADF1140D04930392029101900698800BE2
:2025080013D3012000900298049B010901986222FFF7C0FA0220009003980299C3080198C0
:2025280064220909FFF7B6FA12E0012000900298049B010901986322FFF7ACFA0220009003
:2025480003980299C308019866220909FFF7A2FA05B000BD00B5ADF1140D0393029201910B
:2025680000900698800B13D301980109009864220223FFF7B0FA0299C000086001980109C8
:20258800009862220123FFF7A6FA0399086012E001980109009866220223FFF79CFA029958
:2025A800C000086001980109009863220123FFF792FA0399086005B000BDADF1100D0292C0
:2025C800019100900298800B1DD301990098401890F8030120F0840003900298400903D3C6
:2025E800039840F0040003900298400803D3039840F080000390019900989DF80C20401890
:2026080080F8032123E001990098401890F8070120F0C80003900298400903D3039840F00A
:20262800080003900298C00803D3039840F0800003900298800803D3039840F0400003904B
:20264800019900989DF80C20401880F8072104B07047ADF1100D0292019100900298800B86
:2026680009D301990098401800F20311087840F01000087008E001990098401800F2071132
:20268800087840F02000087004B07047ADF1100D0292019100900298800B09D301990098DB
:2026A800401800F20311087820F01000087008E001990098401800F20711087820F0200070
:2026C800087004B07047ADF1100D01910090019818B94FF48170029003E0019800F583709E
:2026E800029000980299085A400801D2002004E0019900984018B0F8080104B07047ADF148
:20270800200D0393029201910090019818B94FF48170049003E0019800F583700490009876
:202728000499085A400805D20398002101604FF0FF3027E0019900984018B0F80801059011
:20274800039805990068884201D9059801E00398006805900399059808600199009800EB58
:20276800910020300690059858B102980699421C0292097801700598401E059005980028C2
:20278800F3D1002008B07047ADF1100D8DF8082001910090019858B99DF8080008B108202C
:2027A80000E00020009940F0400081F8020108E001990098401800F58370017821F00101A6
:2027C800017004B07047ADF1080D01910090019838B9009800F58170017821F0010101703B
:2027E80008E001990098401800F58370017821F00101017002B07047ADF1180D0393029224
:2028080001910090019818B902208DF8140002E001208DF814000199009840189DF814108A
:2028280090F80201014202D04FF0FF3014E00199009800EB910020300490039858B10298BE
:2028480010F8011B0290049801700398401E039003980028F3D1002006B07047ADF1100D52
:20286800029201910090019860B9009890F80201800802D34FF0FF301AE0029800F0FF0077
:2028880003900DE001990098401890F80201400802D34FF0FF300BE00298C0F3072003901E
:2028A800019900989DF80C20401880F80221002004B07047ADF1100D029201910090019895
:2028C80050B9009890F8020110F0030F28D00099012081F8030123E00298800B10D30199DE
:2028E8000098401890F80201400819D301990098401800F58170017841F0080101700FE09E
:2029080001990098401890F80601400808D301990098401800F58370017841F010010170D5
:2029280004B07047ADF1100D01910090019818B94FF48170029003E0019800F58370029021
:202948000098029920220A5404B07047ADF1100D01910090019818B94FF48170029003E041
:20296800019800F583700290029900984018017821F02001017004B07047ADF1080D0090E7
:202988000099602081F8020102B07047ADF1100D03930292019100900398800B08D3019A8E
:2029A80000989DF8081000EB520080F8801007E0019A00989DF8081000EB520080F8841075
:2029C80004B07047ADF1100D0292019100900298800B06D30199009800EB510090F880009F
:2029E80005E00199009800EB510090F8840004B07047ADF1100D0393029201910090039863
:202A0800800B08D3019A0098BDF8081000EB5200A0F8821007E0019A0098BDF8081000EB0F
:202A28005200A0F88610019898B90398400B04D30099802081F80A010BE00398C00B04D382
:202A48000099402081F80A0103E00099C02081F80A0104B07047ADF1100D02920191009035
:202A68000298800B06D30199009800EB510090F8820005E00199009800EB510090F8860077
:202A880004B07047ADF1080D0191009001980099000CC1F83004B8480099009BB1F80024C2
:202AA800019910400843A3F8000402B07047ADF1080D0090009800F58060018841F0100156
:202AC800018002B07047ADF1080D0090009800F58060018821F01001018002B07047ADF121
:202AE800080D0090009800F58060018841F00401018002B07047ADF1080D0090009800F543
:202B08008060018821F00401018002B07047ADF1080D00900098808902B07047ADF1080D44
:202B28008DF8041000909DF8040030B100986030017841F00101017005E00098603001781F
:202B480021F00101017002B07047ADF1080D019100900199009800EB9100203002B0704744
:202B6800ADF1080D0090009890F8600000F09D0002B07047ADF1100D029201910090029988
:202B88000F2089008840039000980399D0F8500488430390029A0198039992000009904030
:202BA8000843039000990398C1F8500404B07047ADF1080D00900099022081F81C0402B03A
:202BC8007047ADF1080D00900099032081F81C0402B07047ADF1080D00900099002081F8C0
:202BE8001C0402B07047ADF1080D0191009001980099C1F81C0402B07047ADF1080D0090B8
:202C08000098401C017841F00101017002B07047ADF1080D00900098401C017821F001016F
:202C2800017002B07047ADF1100D02920191009001980099029A0009401E01EB8001C1F8E6
:202C4800042304B07047ADF1080D0090009890F8780000F00F0002B07047ADF1080D009054
:202C68000098D0F8C00F00F00F0002B07047ADF1100D02920191009001980299009A401E18
:202C88000143C2F8C81F04B07047ADF1080D009000990020C1F8C80F02B07047ADF1080D34
:202CA800019100900199009800EB011000F50170016841F00801016002B07047ADF1080D36
:202CC800019100900199009800EB011000F50170016821F00801016002B07047ADF1080D36
:202CE80000900098D0F8000202B07047ADF1080D019100900199009800EB011000F5017008
:202D0800016841F00101016002B07047ADF1080D019100900199009800EB011000F50170DC
:202D2800016821F00101016002B07047ADF1100D0393029201910090019A0098002100EBFF
:202D48000210C0F80412019B00990298039A01EB03111043C1F8040204B07047ADF1080DEF
:202D6800019100900199009800EB0110D0F8040200F4807002B070479CFCFFFFADF1100D8F
:202D8800029201910090029800F48070029001990098029A00EB011000F5017001689143F8
:202DA800016004B07047ADF1100D029201910090019A0098029900EB0210C0F8081204B07D
:202DC8007047ADF1080D019100900199009800EB0110D0F8080202B07047ADF1100D0292A7
:202DE80001910090019A0098029900EB0210C0F80C1204B07047ADF1080D0191009001992E
:202E0800009800EB0110D0F80C0202B07047ADF1080D00900098D0F87900000902B0704749
:202E2800ADF1080D019100909DF80400009981F8700002B07047ADF1080D0090009800F660
:202E4800C471086840F48030086002B07047ADF1080D0090009800F6C471086820F48030D6
:202E6800086002B07047ADF1080D8DF8041000909DF80400009981F875000099052081F846
:202E88007600009890F876008008FAD30099002081F87600009890F8740002B07047ADF186
:202EA800080D8DF805208DF8041000909DF80400009981F875009DF80500009981F87400E2
:202EC8000099012081F87600009890F876008008FAD30099002081F8760002B07047ADF1A7
:202EE800100D0292019100909DF80400009981F865030098B0F8600320F47040039002994F
:202F08000398090940EA013003900099BDF80C00A1F86003009800F26231087840F00100EA
:202F2800087004B07047ADF1100D02920191009001980299009B4B223238B0FBF2F041EAD7
:202F48000011A3F8601304B07047ADF1080D0090009800F26231087840F00200087002B0A3
:202F68007047ADF1080D0090009800F26231087840F00200087002B07047ADF1080D01915A
:202F880000909DF80400009981F8620302B07047ADF1080D0090009800F26231087840F010
:202FA8000D00087002B07047ADF1080D0090009800F26231087820F00100087002B0704749
:202FC800ADF1080D00900098B0F8600300F00F0002B07047ADF1080D00900098B0F86003B5
:202FE80000F47040001301900198000102B07047ADF1080D00900098B0F86003400A01D37A
:20300800012000E0002002B07047ADF1080D0090009890F8640302B07047ADF1080D0191A6
:203028000090009800F263310A7801981043087002B07047ADF1080D019100900098019A83
:2030480000F2633108789043087002B070477047ADF1080D01910090BA493C200860BB4957
:20306800B9480A68BA491040814202D1B5493A200860C54900200860C44901200860C449F3
:2030880001200860C34900200870C34900200870C24900200870C2490020087002B07047A8
:2030A80000B5ADF1140D029201910090BD4901980860BD490298086000980199FFF7C8FFE0
:2030C800BA480078032802D1B84900200870B748007802286AD0B648006840690146B548A9
:2030E8008847B348006880690146B248884703F0B8F8CA48006838B9C849AF4809684FF4D3
:203108004072FFF7B4FD06E0C449AB4809684FF40072FFF7ACFDC548006880B1A648FFF719
:203128008AFEC2480068400904D3A348002113F0A1FA07E0A048012113F09CFA02E09E4871
:20314800FFF785FE99480078052806D1CB480068D0F8DC109848884708E09448007828B996
:20316800C6480068D0F8EC10934888478F4900200870C348006840080ED38F480C21FFF75D
:20318800FCFE8D483621FFF748FF8B48FFF700FF7D490120086009E08748FFF705FF86482D
:2031A8000021FFF7EAFE784900200860002003F0CDFFC149086012F0EDFE754801990068C2
:2031C8008968401E51F820000390039840680068406804900498C07900F0C000C02807D170
:2031E8006C4991F8240040F0010081F8240006E0684991F8240020F0010081F824006B48F2
:203208000078022827D09D480068D0F8C8106A4888479A480068D0F8D4106748884797484C
:203228000068D0F8C42064482F21904793480068D0F8D02060484FF0FF3190478F48006877
:20324800C06801465C488847B04800683D4A006801461068884705B000BD08B50090AB48F5
:203268000068384AC06801461068884712F0B1FE4C490020086081480068D0F8C0204E4869
:2032880040F2FF3190477D480068D0F8CC204A484FF0FF31904779480068006901464648CD
:2032A800884776480068D0F8C8104348884773480068D0F8D4104048884702F0D8FF3C48A4
:2032C8000068C06901463B48884708BDADF1100D0292019100902F4903200870A2490198EF
:2032E8000860A24902980860A1490298086004B070470EB50292019100909B4901980860BC
:203308009B4902980860994902980860002000F0FFFD0EBDADF1080D019100901C49019831
:20332800086002B0704708B5009054480068C069034621480021002298471649052008706A
:2033480008BDC046343C00200000FF7000E00F4000000A10ADF1080D8DF80410009010491D
:20336800012008700B4991F8240020F0010081F82400084A9DF8040092F82410084382F88F
:20338800240002B07047C0463C3C0020FC3B0020003C0020F43B0020183C00202C3C0020FC
:2033A8002B3C0020B44E0020383C00208874002044000001002800F000000540ADF1180D47
:2033C80002920191009001208DF8100047E00298039003984068400805D38849C86C40F08D
:2033E8000100C86445E08549C86C20F00100C8643FE00298804A0068B0FBF2F15143401ACD
:2034080003D000208DF8100033E002987A497D4A0068B0FBF1F010602BE0C046CC74002010
:20342800029802490068086023E0C046B04E0020734901200870714991F8240020F00100DB
:2034480081F824006D4A029892F824100078084382F824000DE000208DF8100009E0019833
:20346800401EB4D0801EC4D0401ED9D0401EDFD0F1E79DF8100006B07047C04650000001DB
:20348800403C0020ADF1100D02920191009001208DF80C0008E0AD4802990068086007E036
:2034A80000208DF80C0003E00198001FF3D0F7E79DF80C0004B07047303C002008B5009032
:2034C800A348FFF795FD20B1A148FFF74AFD012000E0002008BD08B500909E480078800861
:2034E80011D39D48007870B9B449002008709A4901200870B2480068D0F890209448012171
:203508009047012000E0002008BDC0464800000108B500909048007820B3384991F83900E4
:20352800401C81F83900A54800780A2806D1A4480068D0F890208648002190479F48007816
:2035480014280FD18449002008709E4800680068006A38B19B48006800689B4A006A014690
:203568001068884708BDC0460C3C0020143C0020103C00201FB5009094480290402001902A
:203588008F480068914A806A04467148002101ABA047019800282DD00298007810F0600F29
:2035A80012D0884800680068406848B1854800680168854849680A4600680299904719E0A1
:2035C8000020FFF7B0FE15E0029840780D280ED20298AC49407851F8200040B10298A94996
:2035E800407851F8202005480299904702E00020FFF799FE00901FBD00879303F43B00205C
:203608002B3C0020CC7400201FB500906C480068806B02464E4800219047019083E00098EE
:20362800002101700098406800080CD30099486820F0004048606248006800998068496844
:20364800024643489047019840087CD30020FFF791FF78E00198400875D30020FFF78AFFC2
:2036680071E0002000F054FC6DE0002000F0A2FC69E00098C069402802D94020029002E075
:203688000098C06902904E48009900688A69806A04462F4802AB0021A0470098C0694028BC
:2036A8001FD2009804210170464800680068006970B10098006A58B14248006800990268FB
:2036C800096A41481269006890470098002101623B480068806903461D480021012298476B
:2036E80007E0374800688069034619480021002298470099029A8869801888610099029A63
:20370800C869801AC8611EE00198C0081BD32C480068406A03460E4800210422984700987D
:20372800002101700FE000980078002892D0401E97D0401E99D0401E9BD0401E3FF46FAF62
:20374800401EE1D0FFE700901FBDC046B04E002000000540183C00202C3C00200EB5009048
:20376800009991F8240020F0020081F824000099002081F83800134800680068806938B1E5
:20378800104800680068104A806901461068884700980099C068886000200190019808286D
:2037A8000AD2019A00980021801801740198401C019001980828F4D30EBDC0462D3C002054
:2037C80050000001B44E0020383C00206449002000B5ADF1140D0191009000980390B9484B
:2037E800006880690346B84800220021984734E0039890F82400ADF8100038E00020ADF818
:20380800100034E00198808800F07F00ADF81200BDF8120018B1BDF81200082803DB002030
:20382800FFF781FD2CE001988088000A01D3002000E0012002900299BDF81200039AC1EB23
:20384800C101401E5218121892F82500ADF810000DE00020FFF767FD12E00198007810F0DE
:203868001F00C5D0401EC9D0401ECBD0F1E703980221C161039904A88861002000F048FB60
:2038880005B000BDF897010000B5ADF1140D01910090009802908B480068806903468A481F
:2038A80001220021984758E001984088400807D3029991F8240020F0020081F8240054E0F7
:2038C8000020FFF730FD50E00198808800F07F00ADF81000BDF8100018B1BDF81000082825
:2038E80003DD0020FFF71FFD3FE00198408860BB01988088000A01D3002000E001200390E0
:203908000399BDF81000029AC1EBC101401E52180021121882F82510039858B969480068AD
:20392800BDF81010006A034667484FF40052090198471AE063480068BDF81010006A034635
:2039480061480022090198470FE00020FFF7EBFC0BE00020FFF7E7FC07E00198007810F0E3
:203968001F00A1D0801EAFD0F3E705B000BD00B5ADF1140D01910090009802905148006885
:2039880080690346504801220021984740E001984088400807D3029991F8240040F0020015
:2039A80081F824003CE00020FFF7BDFC38E00198808800F07F00ADF81000BDF8100018B10C
:2039C800BDF81000082803DB0020FFF7ACFC27E001984088A0B901988088000A01D30020EE
:2039E80000E0012003900399BDF81000029AC1EBC101401E52180121121882F825100FE00E
:203A08000020FFF790FC0BE00020FFF78CFC07E00198007810F01F00B9D0801EC7D0F3E7C4
:203A280005B000BD0EB50191009000980290254800688069034624480122002198470198CE
:203A48000299408840F0004048600298042101700EBD00B5ADF1240D019100900098029018
:203A6800AC48006803901748006880690346164800220021984700208DF81C007AE0039820
:203A88000299406888610398406802990078C8617BE00198408800F0FF008DF81D0003988B
:203AA8004068059005989DF81D10407C88420DDC0020FFF738FC0298002181610298002151
:203AC800C16162E0500000010000054003989DF81D10806850F8210004900299002081F86E
:203AE800330002980021818604984068006802994068886104980EF088FA0299C8619DF87C
:203B08001D00029981F8360001208DF81C003CE00198019A4188908801F0FF0100F04EF81C
:203B280006900698B0F1FF3F03D10020FFF7FBFB2BE00398069AC068029950F8220088612E
:203B480003980699C06850F8210002990078C8611BE003980068006840B103980168AA4809
:203B680009680A4600680199904725E00020FFF7DAFB21E0019840880012401E3FF47FAF80
:203B8800401E86D0401EC3D0E3E70298806998B101980299C088C969884203D20198029961
:203BA800C088C8619DF81C0018B9002000F0B0F902E0002000F0FEF909B000BDADF1180D2F
:203BC800ADF81210ADF810005248006818B151480068C06810B94FF0FF3047E0BDF8120048
:203BE80008B9002042E04B480068C06800680078801E00EBD070401001904648006801997D
:203C08000069401EB0FBF1F002904248029A0068019B0069012103FB0211884202D04FF016
:203C2800FF3023E03B480068C068006800900020039001980399884216D90399009800EB7F
:203C48004100BDF810104088814206D10299039ABDF8120002FB010008E00398401C039075
:203C6800019803998842E8D84FF0FF3006B070470EB501910090A448006880690346A3484C
:203C88000022002198470020FFF74DFB0EBD00B5ADF1140D01910090009802909A480068C7
:203CA80080690346994800220021984702984068000803D300208DF80C0003E00298007AFF
:203CC8008DF80C0002980121C161029903A88861002000F01DF905B000BD00B5ADF11C0D2A
:203CE80001910090009802900A480068039086480068806903468548012200219847039830
:203D0800019940684988407C884205DA0020FFF70AFB45E0B44E00200198029940888860DD
:203D28000298806800282FD00198039940888968401E51F820000490049840680068406835
:203D48000590029890F83700A0B90598C07900F0C000C02807D1029991F8240040F0010055
:203D680081F8240006E0029991F8240020F0010081F824000198039940888968401E51F82D
:203D8800201002980DF0CBFA03980068C06838B10398029902681C488968D268006890470D
:203DA80007B000BD00B5ADF1140D01910090009802905548006880690346544800220021B1
:203DC800984702984068000803D300208DF80C000FE001988088082807DA01990298898845
:203DE8004018007C8DF80C0003E00020FFF79BFA08E002980121C161029903A888610020B3
:203E080000F086F805B000BD383C002000B5ADF12C0D019100900098079090480068089071
:203E2800394800688069034638480122002198470798089980688968401E51F8200002904A
:203E4800029804210EF0FDF806900020049006980499884244D9029804994FF0FF3205ABE5
:203E68000EF087F903900398002832D0019803998088897888422CD1019803994088C97821
:203E8800884226D1039880788DF8240003999DF824200798C9788018017403980299C3784A
:203EA8009DF8242007980DF035FB8DF825009DF82500C0B1089800688068A0B10898019905
:203EC800019A0368AF48097992789B680068984709E00498401C0490069804998842BAD8FB
:203EE8000020FFF720FA0BB000BD0EB50191009005480068806903460448012200219847D7
:203F08000020FFF710FA0EBD50000001000005401FB500909D49012008709D480068019057
:203F28000198402801D9402001909A48006802909649019AC869801AC8619449019A8869FA
:203F480080188861A048019B0068029AC06A04469E480021A0470198402809D19A480068C9
:203F6800006B0346994800214FF4817298471FE086490420087094480068006B0346934831
:203F88004FF4857200219847344800680068406970B18148006858B1304800687E4902687E
:203FA800096878485269006890477B490020086000901FBD10B5ADF1280D00907349022010
:203FC80008702649754809680078896851F8200005906F48006801900198402801D9402072
:203FE80001906F48008800283AD16E480078002836D1684801680A6807A802604A68426069
:20400800097A017205980EF000F8ADF81E000198092801D2019800E0092003906A48006860
:20402800039BC06A04466948002107AAA04705984068016803980988884206D158490020C0
:20404800088058490120087003E09DF80C005449088003990198401A039003E0B44E0020C6
:2040680001980390039800283DD04E4805990078496851F820000690494906980988008897
:20408800401A029046490698098840684018049003980299884201D2039802904A480068E0
:2040A800049A029BC06A044648480021A04702990398401A039035499DF80820888E8018A5
:2040C80088863749069809880088884208D12F4991F83300401C81F8330031490020088092
:2040E80003980028C1D12949019AC869801AC8612C48059900780978884202DB2449002023
:2041080008602348006878B1264805990078496851F8200040680490214800880390039A38
:204128001C490498801808600198402809D126480068006B0346254800214FF4817298476E
:2041480022E021480068006B0346204800214FF485729847874800680068406970B10E486F
:20416800006858B1834800680B490268096882485269006890470849002008600349042057
:20418800087001E0383C00200AB010BDF43B0020103C00200C3C0020143C00202A3C00208A
:2041A800283C0020273C002000B5ADF1140D019100907048006858B90348006800690146C6
:2041C80002488847D4E0C04650000001000005406948006802900198C00802D36948FFF7E6
:2041E800BDFA019840080BD3624800680068C06930B1604800680068C0690146029888476C
:20420800019880080BD35B4800680068006A30B1584800680068006A0146029888470198B6
:2042280080090BD3534800680068406A30B1514800680068406A01460298884701980009B4
:2042480014D34E490868401C08604D490868401C08604C48FFF75CF949480068052805D1FF
:20426800474900200860052011F0DFFE4648FEF7CCFE049045480068022819D1049800F0A5
:204288001400102814D13B4800680068C06A40B1384800680068C06A0346029815210022C2
:2042A80098473A49012008603748FEF771FE2BE036480068012816D1049800F0140004285B
:2042C80011D12C4800680068C06A40B1294800680068C06A034602981421002298472B499D
:2042E8000220086010E0049880080DD3214800680068C06A40B11F4800680068C06A03463A
:20430800029816210022984721480068D0F8D4101D48884701900198400806D31948FFF770
:2043280073F9019820F0010001901A480068D0F8FC101848006888470390039838B1154825
:204348000168D1F8F8201348039900689047094800680068806A58B1019808B9039838B1E3
:204368000448006800680199806A02460298904705B000BDB44E0020383C002078740020A8
:20438800D0740020F43B0020000005403C3C002050000001303C002008B500902B4900984F
:2043A80008602A480068406801462948884700F055F808BDADF1080D8DF8000025499DF847
:2043C800000051F8200002B070470EB50090002001900020029000F021FD002002900298F3
:2043E8002D2815D202981C4951F820000190019840B10198406828B10198009940680246BA
:20440800019890470298401C029002982D28E9D3002002900298272815D202980D4951F836
:2044280020000190019840B10198406828B10198009940680246019890470298401C029005
:2044480002982728E9D300F06DFE0EBDA8740020B55300009C940100E89301000EB59848F5
:204468009849994A0F2311F01DFD9848984913F0D5F80F209249954A974B0090954811F059
:204488004DF896489649974A0F2310F041FC96489649974A0F2310F0D1FC0F208F49924A42
:2044A800954B009093480EF07BFF92490020088092490B200870944A914892490F2310F06C
:2044C80027FC92489249934A0F2310F0B7FC0F2000908B498D4A914B8F480EF061FF8E49E8
:2044E800012008808E490B2008708E488F4A8E490F2310F00DFC8E488E4912F00FFE0F20E5
:20450800009088498A4A8D4B8B480EF0D9FB8A49022008808A490D2008708C4A89488A4972
:204528000F2310F0F5FB8A488A498B4A0F2310F085FC8A488A4913F0A3F88A488149844A77
:20454800864B00900F20019087480DF065FE86490320088085490C2008708548864A8549AC
:204568000F2310F0D5FB85488549864A0F2310F065FC8548854913F083F885487C497F4ABF
:20458800814B00900F20019082480DF045FE81490420088080490C2008708048814A8049AE
:2045A8000F2310F0B5FB80488049814A0F2310F045FC8048804913F063F8804877497A4A07
:2045C8007C4B00900F2001907D480DF025FE7C49052008807B490C2008707B487C4A7B49B0
:2045E8000F2311F05FFC7B487B4913F017F80F2000907549774A7A4B784810F08FFF77497B
:20460800062008807749052008707748784A77490F2311F047FC7748774912F0FFFF0F2022
:2046280000907149734A764B744810F077FF734907200880734905200870754A724873497F
:204648000F2311F02FFC7348734912F0E7FF0F2000906D496F4A724B704810F05FFF6F49DC
:20466800082008806F49052008706F48704A6F490F2311F017FC6F486F4912F0CFFF0F2050
:20468800009069496B4A6E4B6C4810F047FF6B49092008806B49052008706B486C4A6B4995
:2046A8000F2311F0FFFB6B48B44912F0B7FF0F2000906549674AB34BB14810F02FFFCBE06F
:2046C800B0450020A474002018260020A04D0020A57400206C45002090260020DC3C002002
:2046E8007E4B0020A82C0020A43E00207F4B0020D031002058480020002F00205A480020F7
:20470800283D00207C4B0020202D0020F03E00207D4B0020483200209C480020782F00201D
:204728009E480020C03D0020814B0020102E0020204E0020F95200003C1C00202834002037
:204748003E1C0020903C0020824B0020302C0020583E0020834B002058310020504E002077
:204768009E4B0020903500206C3A00206E3A00200C3E0020844B0020882E0020883F00209F
:20478800854B002038330020704E00209F4B002080360020343B0020363B0020743D0020E7
:2047A800864B0020982D00203C3F0020874B0020C0320020604E0020A04B00200836002045
:2047C800D03A0020D23A002048470020884B0020E8280020D04D0020A14B002004470020F5
:2047E8006029002006470020C0460020894B0020F8270020C04D0020A24B00207C46002026
:20480800702800207E460020E84000208A4B0020A81D0020104D0020A34B0020A440002043
:20482800201E0020A6400020604000208B4B0020B81C0020004D0020A44B00201C4000206A
:20484800301D00201E400020D04700208C4B0020D8290020E04D002049490A2008804A49F2
:20486800052008704B4A494849490F2311F01AFB4948424912F0D2FE0F2000904349464ACA
:20488800474B464810F04AFE44490C2008804549052008704448464A44490F2311F002FB63
:2048A8004448454912F0BAFE0F2000903E49414AAD4BAC4810F032FEAA4912200880AB498E
:2048C80005200870AA48AC4AAA490F2311F0EAFAAA48AB4912F0A2FE0F200090A449A74A1C
:2048E800A94BA84810F01AFEA64913200880A74905200870A84AA648A6490F2311F0D2FAAF
:20490800A648A74912F08AFE0F200090A049A34AB14BB04810F002FEAE4914200880AF49F3
:2049280005200870AE48B04AAE490F2311F0BAFAAE48AF4912F072FE0F200090A849AB4AFF
:20494800B34BB24810F0EAFDB04915200880B14905200870B048B24AB0490F2311F0A2FA67
:20496800B048B14912F05AFE0F200090AA49AD4AAF4BAE4810F0D2FD20E0C046A54B002065
:204988008C470020502A00208E470020384600208E4B002008270020B04D0020F445002031
:2049A80080270020F645002018440020904B002048230020704D0020A94B00209B491620C0
:2049C80008809C49052008709D4A9B489B490F2311F068FA9B489C4912F020FE0F200090DB
:2049E8009549984AB74BB64810F098FDB4490E200880B54905200870B448B64AB4490F23E1
:204A080011F050FAB448B54912F008FE0F200090AE49B14AB34BB24810F080FDB0490F20F3
:204A28000880B14905200870B048B24AB0490F2311F038FAB048B14912F0F0FD0F2000905D
:204A4800AA49AD4AAF4BAE4810F068FDAC4910200880AD4905200870AC48AD4912F0AAFC3D
:204A6800AA4919200880AB4907200870AA48AB4912F0A0FCA8491A200880A949072008701F
:204A8800A848A94912F096FCA6491B200880A74907200870A648A84AA6490F2311F062FBF8
:204AA800A3491D200880A5490A200870A448A64AA4490F2311F0A0FCA1491C200880A3497B
:204AC80009200870A248A34912F0A8FDA04917200880A14903200870A048A14912F09EFD14
:204AE8009B49182008809C49032008700F209F4A9F4B9D4900909B4810F030FE99491E20E1
:204B080008809C49062008709B489E4B9C4900900F200190994800220BF014F89748012176
:204B28000BF085F895491F2008809749082008700C48AF4AAF4B00909448AF4901900F2065
:204B48000290934808F04EFA91492020088091490E2008700B48A94AA94B00908E48A949EC
:204B680001901FE0D4430020C0230020D643002008430020914B002068210020504D00205D
:204B8800AA4B0020C4420020E0210020C642002028450020924B002028250020904D002095
:204BA800AB4B00200F2002907C4808F01BFA7B49212008807A490E2008700648924A934B47
:204BC80000907848924901900F200290764808F009FA0FE0E4440020A0250020E644002031
:204BE80090430020934B002058220020604D0020AC4B00206C49222008806C490E20087064
:204C08000248844A814B009069481FE04C430020D02200204E430020A0440020944B0020F3
:204C280038240020804D0020AD4B00205C440020B02400205E44002070410020954B0020A4
:204C4800981E0020204D0020AE4B0020724901900F200290574808F0C5F956492320088004
:204C680055490E2008700F20564B554900905348032209F019FB51492420088052490F20ED
:204C880008705248544A5349009051480F230CF051FE4F49252008805049102008705048DC
:204CA800504ACC490F2310F033F84D49262008804D49012008704D480CF092FC0EBDC0465D
:204CC8002C410020101F00202E410020F8410020964B0020881F0020304D0020AF4B002089
:204CE800B441002000200020B641002080420020974B002078200020404D0020B04B0020DC
:204D08003C420020F02000203E420020104E0020B34B0020124E0020F04D0020B44B002085
:204D2800F24D0020004E0020B54B0020024E002024490020B74B0020683000202649002018
:204D4800A4490020B64B002018350020A6490020304E0020B14B0020324E0020404E002099
:204D6800B24B0020D43F0020984B0020B94B0020F02F0020D63F0020B0330020B81900204C
:204D88009A4B002055530000BA190020F83600203039002032390020C82A00205838002047
:204DA8005A380020703700209C3900209E390020A0340020C4380020C638002014480020DC
:204DC800804E0020402B002016480020F1530000983B0020B84B0020E03000209A3B002055
:204DE800443C0020B82B0020463C0020844A0020044700207C4600203C1C0020A4400020AF
:204E08001C4000206C3A00208C4700206C450020343B0020F4450020D03A002008B5B148BC
:204E280000688068014600208847002801DD012000E00020AC490870AA48006880680146C7
:204E480008208847002801DD012000E00020A7490870A44800688068014601208847002829
:204E680001DD012000E00020A14908709D4800688068014609208847002801DD012000E04E
:204E880000209C490870974800688068014606208847002801DD012000E000204D490870ED
:204EA800904800688068014602208847002801DD012000E00020904908708A4800688068F0
:204EC800014603208847002801DD012000E000208A49087083480068806801460B208847C3
:204EE800002801DD012000E00020854908707D4800688068014604208847002801DD0120C7
:204F080000E000207F49087076480068806801460C208847002801DD012000E000207A490F
:204F28000870704800688068014605208847002801DD012000E00020744908706948006839
:204F4800806801460D208847002801DD012000E000206F4908706348006880680146112054
:204F68008847002801DD012000E00020694908705C4800688068014612208847002801DDC7
:204F8800012000E0002064490870564800688068014613208847002801DD012000E0002065
:204FA8005E4908704F4800688068014614208847002801DD012000E00020594908704948C7
:204FC80000688068014615208847002804DD012003E0C046804B00200020C0490870414806
:204FE80000688068014617208847002801DD012000E00020BA4908703A4800688068014651
:2050080019208847002801DD012000E00020B549087034480068806801461A20884700289F
:2050280001DD012000E00020AF4908702D480068806801461B208847002801DD012000E0DC
:205048000020AA49087027480068806801461D208847002801DD012000E00020B84908700B
:2050680020480068806801461E208847002801DD012000E00020B34908701A4800688068CF
:2050880001461F208847002801DD012000E00020AD4908701348006880680146202088471D
:2050A800002801DD012000E00020BD4908700D4800688068014610208847002801DD012031
:2050C80000E00020B74908700648006800698047B54908800348006840698047AF49088041
:2050E80008BDC046A87400207C4B00207D4B00207E4B00207F4B0020814B0020824B002026
:20510800834B0020844B0020854B0020864B0020874B0020884B0020894B00208A4B0020FB
:205128008B4B002008B5C148BF4900680978C068024601209047BD48BD4900680978C06836
:20514800024602209047B948BA4900680978C068024603209047B548B74900680978C068A1
:20516800024604209047B148B44900680978C068024605209047AD48B14900680978C06899
:20518800024606209047A948AE4900680978C068024607209047A548AB4900680978C06891
:2051A800024608209047A1489E4900680978C06802460A2090479D48A44900680978C06893
:2051C80002460C2090479948A14900680978C06802460D20904795489E4900680978C0687F
:2051E80002460E20904791489B4900680978C06802460F2090478D48984900680978C06877
:205208000246102090478948954900680978C0680246112090478548924900680978C0686E
:2052280002461220904781488F4900680978C0680246132090477D488C4900680978C06866
:205248000246152090477948894900680978C0680246162090477548864900680978C0685C
:205268000246172090477148834900680978C0680246182090476D48804900680978C06854
:2052880002461920904769497D4809680078CA68012118B97B48007800B900211B20904702
:2052A8006248794900680978C06802461C2090475E48764900680978C06802461D2090473C
:2052C8005A496F4809680078CA68012118B96D48007800B900211A20904708BD8C4B00208A
:2052E8008E4B0020904B0020914B0020924B00200EB58DF8041000909DF8040068B940A033
:2053080012F0F4F8624811F053FE48480068006A002102460020904710E09DF80400012827
:205328000CD13BA012F0E2F8594811F041FE3F480068006A00210246012090470EBDC04665
:20534800944B0020954B0020964B00200EB500918DF804009DF8040038B934480068006A90
:20536800002102460220904716E09DF80400012807D12E480068006A002102460320904788
:205388000AE09DF80400022806D128480068006A00210246042090470EBDC0469C4B002003
:2053A800974B0020984B00209A4B00200EB500918DF804009DF8040020B90099354811F075
:2053C80063F810E09DF80400012804D10099324810F010FF07E09DF80400022803D12F48CC
:2053E80000990CF0B3FB0EBD0EB5019100900F4800680099006A0246052090470EBDC046DB
:2054080053696465646F6F72206C6F636B0D0A0053696465646F6F7220756E6C6F636B0D79
:205428000A00C046A74B00209E4B0020A87400209F4B0020A04B0020A14B0020A24B0020CF
:20544800A34B0020A44B0020A54B0020A94B0020AA4B0020AB4B0020AC4B0020AD4B0020A9
:20546800AE4B0020AF4B0020B04B0020B14B0020B24B0020B34B0020B44B0020B54B002040
:20548800B64B0020B74B0020B94B0020B84B0020D06E0020A449002024490020983B00208F
:2054A800ADF1080D0090002001900198062811D20198C04A009952F83000884204D3019856
:2054C800BD4951F8300006E00198401C019001980628EDD3002002B07047ADF1200D00906E
:2054E800C5480068C0F38920C0F315000590C24800686FF39F200490C048006800F4F850A3
:20550800000A401C0690BD48006800F01F00401C079000990798B1FBF0F0009005984009DE
:20552800029005980299A0EB4110039004980099484301900298009A0199504301EB50112B
:2055480001910398009A0199504301EB9021019106980199B1FBF0F00190019808B07047C3
:20556800C5480068401C00027047C549C3480A68C4491040814207D1C34800686FF31F40E2
:20558800C00200F5006005E0CF4800686FF31F40401CC0027047BA49B8480A68CB49104019
:2055A800814208D1C848006800F4E020010C01200A31884001E04FF4806070471CB500908E
:2055C800C349C348009C009B009A04F47F4403F47F4302F0FF0201EB142100EB132001F044
:2055E80070416FF31F5041EA401141EA820141F000700168002001B101201CBD1CB50090C0
:20560800CE49CE48009C009B009A04F47F4403F47F4302F0FF0201EB142100EB132001F0ED
:2056280070416FF31F5041EA401141EA820141F000700168002001B101201CBD1CB500907F
:20564800CD49CD48009C009B009A04F47F4403F47F4302F0FF0201EB142100EB132001F0AF
:2056680070416FF31F5041EA401141EA8201012241F0007002601CBD1CB50090BE49BE4809
:20568800009C009B009A04F47F4403F47F4302F0FF0201EB142100EB132001F070416FF387
:2056A8001F5041EA401141EA8201002241F0007002601CBD1CB50090CA49CA48009C009B8E
:2056C800009A04F47F4403F47F4302F0FF0201EB142100EB132001F070416FF31F5041EAE4
:2056E800401141EA8201012241F000700260002001900198102805D20198401C0190019805
:205708001028F9D3009C009B009AB649B54804F47F4403F47F4302F0FF0201EB142100EB3D
:20572800132001F070416FF31F5041EA401141EA8201002241F0007002601CBD1CB5009032
:20574800C349C348009C009B009A04F47F4403F47F4302F0FF0201EB142100EB132001F0C2
:2057680070416FF31F5041EA401141EA8201012241F0007002601CBD1CB50090B449B4481C
:20578800009C009B009A04F47F4403F47F4302F0FF0201EB142100EB132001F070416FF386
:2057A8001F5041EA401141EA8201002241F0007002601CBD5C980100609801001CB50090FB
:2057C800BE49BE48009C009B009A04F47F4403F47F4302F0FF0201EB142100EB132001F04C
:2057E80070416FF31F5041EA401141EA8201012241F0007002601CBD60E10F4064E10F40D2
:205808001CB50090AD49AD48009C009B009A04F47F4403F47F4302F0FF0201EB142100EBF0
:20582800132001F070416FF31F5041EA401141EA8201002241F0007002601CBD1CB5009031
:205848009F499F48009C009B009A04F47F4403F47F4302F0FF0201EB142100EB132001F009
:2058680070416FF31F5041EA401141EA8201012241F0007002601CBDC4DF0F400000FF7014
:2058880000E00F400000051008E00F401CB500908B498B48009C009B009A04F47F4403F4FA
:2058A8007F4302F0FF0201EB142100EB132001F070416FF31F5041EA401141EA820100222D
:2058C80041F0007002601CBDC0DF0F4000000A1000E30F40ADF1080D8DF80000BB49BC486A
:2058E8000A68BC49104081420ED19DF8000028B17449086840F00060086013E07149086887
:2059080020F0006008600DE09DF8000028B16E49086840F00050086004E06B49086820F025
:205928000050086002B0704708B5009000992C200AF035FF2C200AF0C8FF08BD00EA0F40D3
:2059480008B52C200AF0FAFF2C200AF051FF08BDADF1080D00905D4900980A68104308603A
:2059680002B07047ADF1080D00905849009A08689043086002B0704700E90F40ADF1080D39
:20598800009053490098086002B07047ADF1080D8DF800009DF8000010B14D48006801E0FE
:2059A8004C48006802B07047ADF1080D00904A490098086002B07047474800687047ADF1EF
:2059C800080D009045490098086002B07047434800687047ADF1080D0090414900980860AC
:2059E80002B0704700E50F40ADF1080D00903D490098086002B070473C483B490860FEE77B
:205A080008B512F071F908BD08B53949086840F00400086012F068F93549086820F00400E0
:205A2800086008BD334800687047ADF1080D00903049009A08689043086002B07047ADF18F
:205A4800080D0090B4490098086002B07047C04600E60F40ADF1080D009027480099084263
:205A680009D00098254900F000400860009823496FF3DE1008600098204908600098800A60
:205A88000DD31F48006810F4407FFAD01C48006800F44070B0F5807F01D0002000E00120BC
:205AA80002B07047ADF1080D009016490098086002B07047134800687047C04600E70F40B4
:205AC80000E80F4060E00F40B0E00F4054E00F4058E00F4050E00F40B4E10F40BCE10F40C0
:205AE80088E10F408CE10F400CED00E00400FA0510ED00E05CE00F400001008050E10F40E5
:205B080054E10F40D8E10F4030B5ADF12C0D019100902E492E480A682E491040814201D158
:205B2800002044E1009800F4F86080090490009800F03800102808D19E4807900020089011
:205B480008980890152004904AE0009800F03800302806D147F2305007904FF400100890E8
:205B68003EE0009800F03800382806D14FF4004007904FF48000089032E0009810F0380FA2
:205B88002AD104981A2802DC0498092801DA00200DE10498884951F8200007904FF4401090
:205BA8000890089840F0407008905B48006820F01C0005900498072803DB059840F01000DB
:205BC80005900598544908600AE0C04600E00F400000FF7000000510002007900020089074
:205BE800009810F4605F40F09980009810F0380F06D0009800F03800102801D00020D6E0A5
:205C08000098C0F3026003906D48FFF749FC6B4908606F496B48096808400990099840F0A2
:205C2800004009906A4909980860049809380490654A0398019952F82000019A4018401EB7
:205C4800B0FBF2F00690624908980A68104308605E4D039C049B5F49D822980002FB04522B
:205C680000EBC3008018406808605A4A06981168401E41EA00211160544D5749039C049B71
:205C8800D822980002FB045200EBC30009688258514801F40001114301600798FFF71DFC2C
:205CA800400801900198FFF7FBFB444908604A480068000E05D34649086840F08040086052
:205CC80004E04549086840F4000008604FF4004002900298002809DDAD480068400805D205
:205CE8000298401E029002980028F5DC029880B1374800680990A749099A0898104301436A
:205D08000991099840F00040099031490998086047E00020019044E07CE00F402548FFF7AA
:205D2800BFFB264908602C49086820F40000086027480068099098480999084009900998F5
:205D480040F000400990224909980860019810B9002006900FE001980799B1FBF0F006905C
:205D6800069810B10698401E069006980799401CB1FBF0F001900198FFF792FB0F49086097
:205D8800134800680990069A0899099840EA822001430991099840F0004009900C49099873
:205DA80008600B49086820F47000086001980BB030BDC0460024F40064960100C0E00F407A
:205DC80040787D0100FC0FE08C9B01002C8D0100B0E00F4064E10F4060E10F4000B5ADF162
:205DE800140D0090AC4800680290AE4800680390029840F400600290029820F4800002908B
:205E0800039840F400600390A34902980860A549039808600298400823D30098400820D22F
:205E28000098029A6FF0010100F001000143114002915C494FF4807008609749029808608A
:205E48004FF40020019004E00198401E0190019818B155480068400AF6D30198002800F0AF
:205E68009580029820F4FE6002900098029900F4FE60084302904948039908400390009A63
:205E8800474803991040084303900098039900F0080041EAC00103917F4902980860814961
:205EA80003980860029820F4005002900098029900F4005008430290039820F40050039061
:205EC8000098039900F40050084303903549402008600398000806D30398724908606E492D
:205EE8000298086005E002986B4908606D490398086002999B4808400290009A9A480299D5
:205F0800104008430290039820F0FC5003900098039900F0FC50084303900098C00F0ED32C
:205F2800029840F480000290039820F480000390009A8E48039910400843039003E00398FF
:205F480020F0804003900098000B16D24FF400400190019848B10E480068400805D201982F
:205F6800401E019001980028F5D1029820F400600290039820F400600390029846490860D0
:205F8800484903980860102012F098F805B000BD68E10F4001000010FF0300EF8FFFFF7F8B
:205FA8003000008058E00F4050E00F40ADF1180D3948006800903B480068019018E00098DB
:205FC800AE4900F4F860800951F82000039024E0B148039021E0B64803901EE047F2305018
:205FE80003901AE04FF40040039016E00020AEE00198000803D3019800F0700002E0009868
:2060080000F030000028DAD01038E1D01038E2D01038E3D04038E5D0E8E74FF0FF3004909A
:206028000198000802D30198000B05D30198000853D20098000B50D2B64800680290B648E5
:206048000068059005990598039A01F01F0100F4F850491C000A401C41434800B2FBF0F0F2
:20606800039002990298039B039AC1F389216FF39F20C1F315015043594300EB912003906E
:20608800009840F48000009014E0B848049024E0B948049021E0C04660E00F40B7480490D2
:2060A8001BE0C04670E00F40B548049015E0BA48049012E0B948006800F47040B0F5005028
:2060C800E3D0B0F58050E3D0B0F58050E6D0B0F54050E9D0B0F50050E9D00098C00D2FD3AF
:2060E8000198000823D30198C00F16D30198000802D30198000B05D3019800080DD20098A6
:20610800000B0AD20198039900F0FE504900800D401CB1FBF0F0039012E00198039900F0B5
:20612800FC50C00D401CB1FBF0F0039008E00098039900F0F060C00D401CB1FBF0F003901F
:2061480003980499884201D904980390039806B07047ADF1080D00909C490098086002B04A
:206168007047C046FEFF3FF80100C00700004040ADF1100D01910090954996480A689649F4
:206188001040814209D100990198904A491E20F0FC5040EAC15010602DE00098401E0290FB
:2061A8000EE0029840F44010029013E0029840F4001002900EE0029840F48000029009E01F
:2061C800019810F07000ECD0103803D02038EDD04038F0D00198800803D3029840F0004089
:2061E80002900198C00F03D3029840F08040029002987649086004B07047ADF1080D00903C
:206208007648764A0099006820F4F0100143116002B0704771480068400D01D2002003E081
:206228006E48006800F4F0107047ADF1080D00906B4A00981368012100F00F008140194344
:20624800116002B07047ADF1080D0090644B00981968012200F00F0082409143196002B06E
:2062680070476049086820F48040086070475D49086840F4804008607047C0466496010029
:20628800ADF1080D009058490098086002B07047524800687047C0460024F400ADF1080D1F
:2062A80000904E4900980A681043086002B0704700093D00ADF1300D019100904449454824
:2062C8000A6845491040814204D1019800210160002049E04548006803900398400F04D222
:2062E80001980021016000203EE0009800F4F860800902903E49029851F8200006900548D1
:206308000068049004480068059004986FF39F2004E0C04660E10F4064E10F400790049832
:20632800C0F38920C0F315000890059800F01F000990059800F4F850000A0A90069B069A96
:20634800089807995843514301EB90210B9109980A990B9A401C491C4143B2FBF1F00B9036
:2063680001990B98086001200CB0704700B4C404204800687047C04680F0FA02005A6202A9
:2063880040787D01ADF1080D00901A49009A08689043086002B07047002D310110E00F40CD
:2063A800ADF1080D0191009013490198009A401E00F0FF001043086002B07047ADF1080D4D
:2063C80000900E490098086002B0704744E10F4000E00F400000FF700000051060E00F40AF
:2063E8006CE00F4070E00F4038E00F40B0E00F406496010064E00F4048E10F4038E10F40A7
:20640800ADF1100D019100900020029000990198D1F8D420401E01218140114202D001206F
:2064280002900DE000990198D1F8D020401E01218140114202D00420029001E0002002903B
:20644800029804B070470EB50191009000200290009801990068FCF781FCB0F5807F02D117
:206468000220029019E000990198D1F8D420401E01218140114202D0012002900DE00099D9
:206488000198D1F8D020401E01218140114202D00420029001E00020029002980EBD00B5D9
:2064A800ADF1140D009000200190002001900098D0F8D000029000200390039808281ADAEF
:2064C800029840080CD3B3480068006C01460398884728B9039A019901209040084301908E
:2064E800029840080290029828B10398401C039003980828E4DB019805B000BD08B5009041
:2065080000980068FCF7EAFB08BDADF1080D01910090009A0199D2F8D4008843C2F8D400D6
:2065280002B07047ADF1100D01910090019820B300200290029808281FD20198400811D36F
:20654800009B029AD3F8D010012090408143C3F8D010009B029AD3F8D410012090400843DF
:20656800C3F8D400019840080190019828B10298401C029002980828DFD304B070470EB56E
:2065880001910090009840680AF011FA0290029830B18E480068009AC068014650688847B1
:2065A800009B0198D3F8D0200121401E81401143C3F8D010009B0198D3F8D4100122401E50
:2065C80082409143C3F8D41001990098491E00EB8100806800F04060B0F1406F0ED17C480E
:2065E8000199009B02680098491EC918006891F88810D2F8A830002298470EE074480199A4
:20660800009B02680098491EC918006891F88810D2F8A8304FF4005298475E480068416936
:206628000198401E8847029830B168480068009A00680146506888470EBD0EB50191009079
:20664800009840680AF0B3F90290029830B15F480068009AC068014650688847009B01986C
:20666800D3F8D0200121401E81401143C3F8D010009B0198D3F8D4100122401E824091432D
:20668800C3F8D410009801990068491EFCF706FB009801990068491EFCF728FB029830B1CC
:2066A8004A480068009A00680146506888470EBD0EB50191009001990098491E00EB810053
:2066C800806800F04060B0F1406F0ED140480199009B02680098491EC918006891F888107B
:2066E800D2F8AC30002298470EE039480199009B02680098491EC918006891F88810D2F8AA
:20670800AC304FF4005298472248006881690198401E8847009B0198D3F8D0100122401E3F
:2067280082409143C3F8D010009B0198D3F8D4100122401E82409143C3F8D4100EBD0EB5F9
:2067480001910090009801990068491EFCF7DEFA009801990068491EFCF7B0FA009B019871
:20676800D3F8D0100122401E82409143C3F8D010009B0198D3F8D4100122401E82409143BA
:20678800C3F8D4100EBDADF1080D0191009002B07047C046540000010EB501910090009871
:2067A80001990068491EFCF779FA0EBDADF1080D0191009002B070470EB50191009000987C
:2067C80001990068491EFCF779FA0EBD480000015000000110B5ADF1280D04930392029126
:2067E80001900498402803D3039810F0030F01D00020B6E0019B0298D3F8D0200121401E81
:2068080081401143C3F8D010019B0298D3F8D4100122401E82409143C3F8D41002990198F1
:20682800039A491E00EB8100826402990198049A491E00EB8100826601980299019A006836
:20684800491E891891F88810FCF77FF905900298401E06900498089002990198491E00EBBF
:206868008100806800F00850B0F1085F03D10898800808900DE002990198491E00EB8100CF
:20688800806800F00850B0F1085F02D108984008089002990198491E00EB8100806800F086
:2068A8004060B0F1406F0BD1B64800680899006800910446059A039B06980121A0470AE0EC
:2068C800B04800680899006800910446039A059B06980121A04702990198491E00EB810081
:2068E8000499806A884226D202990198491E00EB81000499806AB1FBF0F007900198019A62
:2069080002990068491E891891F88810079AFCF78AF90299019C0298019A019B491E401E5E
